{
	"contracts/Twitter.sol": {
		"Twitter": {
			"abi": [
				{
					"inputs": [],
					"stateMutability": "nonpayable",
					"type": "constructor"
				},
				{
					"inputs": [],
					"name": "MAX_TWEET_LENGTH",
					"outputs": [
						{
							"internalType": "uint16",
							"name": "",
							"type": "uint16"
						}
					],
					"stateMutability": "view",
					"type": "function"
				},
				{
					"inputs": [
						{
							"internalType": "uint16",
							"name": "newTweetLength",
							"type": "uint16"
						}
					],
					"name": "changeTweetLength",
					"outputs": [],
					"stateMutability": "nonpayable",
					"type": "function"
				},
				{
					"inputs": [
						{
							"internalType": "string",
							"name": "_tweet",
							"type": "string"
						}
					],
					"name": "createTweet",
					"outputs": [],
					"stateMutability": "nonpayable",
					"type": "function"
				},
				{
					"inputs": [
						{
							"internalType": "address",
							"name": "_owner",
							"type": "address"
						}
					],
					"name": "getAllTweets",
					"outputs": [
						{
							"components": [
								{
									"internalType": "uint256",
									"name": "id",
									"type": "uint256"
								},
								{
									"internalType": "address",
									"name": "author",
									"type": "address"
								},
								{
									"internalType": "string",
									"name": "content",
									"type": "string"
								},
								{
									"internalType": "uint256",
									"name": "timestamp",
									"type": "uint256"
								},
								{
									"internalType": "uint256",
									"name": "likes",
									"type": "uint256"
								}
							],
							"internalType": "struct Twitter.Tweet[]",
							"name": "",
							"type": "tuple[]"
						}
					],
					"stateMutability": "view",
					"type": "function"
				},
				{
					"inputs": [
						{
							"internalType": "address",
							"name": "_owner",
							"type": "address"
						},
						{
							"internalType": "uint256",
							"name": "_i",
							"type": "uint256"
						}
					],
					"name": "getTweet",
					"outputs": [
						{
							"components": [
								{
									"internalType": "uint256",
									"name": "id",
									"type": "uint256"
								},
								{
									"internalType": "address",
									"name": "author",
									"type": "address"
								},
								{
									"internalType": "string",
									"name": "content",
									"type": "string"
								},
								{
									"internalType": "uint256",
									"name": "timestamp",
									"type": "uint256"
								},
								{
									"internalType": "uint256",
									"name": "likes",
									"type": "uint256"
								}
							],
							"internalType": "struct Twitter.Tweet",
							"name": "",
							"type": "tuple"
						}
					],
					"stateMutability": "view",
					"type": "function"
				},
				{
					"inputs": [
						{
							"internalType": "uint256",
							"name": "id",
							"type": "uint256"
						},
						{
							"internalType": "address",
							"name": "author",
							"type": "address"
						}
					],
					"name": "likeTweet",
					"outputs": [],
					"stateMutability": "nonpayable",
					"type": "function"
				},
				{
					"inputs": [],
					"name": "owner",
					"outputs": [
						{
							"internalType": "address",
							"name": "",
							"type": "address"
						}
					],
					"stateMutability": "view",
					"type": "function"
				},
				{
					"inputs": [
						{
							"internalType": "address",
							"name": "",
							"type": "address"
						},
						{
							"internalType": "uint256",
							"name": "",
							"type": "uint256"
						}
					],
					"name": "tweets",
					"outputs": [
						{
							"internalType": "uint256",
							"name": "id",
							"type": "uint256"
						},
						{
							"internalType": "address",
							"name": "author",
							"type": "address"
						},
						{
							"internalType": "string",
							"name": "content",
							"type": "string"
						},
						{
							"internalType": "uint256",
							"name": "timestamp",
							"type": "uint256"
						},
						{
							"internalType": "uint256",
							"name": "likes",
							"type": "uint256"
						}
					],
					"stateMutability": "view",
					"type": "function"
				},
				{
					"inputs": [
						{
							"internalType": "address",
							"name": "author",
							"type": "address"
						},
						{
							"internalType": "uint256",
							"name": "id",
							"type": "uint256"
						}
					],
					"name": "unlikeTweet",
					"outputs": [],
					"stateMutability": "nonpayable",
					"type": "function"
				}
			],
			"devdoc": {
				"kind": "dev",
				"methods": {},
				"version": 1
			},
			"evm": {
				"assembly": "    /* \"contracts/Twitter.sol\":66:1872  contract Twitter {... */\n  mstore(0x40, 0x80)\n    /* \"contracts/Twitter.sol\":199:202  280 */\n  0x0118\n    /* \"contracts/Twitter.sol\":165:202  uint16  public MAX_TWEET_LENGTH = 280 */\n  0x00\n  dup1\n  0x0100\n  exp\n  dup2\n  sload\n  dup2\n  0xffff\n  mul\n  not\n  and\n  swap1\n  dup4\n  0xffff\n  and\n  mul\n  or\n  swap1\n  sstore\n  pop\n    /* \"contracts/Twitter.sol\":428:477  constructor() {... */\n  callvalue\n  dup1\n  iszero\n  tag_1\n  jumpi\n  0x00\n  dup1\n  revert\ntag_1:\n  pop\n    /* \"contracts/Twitter.sol\":460:470  msg.sender */\n  caller\n    /* \"contracts/Twitter.sol\":452:457  owner */\n  0x02\n  0x00\n    /* \"contracts/Twitter.sol\":452:470  owner = msg.sender */\n  0x0100\n  exp\n  dup2\n  sload\n  dup2\n  0xffffffffffffffffffffffffffffffffffffffff\n  mul\n  not\n  and\n  swap1\n  dup4\n  0xffffffffffffffffffffffffffffffffffffffff\n  and\n  mul\n  or\n  swap1\n  sstore\n  pop\n    /* \"contracts/Twitter.sol\":66:1872  contract Twitter {... */\n  dataSize(sub_0)\n  dup1\n  dataOffset(sub_0)\n  0x00\n  codecopy\n  0x00\n  return\nstop\n\nsub_0: assembly {\n        /* \"contracts/Twitter.sol\":66:1872  contract Twitter {... */\n      mstore(0x40, 0x80)\n      callvalue\n      dup1\n      iszero\n      tag_1\n      jumpi\n      0x00\n      dup1\n      revert\n    tag_1:\n      pop\n      jumpi(tag_2, lt(calldatasize, 0x04))\n      shr(0xe0, calldataload(0x00))\n      dup1\n      0x58bfa4ab\n      gt\n      tag_12\n      jumpi\n      dup1\n      0x58bfa4ab\n      eq\n      tag_7\n      jumpi\n      dup1\n      0x6eb10797\n      eq\n      tag_8\n      jumpi\n      dup1\n      0x7c9cd2bc\n      eq\n      tag_9\n      jumpi\n      dup1\n      0x8da5cb5b\n      eq\n      tag_10\n      jumpi\n      dup1\n      0xd04ddaa0\n      eq\n      tag_11\n      jumpi\n      jump(tag_2)\n    tag_12:\n      dup1\n      0x05a1b4a9\n      eq\n      tag_3\n      jumpi\n      dup1\n      0x112f54e3\n      eq\n      tag_4\n      jumpi\n      dup1\n      0x12e7ee1c\n      eq\n      tag_5\n      jumpi\n      dup1\n      0x3d9b569f\n      eq\n      tag_6\n      jumpi\n    tag_2:\n      0x00\n      dup1\n      revert\n        /* \"contracts/Twitter.sol\":353:394  mapping(address => Tweet[]) public tweets */\n    tag_3:\n      tag_13\n      0x04\n      dup1\n      calldatasize\n      sub\n      dup2\n      add\n      swap1\n      tag_14\n      swap2\n      swap1\n      tag_15\n      jump\t// in\n    tag_14:\n      tag_16\n      jump\t// in\n    tag_13:\n      mload(0x40)\n      tag_17\n      swap6\n      swap5\n      swap4\n      swap3\n      swap2\n      swap1\n      tag_18\n      jump\t// in\n    tag_17:\n      mload(0x40)\n      dup1\n      swap2\n      sub\n      swap1\n      return\n        /* \"contracts/Twitter.sol\":1630:1750  function getTweet(address _owner, uint _i) public view returns (Tweet memory) {... */\n    tag_4:\n      tag_19\n      0x04\n      dup1\n      calldatasize\n      sub\n      dup2\n      add\n      swap1\n      tag_20\n      swap2\n      swap1\n      tag_15\n      jump\t// in\n    tag_20:\n      tag_21\n      jump\t// in\n    tag_19:\n      mload(0x40)\n      tag_22\n      swap2\n      swap1\n      tag_23\n      jump\t// in\n    tag_22:\n      mload(0x40)\n      dup1\n      swap2\n      sub\n      swap1\n      return\n        /* \"contracts/Twitter.sol\":1757:1870  function getAllTweets(address _owner) public view returns (Tweet[] memory) {... */\n    tag_5:\n      tag_24\n      0x04\n      dup1\n      calldatasize\n      sub\n      dup2\n      add\n      swap1\n      tag_25\n      swap2\n      swap1\n      tag_26\n      jump\t// in\n    tag_25:\n      tag_27\n      jump\t// in\n    tag_24:\n      mload(0x40)\n      tag_28\n      swap2\n      swap1\n      tag_29\n      jump\t// in\n    tag_28:\n      mload(0x40)\n      dup1\n      swap2\n      sub\n      swap1\n      return\n        /* \"contracts/Twitter.sol\":1382:1624  function unlikeTweet(address author, uint256 id) external  {... */\n    tag_6:\n      tag_30\n      0x04\n      dup1\n      calldatasize\n      sub\n      dup2\n      add\n      swap1\n      tag_31\n      swap2\n      swap1\n      tag_15\n      jump\t// in\n    tag_31:\n      tag_32\n      jump\t// in\n    tag_30:\n      stop\n        /* \"contracts/Twitter.sol\":593:710  function changeTweetLength(uint16 newTweetLength) public  onlyOwner{... */\n    tag_7:\n      tag_33\n      0x04\n      dup1\n      calldatasize\n      sub\n      dup2\n      add\n      swap1\n      tag_34\n      swap2\n      swap1\n      tag_35\n      jump\t// in\n    tag_34:\n      tag_36\n      jump\t// in\n    tag_33:\n      stop\n        /* \"contracts/Twitter.sol\":165:202  uint16  public MAX_TWEET_LENGTH = 280 */\n    tag_8:\n      tag_37\n      tag_38\n      jump\t// in\n    tag_37:\n      mload(0x40)\n      tag_39\n      swap2\n      swap1\n      tag_40\n      jump\t// in\n    tag_39:\n      mload(0x40)\n      dup1\n      swap2\n      sub\n      swap1\n      return\n        /* \"contracts/Twitter.sol\":716:1199  function createTweet(string memory _tweet) public {... */\n    tag_9:\n      tag_41\n      0x04\n      dup1\n      calldatasize\n      sub\n      dup2\n      add\n      swap1\n      tag_42\n      swap2\n      swap1\n      tag_43\n      jump\t// in\n    tag_42:\n      tag_44\n      jump\t// in\n    tag_41:\n      stop\n        /* \"contracts/Twitter.sol\":400:420  address public owner */\n    tag_10:\n      tag_45\n      tag_46\n      jump\t// in\n    tag_45:\n      mload(0x40)\n      tag_47\n      swap2\n      swap1\n      tag_48\n      jump\t// in\n    tag_47:\n      mload(0x40)\n      dup1\n      swap2\n      sub\n      swap1\n      return\n        /* \"contracts/Twitter.sol\":1206:1376  function likeTweet(uint256 id, address author) external {... */\n    tag_11:\n      tag_49\n      0x04\n      dup1\n      calldatasize\n      sub\n      dup2\n      add\n      swap1\n      tag_50\n      swap2\n      swap1\n      tag_51\n      jump\t// in\n    tag_50:\n      tag_52\n      jump\t// in\n    tag_49:\n      stop\n        /* \"contracts/Twitter.sol\":353:394  mapping(address => Tweet[]) public tweets */\n    tag_16:\n      mstore(0x20, 0x01)\n      dup2\n      0x00\n      mstore\n      keccak256(0x00, 0x40)\n      dup2\n      dup2\n      sload\n      dup2\n      lt\n      tag_53\n      jumpi\n      0x00\n      dup1\n      revert\n    tag_53:\n      swap1\n      0x00\n      mstore\n      keccak256(0x00, 0x20)\n      swap1\n      0x05\n      mul\n      add\n      0x00\n      swap2\n      pop\n      swap2\n      pop\n      pop\n      dup1\n      0x00\n      add\n      sload\n      swap1\n      dup1\n      0x01\n      add\n      0x00\n      swap1\n      sload\n      swap1\n      0x0100\n      exp\n      swap1\n      div\n      0xffffffffffffffffffffffffffffffffffffffff\n      and\n      swap1\n      dup1\n      0x02\n      add\n      dup1\n      sload\n      tag_55\n      swap1\n      tag_56\n      jump\t// in\n    tag_55:\n      dup1\n      0x1f\n      add\n      0x20\n      dup1\n      swap2\n      div\n      mul\n      0x20\n      add\n      mload(0x40)\n      swap1\n      dup2\n      add\n      0x40\n      mstore\n      dup1\n      swap3\n      swap2\n      swap1\n      dup2\n      dup2\n      mstore\n      0x20\n      add\n      dup3\n      dup1\n      sload\n      tag_57\n      swap1\n      tag_56\n      jump\t// in\n    tag_57:\n      dup1\n      iszero\n      tag_58\n      jumpi\n      dup1\n      0x1f\n      lt\n      tag_59\n      jumpi\n      0x0100\n      dup1\n      dup4\n      sload\n      div\n      mul\n      dup4\n      mstore\n      swap2\n      0x20\n      add\n      swap2\n      jump(tag_58)\n    tag_59:\n      dup3\n      add\n      swap2\n      swap1\n      0x00\n      mstore\n      keccak256(0x00, 0x20)\n      swap1\n    tag_60:\n      dup2\n      sload\n      dup2\n      mstore\n      swap1\n      0x01\n      add\n      swap1\n      0x20\n      add\n      dup1\n      dup4\n      gt\n      tag_60\n      jumpi\n      dup3\n      swap1\n      sub\n      0x1f\n      and\n      dup3\n      add\n      swap2\n    tag_58:\n      pop\n      pop\n      pop\n      pop\n      pop\n      swap1\n      dup1\n      0x03\n      add\n      sload\n      swap1\n      dup1\n      0x04\n      add\n      sload\n      swap1\n      pop\n      dup6\n      jump\t// out\n        /* \"contracts/Twitter.sol\":1630:1750  function getTweet(address _owner, uint _i) public view returns (Tweet memory) {... */\n    tag_21:\n        /* \"contracts/Twitter.sol\":1694:1706  Tweet memory */\n      tag_61\n      tag_62\n      jump\t// in\n    tag_61:\n        /* \"contracts/Twitter.sol\":1725:1731  tweets */\n      0x01\n        /* \"contracts/Twitter.sol\":1725:1739  tweets[_owner] */\n      0x00\n        /* \"contracts/Twitter.sol\":1732:1738  _owner */\n      dup5\n        /* \"contracts/Twitter.sol\":1725:1739  tweets[_owner] */\n      0xffffffffffffffffffffffffffffffffffffffff\n      and\n      0xffffffffffffffffffffffffffffffffffffffff\n      and\n      dup2\n      mstore\n      0x20\n      add\n      swap1\n      dup2\n      mstore\n      0x20\n      add\n      0x00\n      keccak256\n        /* \"contracts/Twitter.sol\":1740:1742  _i */\n      dup3\n        /* \"contracts/Twitter.sol\":1725:1743  tweets[_owner][_i] */\n      dup2\n      sload\n      dup2\n      lt\n      tag_64\n      jumpi\n      tag_65\n      tag_66\n      jump\t// in\n    tag_65:\n    tag_64:\n      swap1\n      0x00\n      mstore\n      keccak256(0x00, 0x20)\n      swap1\n      0x05\n      mul\n      add\n        /* \"contracts/Twitter.sol\":1718:1743  return tweets[_owner][_i] */\n      mload(0x40)\n      dup1\n      0xa0\n      add\n      0x40\n      mstore\n      swap1\n      dup2\n      0x00\n      dup3\n      add\n      sload\n      dup2\n      mstore\n      0x20\n      add\n      0x01\n      dup3\n      add\n      0x00\n      swap1\n      sload\n      swap1\n      0x0100\n      exp\n      swap1\n      div\n      0xffffffffffffffffffffffffffffffffffffffff\n      and\n      0xffffffffffffffffffffffffffffffffffffffff\n      and\n      0xffffffffffffffffffffffffffffffffffffffff\n      and\n      dup2\n      mstore\n      0x20\n      add\n      0x02\n      dup3\n      add\n      dup1\n      sload\n      tag_68\n      swap1\n      tag_56\n      jump\t// in\n    tag_68:\n      dup1\n      0x1f\n      add\n      0x20\n      dup1\n      swap2\n      div\n      mul\n      0x20\n      add\n      mload(0x40)\n      swap1\n      dup2\n      add\n      0x40\n      mstore\n      dup1\n      swap3\n      swap2\n      swap1\n      dup2\n      dup2\n      mstore\n      0x20\n      add\n      dup3\n      dup1\n      sload\n      tag_69\n      swap1\n      tag_56\n      jump\t// in\n    tag_69:\n      dup1\n      iszero\n      tag_70\n      jumpi\n      dup1\n      0x1f\n      lt\n      tag_71\n      jumpi\n      0x0100\n      dup1\n      dup4\n      sload\n      div\n      mul\n      dup4\n      mstore\n      swap2\n      0x20\n      add\n      swap2\n      jump(tag_70)\n    tag_71:\n      dup3\n      add\n      swap2\n      swap1\n      0x00\n      mstore\n      keccak256(0x00, 0x20)\n      swap1\n    tag_72:\n      dup2\n      sload\n      dup2\n      mstore\n      swap1\n      0x01\n      add\n      swap1\n      0x20\n      add\n      dup1\n      dup4\n      gt\n      tag_72\n      jumpi\n      dup3\n      swap1\n      sub\n      0x1f\n      and\n      dup3\n      add\n      swap2\n    tag_70:\n      pop\n      pop\n      pop\n      pop\n      pop\n      dup2\n      mstore\n      0x20\n      add\n      0x03\n      dup3\n      add\n      sload\n      dup2\n      mstore\n      0x20\n      add\n      0x04\n      dup3\n      add\n      sload\n      dup2\n      mstore\n      pop\n      pop\n      swap1\n      pop\n        /* \"contracts/Twitter.sol\":1630:1750  function getTweet(address _owner, uint _i) public view returns (Tweet memory) {... */\n      swap3\n      swap2\n      pop\n      pop\n      jump\t// out\n        /* \"contracts/Twitter.sol\":1757:1870  function getAllTweets(address _owner) public view returns (Tweet[] memory) {... */\n    tag_27:\n        /* \"contracts/Twitter.sol\":1816:1830  Tweet[] memory */\n      0x60\n        /* \"contracts/Twitter.sol\":1849:1855  tweets */\n      0x01\n        /* \"contracts/Twitter.sol\":1849:1863  tweets[_owner] */\n      0x00\n        /* \"contracts/Twitter.sol\":1856:1862  _owner */\n      dup4\n        /* \"contracts/Twitter.sol\":1849:1863  tweets[_owner] */\n      0xffffffffffffffffffffffffffffffffffffffff\n      and\n      0xffffffffffffffffffffffffffffffffffffffff\n      and\n      dup2\n      mstore\n      0x20\n      add\n      swap1\n      dup2\n      mstore\n      0x20\n      add\n      0x00\n      keccak256\n        /* \"contracts/Twitter.sol\":1842:1863  return tweets[_owner] */\n      dup1\n      sload\n      dup1\n      0x20\n      mul\n      0x20\n      add\n      mload(0x40)\n      swap1\n      dup2\n      add\n      0x40\n      mstore\n      dup1\n      swap3\n      swap2\n      swap1\n      dup2\n      dup2\n      mstore\n      0x20\n      add\n      0x00\n      swap1\n    tag_74:\n      dup3\n      dup3\n      lt\n      iszero\n      tag_75\n      jumpi\n      dup4\n      dup3\n      swap1\n      0x00\n      mstore\n      keccak256(0x00, 0x20)\n      swap1\n      0x05\n      mul\n      add\n      mload(0x40)\n      dup1\n      0xa0\n      add\n      0x40\n      mstore\n      swap1\n      dup2\n      0x00\n      dup3\n      add\n      sload\n      dup2\n      mstore\n      0x20\n      add\n      0x01\n      dup3\n      add\n      0x00\n      swap1\n      sload\n      swap1\n      0x0100\n      exp\n      swap1\n      div\n      0xffffffffffffffffffffffffffffffffffffffff\n      and\n      0xffffffffffffffffffffffffffffffffffffffff\n      and\n      0xffffffffffffffffffffffffffffffffffffffff\n      and\n      dup2\n      mstore\n      0x20\n      add\n      0x02\n      dup3\n      add\n      dup1\n      sload\n      tag_77\n      swap1\n      tag_56\n      jump\t// in\n    tag_77:\n      dup1\n      0x1f\n      add\n      0x20\n      dup1\n      swap2\n      div\n      mul\n      0x20\n      add\n      mload(0x40)\n      swap1\n      dup2\n      add\n      0x40\n      mstore\n      dup1\n      swap3\n      swap2\n      swap1\n      dup2\n      dup2\n      mstore\n      0x20\n      add\n      dup3\n      dup1\n      sload\n      tag_78\n      swap1\n      tag_56\n      jump\t// in\n    tag_78:\n      dup1\n      iszero\n      tag_79\n      jumpi\n      dup1\n      0x1f\n      lt\n      tag_80\n      jumpi\n      0x0100\n      dup1\n      dup4\n      sload\n      div\n      mul\n      dup4\n      mstore\n      swap2\n      0x20\n      add\n      swap2\n      jump(tag_79)\n    tag_80:\n      dup3\n      add\n      swap2\n      swap1\n      0x00\n      mstore\n      keccak256(0x00, 0x20)\n      swap1\n    tag_81:\n      dup2\n      sload\n      dup2\n      mstore\n      swap1\n      0x01\n      add\n      swap1\n      0x20\n      add\n      dup1\n      dup4\n      gt\n      tag_81\n      jumpi\n      dup3\n      swap1\n      sub\n      0x1f\n      and\n      dup3\n      add\n      swap2\n    tag_79:\n      pop\n      pop\n      pop\n      pop\n      pop\n      dup2\n      mstore\n      0x20\n      add\n      0x03\n      dup3\n      add\n      sload\n      dup2\n      mstore\n      0x20\n      add\n      0x04\n      dup3\n      add\n      sload\n      dup2\n      mstore\n      pop\n      pop\n      dup2\n      mstore\n      0x20\n      add\n      swap1\n      0x01\n      add\n      swap1\n      jump(tag_74)\n    tag_75:\n      pop\n      pop\n      pop\n      pop\n      swap1\n      pop\n        /* \"contracts/Twitter.sol\":1757:1870  function getAllTweets(address _owner) public view returns (Tweet[] memory) {... */\n      swap2\n      swap1\n      pop\n      jump\t// out\n        /* \"contracts/Twitter.sol\":1382:1624  function unlikeTweet(address author, uint256 id) external  {... */\n    tag_32:\n        /* \"contracts/Twitter.sol\":1484:1486  id */\n      dup1\n        /* \"contracts/Twitter.sol\":1459:1465  tweets */\n      0x01\n        /* \"contracts/Twitter.sol\":1459:1473  tweets[author] */\n      0x00\n        /* \"contracts/Twitter.sol\":1466:1472  author */\n      dup5\n        /* \"contracts/Twitter.sol\":1459:1473  tweets[author] */\n      0xffffffffffffffffffffffffffffffffffffffff\n      and\n      0xffffffffffffffffffffffffffffffffffffffff\n      and\n      dup2\n      mstore\n      0x20\n      add\n      swap1\n      dup2\n      mstore\n      0x20\n      add\n      0x00\n      keccak256\n        /* \"contracts/Twitter.sol\":1474:1476  id */\n      dup3\n        /* \"contracts/Twitter.sol\":1459:1477  tweets[author][id] */\n      dup2\n      sload\n      dup2\n      lt\n      tag_83\n      jumpi\n      tag_84\n      tag_66\n      jump\t// in\n    tag_84:\n    tag_83:\n      swap1\n      0x00\n      mstore\n      keccak256(0x00, 0x20)\n      swap1\n      0x05\n      mul\n      add\n        /* \"contracts/Twitter.sol\":1459:1480  tweets[author][id].id */\n      0x00\n      add\n      sload\n        /* \"contracts/Twitter.sol\":1459:1486  tweets[author][id].id == id */\n      eq\n        /* \"contracts/Twitter.sol\":1451:1511  require(tweets[author][id].id == id, \"tweet does not exist\") */\n      tag_86\n      jumpi\n      mload(0x40)\n      0x08c379a000000000000000000000000000000000000000000000000000000000\n      dup2\n      mstore\n      0x04\n      add\n      tag_87\n      swap1\n      tag_88\n      jump\t// in\n    tag_87:\n      mload(0x40)\n      dup1\n      swap2\n      sub\n      swap1\n      revert\n    tag_86:\n        /* \"contracts/Twitter.sol\":1556:1557  0 */\n      0x00\n        /* \"contracts/Twitter.sol\":1529:1535  tweets */\n      0x01\n        /* \"contracts/Twitter.sol\":1529:1543  tweets[author] */\n      0x00\n        /* \"contracts/Twitter.sol\":1536:1542  author */\n      dup5\n        /* \"contracts/Twitter.sol\":1529:1543  tweets[author] */\n      0xffffffffffffffffffffffffffffffffffffffff\n      and\n      0xffffffffffffffffffffffffffffffffffffffff\n      and\n      dup2\n      mstore\n      0x20\n      add\n      swap1\n      dup2\n      mstore\n      0x20\n      add\n      0x00\n      keccak256\n        /* \"contracts/Twitter.sol\":1544:1546  id */\n      dup3\n        /* \"contracts/Twitter.sol\":1529:1547  tweets[author][id] */\n      dup2\n      sload\n      dup2\n      lt\n      tag_89\n      jumpi\n      tag_90\n      tag_66\n      jump\t// in\n    tag_90:\n    tag_89:\n      swap1\n      0x00\n      mstore\n      keccak256(0x00, 0x20)\n      swap1\n      0x05\n      mul\n      add\n        /* \"contracts/Twitter.sol\":1529:1553  tweets[author][id].likes */\n      0x04\n      add\n      sload\n        /* \"contracts/Twitter.sol\":1529:1557  tweets[author][id].likes > 0 */\n      gt\n        /* \"contracts/Twitter.sol\":1521:1580  require(tweets[author][id].likes > 0, \"Tweet has no likes\") */\n      tag_92\n      jumpi\n      mload(0x40)\n      0x08c379a000000000000000000000000000000000000000000000000000000000\n      dup2\n      mstore\n      0x04\n      add\n      tag_93\n      swap1\n      tag_94\n      jump\t// in\n    tag_93:\n      mload(0x40)\n      dup1\n      swap2\n      sub\n      swap1\n      revert\n    tag_92:\n        /* \"contracts/Twitter.sol\":1591:1597  tweets */\n      0x01\n        /* \"contracts/Twitter.sol\":1591:1605  tweets[author] */\n      0x00\n        /* \"contracts/Twitter.sol\":1598:1604  author */\n      dup4\n        /* \"contracts/Twitter.sol\":1591:1605  tweets[author] */\n      0xffffffffffffffffffffffffffffffffffffffff\n      and\n      0xffffffffffffffffffffffffffffffffffffffff\n      and\n      dup2\n      mstore\n      0x20\n      add\n      swap1\n      dup2\n      mstore\n      0x20\n      add\n      0x00\n      keccak256\n        /* \"contracts/Twitter.sol\":1606:1608  id */\n      dup2\n        /* \"contracts/Twitter.sol\":1591:1609  tweets[author][id] */\n      dup2\n      sload\n      dup2\n      lt\n      tag_95\n      jumpi\n      tag_96\n      tag_66\n      jump\t// in\n    tag_96:\n    tag_95:\n      swap1\n      0x00\n      mstore\n      keccak256(0x00, 0x20)\n      swap1\n      0x05\n      mul\n      add\n        /* \"contracts/Twitter.sol\":1591:1615  tweets[author][id].likes */\n      0x04\n      add\n      0x00\n        /* \"contracts/Twitter.sol\":1591:1617  tweets[author][id].likes-- */\n      dup2\n      sload\n      dup1\n      swap3\n      swap2\n      swap1\n      tag_98\n      swap1\n      tag_99\n      jump\t// in\n    tag_98:\n      swap2\n      swap1\n      pop\n      sstore\n      pop\n        /* \"contracts/Twitter.sol\":1382:1624  function unlikeTweet(address author, uint256 id) external  {... */\n      pop\n      pop\n      jump\t// out\n        /* \"contracts/Twitter.sol\":593:710  function changeTweetLength(uint16 newTweetLength) public  onlyOwner{... */\n    tag_36:\n        /* \"contracts/Twitter.sol\":536:541  owner */\n      0x02\n      0x00\n      swap1\n      sload\n      swap1\n      0x0100\n      exp\n      swap1\n      div\n      0xffffffffffffffffffffffffffffffffffffffff\n      and\n        /* \"contracts/Twitter.sol\":522:541  msg.sender == owner */\n      0xffffffffffffffffffffffffffffffffffffffff\n      and\n        /* \"contracts/Twitter.sol\":522:532  msg.sender */\n      caller\n        /* \"contracts/Twitter.sol\":522:541  msg.sender == owner */\n      0xffffffffffffffffffffffffffffffffffffffff\n      and\n      eq\n        /* \"contracts/Twitter.sol\":514:569  require(msg.sender == owner, \"You are not the owner!!\") */\n      tag_101\n      jumpi\n      mload(0x40)\n      0x08c379a000000000000000000000000000000000000000000000000000000000\n      dup2\n      mstore\n      0x04\n      add\n      tag_102\n      swap1\n      tag_103\n      jump\t// in\n    tag_102:\n      mload(0x40)\n      dup1\n      swap2\n      sub\n      swap1\n      revert\n    tag_101:\n        /* \"contracts/Twitter.sol\":689:703  newTweetLength */\n      dup1\n        /* \"contracts/Twitter.sol\":670:686  MAX_TWEET_LENGTH */\n      0x00\n      dup1\n        /* \"contracts/Twitter.sol\":670:703  MAX_TWEET_LENGTH = newTweetLength */\n      0x0100\n      exp\n      dup2\n      sload\n      dup2\n      0xffff\n      mul\n      not\n      and\n      swap1\n      dup4\n      0xffff\n      and\n      mul\n      or\n      swap1\n      sstore\n      pop\n        /* \"contracts/Twitter.sol\":593:710  function changeTweetLength(uint16 newTweetLength) public  onlyOwner{... */\n      pop\n      jump\t// out\n        /* \"contracts/Twitter.sol\":165:202  uint16  public MAX_TWEET_LENGTH = 280 */\n    tag_38:\n      0x00\n      dup1\n      sload\n      swap1\n      0x0100\n      exp\n      swap1\n      div\n      0xffff\n      and\n      dup2\n      jump\t// out\n        /* \"contracts/Twitter.sol\":716:1199  function createTweet(string memory _tweet) public {... */\n    tag_44:\n        /* \"contracts/Twitter.sol\":119:120  5 */\n      0x05\n        /* \"contracts/Twitter.sol\":790:796  _tweet */\n      dup2\n        /* \"contracts/Twitter.sol\":784:804  bytes(_tweet).length */\n      mload\n        /* \"contracts/Twitter.sol\":784:817  bytes(_tweet).length >= minLength */\n      lt\n      iszero\n        /* \"contracts/Twitter.sol\":776:845  require(bytes(_tweet).length >= minLength, \"You tweet is too short\" ) */\n      tag_106\n      jumpi\n      mload(0x40)\n      0x08c379a000000000000000000000000000000000000000000000000000000000\n      dup2\n      mstore\n      0x04\n      add\n      tag_107\n      swap1\n      tag_108\n      jump\t// in\n    tag_107:\n      mload(0x40)\n      dup1\n      swap2\n      sub\n      swap1\n      revert\n    tag_106:\n        /* \"contracts/Twitter.sol\":156:159  280 */\n      0x0118\n        /* \"contracts/Twitter.sol\":869:875  _tweet */\n      dup2\n        /* \"contracts/Twitter.sol\":863:883  bytes(_tweet).length */\n      mload\n        /* \"contracts/Twitter.sol\":863:896  bytes(_tweet).length <= maxLength */\n      gt\n      iszero\n        /* \"contracts/Twitter.sol\":855:922  require(bytes(_tweet).length <= maxLength, \"You tweet is too long\") */\n      tag_109\n      jumpi\n      mload(0x40)\n      0x08c379a000000000000000000000000000000000000000000000000000000000\n      dup2\n      mstore\n      0x04\n      add\n      tag_110\n      swap1\n      tag_111\n      jump\t// in\n    tag_110:\n      mload(0x40)\n      dup1\n      swap2\n      sub\n      swap1\n      revert\n    tag_109:\n        /* \"contracts/Twitter.sol\":941:962  Tweet memory newTweet */\n      0x00\n        /* \"contracts/Twitter.sol\":965:1148  Tweet({... */\n      mload(0x40)\n      dup1\n      0xa0\n      add\n      0x40\n      mstore\n      dup1\n        /* \"contracts/Twitter.sol\":989:995  tweets */\n      0x01\n        /* \"contracts/Twitter.sol\":989:1007  tweets[msg.sender] */\n      0x00\n        /* \"contracts/Twitter.sol\":996:1006  msg.sender */\n      caller\n        /* \"contracts/Twitter.sol\":989:1007  tweets[msg.sender] */\n      0xffffffffffffffffffffffffffffffffffffffff\n      and\n      0xffffffffffffffffffffffffffffffffffffffff\n      and\n      dup2\n      mstore\n      0x20\n      add\n      swap1\n      dup2\n      mstore\n      0x20\n      add\n      0x00\n      keccak256\n        /* \"contracts/Twitter.sol\":989:1014  tweets[msg.sender].length */\n      dup1\n      sload\n      swap1\n      pop\n        /* \"contracts/Twitter.sol\":965:1148  Tweet({... */\n      dup2\n      mstore\n      0x20\n      add\n        /* \"contracts/Twitter.sol\":1036:1046  msg.sender */\n      caller\n        /* \"contracts/Twitter.sol\":965:1148  Tweet({... */\n      0xffffffffffffffffffffffffffffffffffffffff\n      and\n      dup2\n      mstore\n      0x20\n      add\n        /* \"contracts/Twitter.sol\":1069:1075  _tweet */\n      dup4\n        /* \"contracts/Twitter.sol\":965:1148  Tweet({... */\n      dup2\n      mstore\n      0x20\n      add\n        /* \"contracts/Twitter.sol\":1100:1115  block.timestamp */\n      timestamp\n        /* \"contracts/Twitter.sol\":965:1148  Tweet({... */\n      dup2\n      mstore\n      0x20\n      add\n        /* \"contracts/Twitter.sol\":1136:1137  0 */\n      0x00\n        /* \"contracts/Twitter.sol\":965:1148  Tweet({... */\n      dup2\n      mstore\n      pop\n        /* \"contracts/Twitter.sol\":941:1148  Tweet memory newTweet = Tweet({... */\n      swap1\n      pop\n        /* \"contracts/Twitter.sol\":1159:1165  tweets */\n      0x01\n        /* \"contracts/Twitter.sol\":1159:1177  tweets[msg.sender] */\n      0x00\n        /* \"contracts/Twitter.sol\":1166:1176  msg.sender */\n      caller\n        /* \"contracts/Twitter.sol\":1159:1177  tweets[msg.sender] */\n      0xffffffffffffffffffffffffffffffffffffffff\n      and\n      0xffffffffffffffffffffffffffffffffffffffff\n      and\n      dup2\n      mstore\n      0x20\n      add\n      swap1\n      dup2\n      mstore\n      0x20\n      add\n      0x00\n      keccak256\n        /* \"contracts/Twitter.sol\":1183:1191  newTweet */\n      dup2\n        /* \"contracts/Twitter.sol\":1159:1192  tweets[msg.sender].push(newTweet) */\n      swap1\n      dup1\n      0x01\n      dup2\n      sload\n      add\n      dup1\n      dup3\n      sstore\n      dup1\n      swap2\n      pop\n      pop\n      0x01\n      swap1\n      sub\n      swap1\n      0x00\n      mstore\n      keccak256(0x00, 0x20)\n      swap1\n      0x05\n      mul\n      add\n      0x00\n      swap1\n      swap2\n      swap1\n      swap2\n      swap1\n      swap2\n      pop\n      0x00\n      dup3\n      add\n      mload\n      dup2\n      0x00\n      add\n      sstore\n      0x20\n      dup3\n      add\n      mload\n      dup2\n      0x01\n      add\n      exp(0x0100, 0x00)\n      dup2\n      sload\n      dup2\n      0xffffffffffffffffffffffffffffffffffffffff\n      mul\n      not\n      and\n      swap1\n      dup4\n      0xffffffffffffffffffffffffffffffffffffffff\n      and\n      mul\n      or\n      swap1\n      sstore\n      pop\n      0x40\n      dup3\n      add\n      mload\n      dup2\n      0x02\n      add\n      swap1\n      dup2\n      tag_113\n      swap2\n      swap1\n      tag_114\n      jump\t// in\n    tag_113:\n      pop\n      0x60\n      dup3\n      add\n      mload\n      dup2\n      0x03\n      add\n      sstore\n      0x80\n      dup3\n      add\n      mload\n      dup2\n      0x04\n      add\n      sstore\n      pop\n      pop\n        /* \"contracts/Twitter.sol\":766:1199  {... */\n      pop\n        /* \"contracts/Twitter.sol\":716:1199  function createTweet(string memory _tweet) public {... */\n      pop\n      jump\t// out\n        /* \"contracts/Twitter.sol\":400:420  address public owner */\n    tag_46:\n      0x02\n      0x00\n      swap1\n      sload\n      swap1\n      0x0100\n      exp\n      swap1\n      div\n      0xffffffffffffffffffffffffffffffffffffffff\n      and\n      dup2\n      jump\t// out\n        /* \"contracts/Twitter.sol\":1206:1376  function likeTweet(uint256 id, address author) external {... */\n    tag_52:\n        /* \"contracts/Twitter.sol\":1305:1307  id */\n      dup2\n        /* \"contracts/Twitter.sol\":1280:1286  tweets */\n      0x01\n        /* \"contracts/Twitter.sol\":1280:1294  tweets[author] */\n      0x00\n        /* \"contracts/Twitter.sol\":1287:1293  author */\n      dup4\n        /* \"contracts/Twitter.sol\":1280:1294  tweets[author] */\n      0xffffffffffffffffffffffffffffffffffffffff\n      and\n      0xffffffffffffffffffffffffffffffffffffffff\n      and\n      dup2\n      mstore\n      0x20\n      add\n      swap1\n      dup2\n      mstore\n      0x20\n      add\n      0x00\n      keccak256\n        /* \"contracts/Twitter.sol\":1295:1297  id */\n      dup4\n        /* \"contracts/Twitter.sol\":1280:1298  tweets[author][id] */\n      dup2\n      sload\n      dup2\n      lt\n      tag_116\n      jumpi\n      tag_117\n      tag_66\n      jump\t// in\n    tag_117:\n    tag_116:\n      swap1\n      0x00\n      mstore\n      keccak256(0x00, 0x20)\n      swap1\n      0x05\n      mul\n      add\n        /* \"contracts/Twitter.sol\":1280:1301  tweets[author][id].id */\n      0x00\n      add\n      sload\n        /* \"contracts/Twitter.sol\":1280:1307  tweets[author][id].id == id */\n      eq\n        /* \"contracts/Twitter.sol\":1272:1332  require(tweets[author][id].id == id, \"tweet does not exist\") */\n      tag_119\n      jumpi\n      mload(0x40)\n      0x08c379a000000000000000000000000000000000000000000000000000000000\n      dup2\n      mstore\n      0x04\n      add\n      tag_120\n      swap1\n      tag_88\n      jump\t// in\n    tag_120:\n      mload(0x40)\n      dup1\n      swap2\n      sub\n      swap1\n      revert\n    tag_119:\n        /* \"contracts/Twitter.sol\":1343:1349  tweets */\n      0x01\n        /* \"contracts/Twitter.sol\":1343:1357  tweets[author] */\n      0x00\n        /* \"contracts/Twitter.sol\":1350:1356  author */\n      dup3\n        /* \"contracts/Twitter.sol\":1343:1357  tweets[author] */\n      0xffffffffffffffffffffffffffffffffffffffff\n      and\n      0xffffffffffffffffffffffffffffffffffffffff\n      and\n      dup2\n      mstore\n      0x20\n      add\n      swap1\n      dup2\n      mstore\n      0x20\n      add\n      0x00\n      keccak256\n        /* \"contracts/Twitter.sol\":1358:1360  id */\n      dup3\n        /* \"contracts/Twitter.sol\":1343:1361  tweets[author][id] */\n      dup2\n      sload\n      dup2\n      lt\n      tag_121\n      jumpi\n      tag_122\n      tag_66\n      jump\t// in\n    tag_122:\n    tag_121:\n      swap1\n      0x00\n      mstore\n      keccak256(0x00, 0x20)\n      swap1\n      0x05\n      mul\n      add\n        /* \"contracts/Twitter.sol\":1343:1367  tweets[author][id].likes */\n      0x04\n      add\n      0x00\n        /* \"contracts/Twitter.sol\":1343:1369  tweets[author][id].likes++ */\n      dup2\n      sload\n      dup1\n      swap3\n      swap2\n      swap1\n      tag_124\n      swap1\n      tag_125\n      jump\t// in\n    tag_124:\n      swap2\n      swap1\n      pop\n      sstore\n      pop\n        /* \"contracts/Twitter.sol\":1206:1376  function likeTweet(uint256 id, address author) external {... */\n      pop\n      pop\n      jump\t// out\n    tag_62:\n      mload(0x40)\n      dup1\n      0xa0\n      add\n      0x40\n      mstore\n      dup1\n      0x00\n      dup2\n      mstore\n      0x20\n      add\n      and(0xffffffffffffffffffffffffffffffffffffffff, 0x00)\n      dup2\n      mstore\n      0x20\n      add\n      0x60\n      dup2\n      mstore\n      0x20\n      add\n      0x00\n      dup2\n      mstore\n      0x20\n      add\n      0x00\n      dup2\n      mstore\n      pop\n      swap1\n      jump\t// out\n        /* \"#utility.yul\":7:82   */\n    tag_126:\n        /* \"#utility.yul\":40:46   */\n      0x00\n        /* \"#utility.yul\":73:75   */\n      0x40\n        /* \"#utility.yul\":67:76   */\n      mload\n        /* \"#utility.yul\":57:76   */\n      swap1\n      pop\n        /* \"#utility.yul\":7:82   */\n      swap1\n      jump\t// out\n        /* \"#utility.yul\":88:205   */\n    tag_127:\n        /* \"#utility.yul\":197:198   */\n      0x00\n        /* \"#utility.yul\":194:195   */\n      dup1\n        /* \"#utility.yul\":187:199   */\n      revert\n        /* \"#utility.yul\":211:328   */\n    tag_128:\n        /* \"#utility.yul\":320:321   */\n      0x00\n        /* \"#utility.yul\":317:318   */\n      dup1\n        /* \"#utility.yul\":310:322   */\n      revert\n        /* \"#utility.yul\":334:460   */\n    tag_129:\n        /* \"#utility.yul\":371:378   */\n      0x00\n        /* \"#utility.yul\":411:453   */\n      0xffffffffffffffffffffffffffffffffffffffff\n        /* \"#utility.yul\":404:409   */\n      dup3\n        /* \"#utility.yul\":400:454   */\n      and\n        /* \"#utility.yul\":389:454   */\n      swap1\n      pop\n        /* \"#utility.yul\":334:460   */\n      swap2\n      swap1\n      pop\n      jump\t// out\n        /* \"#utility.yul\":466:562   */\n    tag_130:\n        /* \"#utility.yul\":503:510   */\n      0x00\n        /* \"#utility.yul\":532:556   */\n      tag_201\n        /* \"#utility.yul\":550:555   */\n      dup3\n        /* \"#utility.yul\":532:556   */\n      tag_129\n      jump\t// in\n    tag_201:\n        /* \"#utility.yul\":521:556   */\n      swap1\n      pop\n        /* \"#utility.yul\":466:562   */\n      swap2\n      swap1\n      pop\n      jump\t// out\n        /* \"#utility.yul\":568:690   */\n    tag_131:\n        /* \"#utility.yul\":641:665   */\n      tag_203\n        /* \"#utility.yul\":659:664   */\n      dup2\n        /* \"#utility.yul\":641:665   */\n      tag_130\n      jump\t// in\n    tag_203:\n        /* \"#utility.yul\":634:639   */\n      dup2\n        /* \"#utility.yul\":631:666   */\n      eq\n        /* \"#utility.yul\":621:684   */\n      tag_204\n      jumpi\n        /* \"#utility.yul\":680:681   */\n      0x00\n        /* \"#utility.yul\":677:678   */\n      dup1\n        /* \"#utility.yul\":670:682   */\n      revert\n        /* \"#utility.yul\":621:684   */\n    tag_204:\n        /* \"#utility.yul\":568:690   */\n      pop\n      jump\t// out\n        /* \"#utility.yul\":696:835   */\n    tag_132:\n        /* \"#utility.yul\":742:747   */\n      0x00\n        /* \"#utility.yul\":780:786   */\n      dup2\n        /* \"#utility.yul\":767:787   */\n      calldataload\n        /* \"#utility.yul\":758:787   */\n      swap1\n      pop\n        /* \"#utility.yul\":796:829   */\n      tag_206\n        /* \"#utility.yul\":823:828   */\n      dup2\n        /* \"#utility.yul\":796:829   */\n      tag_131\n      jump\t// in\n    tag_206:\n        /* \"#utility.yul\":696:835   */\n      swap3\n      swap2\n      pop\n      pop\n      jump\t// out\n        /* \"#utility.yul\":841:918   */\n    tag_133:\n        /* \"#utility.yul\":878:885   */\n      0x00\n        /* \"#utility.yul\":907:912   */\n      dup2\n        /* \"#utility.yul\":896:912   */\n      swap1\n      pop\n        /* \"#utility.yul\":841:918   */\n      swap2\n      swap1\n      pop\n      jump\t// out\n        /* \"#utility.yul\":924:1046   */\n    tag_134:\n        /* \"#utility.yul\":997:1021   */\n      tag_209\n        /* \"#utility.yul\":1015:1020   */\n      dup2\n        /* \"#utility.yul\":997:1021   */\n      tag_133\n      jump\t// in\n    tag_209:\n        /* \"#utility.yul\":990:995   */\n      dup2\n        /* \"#utility.yul\":987:1022   */\n      eq\n        /* \"#utility.yul\":977:1040   */\n      tag_210\n      jumpi\n        /* \"#utility.yul\":1036:1037   */\n      0x00\n        /* \"#utility.yul\":1033:1034   */\n      dup1\n        /* \"#utility.yul\":1026:1038   */\n      revert\n        /* \"#utility.yul\":977:1040   */\n    tag_210:\n        /* \"#utility.yul\":924:1046   */\n      pop\n      jump\t// out\n        /* \"#utility.yul\":1052:1191   */\n    tag_135:\n        /* \"#utility.yul\":1098:1103   */\n      0x00\n        /* \"#utility.yul\":1136:1142   */\n      dup2\n        /* \"#utility.yul\":1123:1143   */\n      calldataload\n        /* \"#utility.yul\":1114:1143   */\n      swap1\n      pop\n        /* \"#utility.yul\":1152:1185   */\n      tag_212\n        /* \"#utility.yul\":1179:1184   */\n      dup2\n        /* \"#utility.yul\":1152:1185   */\n      tag_134\n      jump\t// in\n    tag_212:\n        /* \"#utility.yul\":1052:1191   */\n      swap3\n      swap2\n      pop\n      pop\n      jump\t// out\n        /* \"#utility.yul\":1197:1671   */\n    tag_15:\n        /* \"#utility.yul\":1265:1271   */\n      0x00\n        /* \"#utility.yul\":1273:1279   */\n      dup1\n        /* \"#utility.yul\":1322:1324   */\n      0x40\n        /* \"#utility.yul\":1310:1319   */\n      dup4\n        /* \"#utility.yul\":1301:1308   */\n      dup6\n        /* \"#utility.yul\":1297:1320   */\n      sub\n        /* \"#utility.yul\":1293:1325   */\n      slt\n        /* \"#utility.yul\":1290:1409   */\n      iszero\n      tag_214\n      jumpi\n        /* \"#utility.yul\":1328:1407   */\n      tag_215\n      tag_127\n      jump\t// in\n    tag_215:\n        /* \"#utility.yul\":1290:1409   */\n    tag_214:\n        /* \"#utility.yul\":1448:1449   */\n      0x00\n        /* \"#utility.yul\":1473:1526   */\n      tag_216\n        /* \"#utility.yul\":1518:1525   */\n      dup6\n        /* \"#utility.yul\":1509:1515   */\n      dup3\n        /* \"#utility.yul\":1498:1507   */\n      dup7\n        /* \"#utility.yul\":1494:1516   */\n      add\n        /* \"#utility.yul\":1473:1526   */\n      tag_132\n      jump\t// in\n    tag_216:\n        /* \"#utility.yul\":1463:1526   */\n      swap3\n      pop\n        /* \"#utility.yul\":1419:1536   */\n      pop\n        /* \"#utility.yul\":1575:1577   */\n      0x20\n        /* \"#utility.yul\":1601:1654   */\n      tag_217\n        /* \"#utility.yul\":1646:1653   */\n      dup6\n        /* \"#utility.yul\":1637:1643   */\n      dup3\n        /* \"#utility.yul\":1626:1635   */\n      dup7\n        /* \"#utility.yul\":1622:1644   */\n      add\n        /* \"#utility.yul\":1601:1654   */\n      tag_135\n      jump\t// in\n    tag_217:\n        /* \"#utility.yul\":1591:1654   */\n      swap2\n      pop\n        /* \"#utility.yul\":1546:1664   */\n      pop\n        /* \"#utility.yul\":1197:1671   */\n      swap3\n      pop\n      swap3\n      swap1\n      pop\n      jump\t// out\n        /* \"#utility.yul\":1677:1795   */\n    tag_136:\n        /* \"#utility.yul\":1764:1788   */\n      tag_219\n        /* \"#utility.yul\":1782:1787   */\n      dup2\n        /* \"#utility.yul\":1764:1788   */\n      tag_133\n      jump\t// in\n    tag_219:\n        /* \"#utility.yul\":1759:1762   */\n      dup3\n        /* \"#utility.yul\":1752:1789   */\n      mstore\n        /* \"#utility.yul\":1677:1795   */\n      pop\n      pop\n      jump\t// out\n        /* \"#utility.yul\":1801:1919   */\n    tag_137:\n        /* \"#utility.yul\":1888:1912   */\n      tag_221\n        /* \"#utility.yul\":1906:1911   */\n      dup2\n        /* \"#utility.yul\":1888:1912   */\n      tag_130\n      jump\t// in\n    tag_221:\n        /* \"#utility.yul\":1883:1886   */\n      dup3\n        /* \"#utility.yul\":1876:1913   */\n      mstore\n        /* \"#utility.yul\":1801:1919   */\n      pop\n      pop\n      jump\t// out\n        /* \"#utility.yul\":1925:2024   */\n    tag_138:\n        /* \"#utility.yul\":1977:1983   */\n      0x00\n        /* \"#utility.yul\":2011:2016   */\n      dup2\n        /* \"#utility.yul\":2005:2017   */\n      mload\n        /* \"#utility.yul\":1995:2017   */\n      swap1\n      pop\n        /* \"#utility.yul\":1925:2024   */\n      swap2\n      swap1\n      pop\n      jump\t// out\n        /* \"#utility.yul\":2030:2199   */\n    tag_139:\n        /* \"#utility.yul\":2114:2125   */\n      0x00\n        /* \"#utility.yul\":2148:2154   */\n      dup3\n        /* \"#utility.yul\":2143:2146   */\n      dup3\n        /* \"#utility.yul\":2136:2155   */\n      mstore\n        /* \"#utility.yul\":2188:2192   */\n      0x20\n        /* \"#utility.yul\":2183:2186   */\n      dup3\n        /* \"#utility.yul\":2179:2193   */\n      add\n        /* \"#utility.yul\":2164:2193   */\n      swap1\n      pop\n        /* \"#utility.yul\":2030:2199   */\n      swap3\n      swap2\n      pop\n      pop\n      jump\t// out\n        /* \"#utility.yul\":2205:2344   */\n    tag_140:\n        /* \"#utility.yul\":2294:2300   */\n      dup3\n        /* \"#utility.yul\":2289:2292   */\n      dup2\n        /* \"#utility.yul\":2284:2287   */\n      dup4\n        /* \"#utility.yul\":2278:2301   */\n      mcopy\n        /* \"#utility.yul\":2335:2336   */\n      0x00\n        /* \"#utility.yul\":2326:2332   */\n      dup4\n        /* \"#utility.yul\":2321:2324   */\n      dup4\n        /* \"#utility.yul\":2317:2333   */\n      add\n        /* \"#utility.yul\":2310:2337   */\n      mstore\n        /* \"#utility.yul\":2205:2344   */\n      pop\n      pop\n      pop\n      jump\t// out\n        /* \"#utility.yul\":2350:2452   */\n    tag_141:\n        /* \"#utility.yul\":2391:2397   */\n      0x00\n        /* \"#utility.yul\":2442:2444   */\n      0x1f\n        /* \"#utility.yul\":2438:2445   */\n      not\n        /* \"#utility.yul\":2433:2435   */\n      0x1f\n        /* \"#utility.yul\":2426:2431   */\n      dup4\n        /* \"#utility.yul\":2422:2436   */\n      add\n        /* \"#utility.yul\":2418:2446   */\n      and\n        /* \"#utility.yul\":2408:2446   */\n      swap1\n      pop\n        /* \"#utility.yul\":2350:2452   */\n      swap2\n      swap1\n      pop\n      jump\t// out\n        /* \"#utility.yul\":2458:2835   */\n    tag_142:\n        /* \"#utility.yul\":2546:2549   */\n      0x00\n        /* \"#utility.yul\":2574:2613   */\n      tag_227\n        /* \"#utility.yul\":2607:2612   */\n      dup3\n        /* \"#utility.yul\":2574:2613   */\n      tag_138\n      jump\t// in\n    tag_227:\n        /* \"#utility.yul\":2629:2700   */\n      tag_228\n        /* \"#utility.yul\":2693:2699   */\n      dup2\n        /* \"#utility.yul\":2688:2691   */\n      dup6\n        /* \"#utility.yul\":2629:2700   */\n      tag_139\n      jump\t// in\n    tag_228:\n        /* \"#utility.yul\":2622:2700   */\n      swap4\n      pop\n        /* \"#utility.yul\":2709:2774   */\n      tag_229\n        /* \"#utility.yul\":2767:2773   */\n      dup2\n        /* \"#utility.yul\":2762:2765   */\n      dup6\n        /* \"#utility.yul\":2755:2759   */\n      0x20\n        /* \"#utility.yul\":2748:2753   */\n      dup7\n        /* \"#utility.yul\":2744:2760   */\n      add\n        /* \"#utility.yul\":2709:2774   */\n      tag_140\n      jump\t// in\n    tag_229:\n        /* \"#utility.yul\":2799:2828   */\n      tag_230\n        /* \"#utility.yul\":2821:2827   */\n      dup2\n        /* \"#utility.yul\":2799:2828   */\n      tag_141\n      jump\t// in\n    tag_230:\n        /* \"#utility.yul\":2794:2797   */\n      dup5\n        /* \"#utility.yul\":2790:2829   */\n      add\n        /* \"#utility.yul\":2783:2829   */\n      swap2\n      pop\n        /* \"#utility.yul\":2550:2835   */\n      pop\n        /* \"#utility.yul\":2458:2835   */\n      swap3\n      swap2\n      pop\n      pop\n      jump\t// out\n        /* \"#utility.yul\":2841:3596   */\n    tag_18:\n        /* \"#utility.yul\":3066:3070   */\n      0x00\n        /* \"#utility.yul\":3104:3107   */\n      0xa0\n        /* \"#utility.yul\":3093:3102   */\n      dup3\n        /* \"#utility.yul\":3089:3108   */\n      add\n        /* \"#utility.yul\":3081:3108   */\n      swap1\n      pop\n        /* \"#utility.yul\":3118:3189   */\n      tag_232\n        /* \"#utility.yul\":3186:3187   */\n      0x00\n        /* \"#utility.yul\":3175:3184   */\n      dup4\n        /* \"#utility.yul\":3171:3188   */\n      add\n        /* \"#utility.yul\":3162:3168   */\n      dup9\n        /* \"#utility.yul\":3118:3189   */\n      tag_136\n      jump\t// in\n    tag_232:\n        /* \"#utility.yul\":3199:3271   */\n      tag_233\n        /* \"#utility.yul\":3267:3269   */\n      0x20\n        /* \"#utility.yul\":3256:3265   */\n      dup4\n        /* \"#utility.yul\":3252:3270   */\n      add\n        /* \"#utility.yul\":3243:3249   */\n      dup8\n        /* \"#utility.yul\":3199:3271   */\n      tag_137\n      jump\t// in\n    tag_233:\n        /* \"#utility.yul\":3318:3327   */\n      dup2\n        /* \"#utility.yul\":3312:3316   */\n      dup2\n        /* \"#utility.yul\":3308:3328   */\n      sub\n        /* \"#utility.yul\":3303:3305   */\n      0x40\n        /* \"#utility.yul\":3292:3301   */\n      dup4\n        /* \"#utility.yul\":3288:3306   */\n      add\n        /* \"#utility.yul\":3281:3329   */\n      mstore\n        /* \"#utility.yul\":3346:3424   */\n      tag_234\n        /* \"#utility.yul\":3419:3423   */\n      dup2\n        /* \"#utility.yul\":3410:3416   */\n      dup7\n        /* \"#utility.yul\":3346:3424   */\n      tag_142\n      jump\t// in\n    tag_234:\n        /* \"#utility.yul\":3338:3424   */\n      swap1\n      pop\n        /* \"#utility.yul\":3434:3506   */\n      tag_235\n        /* \"#utility.yul\":3502:3504   */\n      0x60\n        /* \"#utility.yul\":3491:3500   */\n      dup4\n        /* \"#utility.yul\":3487:3505   */\n      add\n        /* \"#utility.yul\":3478:3484   */\n      dup6\n        /* \"#utility.yul\":3434:3506   */\n      tag_136\n      jump\t// in\n    tag_235:\n        /* \"#utility.yul\":3516:3589   */\n      tag_236\n        /* \"#utility.yul\":3584:3587   */\n      0x80\n        /* \"#utility.yul\":3573:3582   */\n      dup4\n        /* \"#utility.yul\":3569:3588   */\n      add\n        /* \"#utility.yul\":3560:3566   */\n      dup5\n        /* \"#utility.yul\":3516:3589   */\n      tag_136\n      jump\t// in\n    tag_236:\n        /* \"#utility.yul\":2841:3596   */\n      swap7\n      swap6\n      pop\n      pop\n      pop\n      pop\n      pop\n      pop\n      jump\t// out\n        /* \"#utility.yul\":3602:3710   */\n    tag_143:\n        /* \"#utility.yul\":3679:3703   */\n      tag_238\n        /* \"#utility.yul\":3697:3702   */\n      dup2\n        /* \"#utility.yul\":3679:3703   */\n      tag_133\n      jump\t// in\n    tag_238:\n        /* \"#utility.yul\":3674:3677   */\n      dup3\n        /* \"#utility.yul\":3667:3704   */\n      mstore\n        /* \"#utility.yul\":3602:3710   */\n      pop\n      pop\n      jump\t// out\n        /* \"#utility.yul\":3716:3824   */\n    tag_144:\n        /* \"#utility.yul\":3793:3817   */\n      tag_240\n        /* \"#utility.yul\":3811:3816   */\n      dup2\n        /* \"#utility.yul\":3793:3817   */\n      tag_130\n      jump\t// in\n    tag_240:\n        /* \"#utility.yul\":3788:3791   */\n      dup3\n        /* \"#utility.yul\":3781:3818   */\n      mstore\n        /* \"#utility.yul\":3716:3824   */\n      pop\n      pop\n      jump\t// out\n        /* \"#utility.yul\":3830:3989   */\n    tag_145:\n        /* \"#utility.yul\":3904:3915   */\n      0x00\n        /* \"#utility.yul\":3938:3944   */\n      dup3\n        /* \"#utility.yul\":3933:3936   */\n      dup3\n        /* \"#utility.yul\":3926:3945   */\n      mstore\n        /* \"#utility.yul\":3978:3982   */\n      0x20\n        /* \"#utility.yul\":3973:3976   */\n      dup3\n        /* \"#utility.yul\":3969:3983   */\n      add\n        /* \"#utility.yul\":3954:3983   */\n      swap1\n      pop\n        /* \"#utility.yul\":3830:3989   */\n      swap3\n      swap2\n      pop\n      pop\n      jump\t// out\n        /* \"#utility.yul\":3995:4352   */\n    tag_146:\n        /* \"#utility.yul\":4073:4076   */\n      0x00\n        /* \"#utility.yul\":4101:4140   */\n      tag_243\n        /* \"#utility.yul\":4134:4139   */\n      dup3\n        /* \"#utility.yul\":4101:4140   */\n      tag_138\n      jump\t// in\n    tag_243:\n        /* \"#utility.yul\":4156:4217   */\n      tag_244\n        /* \"#utility.yul\":4210:4216   */\n      dup2\n        /* \"#utility.yul\":4205:4208   */\n      dup6\n        /* \"#utility.yul\":4156:4217   */\n      tag_145\n      jump\t// in\n    tag_244:\n        /* \"#utility.yul\":4149:4217   */\n      swap4\n      pop\n        /* \"#utility.yul\":4226:4291   */\n      tag_245\n        /* \"#utility.yul\":4284:4290   */\n      dup2\n        /* \"#utility.yul\":4279:4282   */\n      dup6\n        /* \"#utility.yul\":4272:4276   */\n      0x20\n        /* \"#utility.yul\":4265:4270   */\n      dup7\n        /* \"#utility.yul\":4261:4277   */\n      add\n        /* \"#utility.yul\":4226:4291   */\n      tag_140\n      jump\t// in\n    tag_245:\n        /* \"#utility.yul\":4316:4345   */\n      tag_246\n        /* \"#utility.yul\":4338:4344   */\n      dup2\n        /* \"#utility.yul\":4316:4345   */\n      tag_141\n      jump\t// in\n    tag_246:\n        /* \"#utility.yul\":4311:4314   */\n      dup5\n        /* \"#utility.yul\":4307:4346   */\n      add\n        /* \"#utility.yul\":4300:4346   */\n      swap2\n      pop\n        /* \"#utility.yul\":4077:4352   */\n      pop\n        /* \"#utility.yul\":3995:4352   */\n      swap3\n      swap2\n      pop\n      pop\n      jump\t// out\n        /* \"#utility.yul\":4410:5539   */\n    tag_147:\n        /* \"#utility.yul\":4521:4524   */\n      0x00\n        /* \"#utility.yul\":4557:4561   */\n      0xa0\n        /* \"#utility.yul\":4552:4555   */\n      dup4\n        /* \"#utility.yul\":4548:4562   */\n      add\n        /* \"#utility.yul\":4642:4646   */\n      0x00\n        /* \"#utility.yul\":4635:4640   */\n      dup4\n        /* \"#utility.yul\":4631:4647   */\n      add\n        /* \"#utility.yul\":4625:4648   */\n      mload\n        /* \"#utility.yul\":4661:4724   */\n      tag_248\n        /* \"#utility.yul\":4718:4722   */\n      0x00\n        /* \"#utility.yul\":4713:4716   */\n      dup7\n        /* \"#utility.yul\":4709:4723   */\n      add\n        /* \"#utility.yul\":4695:4707   */\n      dup3\n        /* \"#utility.yul\":4661:4724   */\n      tag_143\n      jump\t// in\n    tag_248:\n        /* \"#utility.yul\":4572:4734   */\n      pop\n        /* \"#utility.yul\":4818:4822   */\n      0x20\n        /* \"#utility.yul\":4811:4816   */\n      dup4\n        /* \"#utility.yul\":4807:4823   */\n      add\n        /* \"#utility.yul\":4801:4824   */\n      mload\n        /* \"#utility.yul\":4837:4900   */\n      tag_249\n        /* \"#utility.yul\":4894:4898   */\n      0x20\n        /* \"#utility.yul\":4889:4892   */\n      dup7\n        /* \"#utility.yul\":4885:4899   */\n      add\n        /* \"#utility.yul\":4871:4883   */\n      dup3\n        /* \"#utility.yul\":4837:4900   */\n      tag_144\n      jump\t// in\n    tag_249:\n        /* \"#utility.yul\":4744:4910   */\n      pop\n        /* \"#utility.yul\":4995:4999   */\n      0x40\n        /* \"#utility.yul\":4988:4993   */\n      dup4\n        /* \"#utility.yul\":4984:5000   */\n      add\n        /* \"#utility.yul\":4978:5001   */\n      mload\n        /* \"#utility.yul\":5048:5051   */\n      dup5\n        /* \"#utility.yul\":5042:5046   */\n      dup3\n        /* \"#utility.yul\":5038:5052   */\n      sub\n        /* \"#utility.yul\":5031:5035   */\n      0x40\n        /* \"#utility.yul\":5026:5029   */\n      dup7\n        /* \"#utility.yul\":5022:5036   */\n      add\n        /* \"#utility.yul\":5015:5053   */\n      mstore\n        /* \"#utility.yul\":5074:5147   */\n      tag_250\n        /* \"#utility.yul\":5142:5146   */\n      dup3\n        /* \"#utility.yul\":5128:5140   */\n      dup3\n        /* \"#utility.yul\":5074:5147   */\n      tag_146\n      jump\t// in\n    tag_250:\n        /* \"#utility.yul\":5066:5147   */\n      swap2\n      pop\n        /* \"#utility.yul\":4920:5158   */\n      pop\n        /* \"#utility.yul\":5245:5249   */\n      0x60\n        /* \"#utility.yul\":5238:5243   */\n      dup4\n        /* \"#utility.yul\":5234:5250   */\n      add\n        /* \"#utility.yul\":5228:5251   */\n      mload\n        /* \"#utility.yul\":5264:5327   */\n      tag_251\n        /* \"#utility.yul\":5321:5325   */\n      0x60\n        /* \"#utility.yul\":5316:5319   */\n      dup7\n        /* \"#utility.yul\":5312:5326   */\n      add\n        /* \"#utility.yul\":5298:5310   */\n      dup3\n        /* \"#utility.yul\":5264:5327   */\n      tag_143\n      jump\t// in\n    tag_251:\n        /* \"#utility.yul\":5168:5337   */\n      pop\n        /* \"#utility.yul\":5420:5424   */\n      0x80\n        /* \"#utility.yul\":5413:5418   */\n      dup4\n        /* \"#utility.yul\":5409:5425   */\n      add\n        /* \"#utility.yul\":5403:5426   */\n      mload\n        /* \"#utility.yul\":5439:5502   */\n      tag_252\n        /* \"#utility.yul\":5496:5500   */\n      0x80\n        /* \"#utility.yul\":5491:5494   */\n      dup7\n        /* \"#utility.yul\":5487:5501   */\n      add\n        /* \"#utility.yul\":5473:5485   */\n      dup3\n        /* \"#utility.yul\":5439:5502   */\n      tag_143\n      jump\t// in\n    tag_252:\n        /* \"#utility.yul\":5347:5512   */\n      pop\n        /* \"#utility.yul\":5529:5533   */\n      dup1\n        /* \"#utility.yul\":5522:5533   */\n      swap2\n      pop\n        /* \"#utility.yul\":4526:5539   */\n      pop\n        /* \"#utility.yul\":4410:5539   */\n      swap3\n      swap2\n      pop\n      pop\n      jump\t// out\n        /* \"#utility.yul\":5545:5902   */\n    tag_23:\n        /* \"#utility.yul\":5680:5684   */\n      0x00\n        /* \"#utility.yul\":5718:5720   */\n      0x20\n        /* \"#utility.yul\":5707:5716   */\n      dup3\n        /* \"#utility.yul\":5703:5721   */\n      add\n        /* \"#utility.yul\":5695:5721   */\n      swap1\n      pop\n        /* \"#utility.yul\":5767:5776   */\n      dup2\n        /* \"#utility.yul\":5761:5765   */\n      dup2\n        /* \"#utility.yul\":5757:5777   */\n      sub\n        /* \"#utility.yul\":5753:5754   */\n      0x00\n        /* \"#utility.yul\":5742:5751   */\n      dup4\n        /* \"#utility.yul\":5738:5755   */\n      add\n        /* \"#utility.yul\":5731:5778   */\n      mstore\n        /* \"#utility.yul\":5795:5895   */\n      tag_254\n        /* \"#utility.yul\":5890:5894   */\n      dup2\n        /* \"#utility.yul\":5881:5887   */\n      dup5\n        /* \"#utility.yul\":5795:5895   */\n      tag_147\n      jump\t// in\n    tag_254:\n        /* \"#utility.yul\":5787:5895   */\n      swap1\n      pop\n        /* \"#utility.yul\":5545:5902   */\n      swap3\n      swap2\n      pop\n      pop\n      jump\t// out\n        /* \"#utility.yul\":5908:6237   */\n    tag_26:\n        /* \"#utility.yul\":5967:5973   */\n      0x00\n        /* \"#utility.yul\":6016:6018   */\n      0x20\n        /* \"#utility.yul\":6004:6013   */\n      dup3\n        /* \"#utility.yul\":5995:6002   */\n      dup5\n        /* \"#utility.yul\":5991:6014   */\n      sub\n        /* \"#utility.yul\":5987:6019   */\n      slt\n        /* \"#utility.yul\":5984:6103   */\n      iszero\n      tag_256\n      jumpi\n        /* \"#utility.yul\":6022:6101   */\n      tag_257\n      tag_127\n      jump\t// in\n    tag_257:\n        /* \"#utility.yul\":5984:6103   */\n    tag_256:\n        /* \"#utility.yul\":6142:6143   */\n      0x00\n        /* \"#utility.yul\":6167:6220   */\n      tag_258\n        /* \"#utility.yul\":6212:6219   */\n      dup5\n        /* \"#utility.yul\":6203:6209   */\n      dup3\n        /* \"#utility.yul\":6192:6201   */\n      dup6\n        /* \"#utility.yul\":6188:6210   */\n      add\n        /* \"#utility.yul\":6167:6220   */\n      tag_132\n      jump\t// in\n    tag_258:\n        /* \"#utility.yul\":6157:6220   */\n      swap2\n      pop\n        /* \"#utility.yul\":6113:6230   */\n      pop\n        /* \"#utility.yul\":5908:6237   */\n      swap3\n      swap2\n      pop\n      pop\n      jump\t// out\n        /* \"#utility.yul\":6243:6378   */\n    tag_148:\n        /* \"#utility.yul\":6331:6337   */\n      0x00\n        /* \"#utility.yul\":6365:6370   */\n      dup2\n        /* \"#utility.yul\":6359:6371   */\n      mload\n        /* \"#utility.yul\":6349:6371   */\n      swap1\n      pop\n        /* \"#utility.yul\":6243:6378   */\n      swap2\n      swap1\n      pop\n      jump\t// out\n        /* \"#utility.yul\":6384:6589   */\n    tag_149:\n        /* \"#utility.yul\":6504:6515   */\n      0x00\n        /* \"#utility.yul\":6538:6544   */\n      dup3\n        /* \"#utility.yul\":6533:6536   */\n      dup3\n        /* \"#utility.yul\":6526:6545   */\n      mstore\n        /* \"#utility.yul\":6578:6582   */\n      0x20\n        /* \"#utility.yul\":6573:6576   */\n      dup3\n        /* \"#utility.yul\":6569:6583   */\n      add\n        /* \"#utility.yul\":6554:6583   */\n      swap1\n      pop\n        /* \"#utility.yul\":6384:6589   */\n      swap3\n      swap2\n      pop\n      pop\n      jump\t// out\n        /* \"#utility.yul\":6595:6748   */\n    tag_150:\n        /* \"#utility.yul\":6683:6687   */\n      0x00\n        /* \"#utility.yul\":6706:6709   */\n      dup2\n        /* \"#utility.yul\":6698:6709   */\n      swap1\n      pop\n        /* \"#utility.yul\":6736:6740   */\n      0x20\n        /* \"#utility.yul\":6731:6734   */\n      dup3\n        /* \"#utility.yul\":6727:6741   */\n      add\n        /* \"#utility.yul\":6719:6741   */\n      swap1\n      pop\n        /* \"#utility.yul\":6595:6748   */\n      swap2\n      swap1\n      pop\n      jump\t// out\n        /* \"#utility.yul\":6806:7925   */\n    tag_151:\n        /* \"#utility.yul\":6907:6910   */\n      0x00\n        /* \"#utility.yul\":6943:6947   */\n      0xa0\n        /* \"#utility.yul\":6938:6941   */\n      dup4\n        /* \"#utility.yul\":6934:6948   */\n      add\n        /* \"#utility.yul\":7028:7032   */\n      0x00\n        /* \"#utility.yul\":7021:7026   */\n      dup4\n        /* \"#utility.yul\":7017:7033   */\n      add\n        /* \"#utility.yul\":7011:7034   */\n      mload\n        /* \"#utility.yul\":7047:7110   */\n      tag_263\n        /* \"#utility.yul\":7104:7108   */\n      0x00\n        /* \"#utility.yul\":7099:7102   */\n      dup7\n        /* \"#utility.yul\":7095:7109   */\n      add\n        /* \"#utility.yul\":7081:7093   */\n      dup3\n        /* \"#utility.yul\":7047:7110   */\n      tag_143\n      jump\t// in\n    tag_263:\n        /* \"#utility.yul\":6958:7120   */\n      pop\n        /* \"#utility.yul\":7204:7208   */\n      0x20\n        /* \"#utility.yul\":7197:7202   */\n      dup4\n        /* \"#utility.yul\":7193:7209   */\n      add\n        /* \"#utility.yul\":7187:7210   */\n      mload\n        /* \"#utility.yul\":7223:7286   */\n      tag_264\n        /* \"#utility.yul\":7280:7284   */\n      0x20\n        /* \"#utility.yul\":7275:7278   */\n      dup7\n        /* \"#utility.yul\":7271:7285   */\n      add\n        /* \"#utility.yul\":7257:7269   */\n      dup3\n        /* \"#utility.yul\":7223:7286   */\n      tag_144\n      jump\t// in\n    tag_264:\n        /* \"#utility.yul\":7130:7296   */\n      pop\n        /* \"#utility.yul\":7381:7385   */\n      0x40\n        /* \"#utility.yul\":7374:7379   */\n      dup4\n        /* \"#utility.yul\":7370:7386   */\n      add\n        /* \"#utility.yul\":7364:7387   */\n      mload\n        /* \"#utility.yul\":7434:7437   */\n      dup5\n        /* \"#utility.yul\":7428:7432   */\n      dup3\n        /* \"#utility.yul\":7424:7438   */\n      sub\n        /* \"#utility.yul\":7417:7421   */\n      0x40\n        /* \"#utility.yul\":7412:7415   */\n      dup7\n        /* \"#utility.yul\":7408:7422   */\n      add\n        /* \"#utility.yul\":7401:7439   */\n      mstore\n        /* \"#utility.yul\":7460:7533   */\n      tag_265\n        /* \"#utility.yul\":7528:7532   */\n      dup3\n        /* \"#utility.yul\":7514:7526   */\n      dup3\n        /* \"#utility.yul\":7460:7533   */\n      tag_146\n      jump\t// in\n    tag_265:\n        /* \"#utility.yul\":7452:7533   */\n      swap2\n      pop\n        /* \"#utility.yul\":7306:7544   */\n      pop\n        /* \"#utility.yul\":7631:7635   */\n      0x60\n        /* \"#utility.yul\":7624:7629   */\n      dup4\n        /* \"#utility.yul\":7620:7636   */\n      add\n        /* \"#utility.yul\":7614:7637   */\n      mload\n        /* \"#utility.yul\":7650:7713   */\n      tag_266\n        /* \"#utility.yul\":7707:7711   */\n      0x60\n        /* \"#utility.yul\":7702:7705   */\n      dup7\n        /* \"#utility.yul\":7698:7712   */\n      add\n        /* \"#utility.yul\":7684:7696   */\n      dup3\n        /* \"#utility.yul\":7650:7713   */\n      tag_143\n      jump\t// in\n    tag_266:\n        /* \"#utility.yul\":7554:7723   */\n      pop\n        /* \"#utility.yul\":7806:7810   */\n      0x80\n        /* \"#utility.yul\":7799:7804   */\n      dup4\n        /* \"#utility.yul\":7795:7811   */\n      add\n        /* \"#utility.yul\":7789:7812   */\n      mload\n        /* \"#utility.yul\":7825:7888   */\n      tag_267\n        /* \"#utility.yul\":7882:7886   */\n      0x80\n        /* \"#utility.yul\":7877:7880   */\n      dup7\n        /* \"#utility.yul\":7873:7887   */\n      add\n        /* \"#utility.yul\":7859:7871   */\n      dup3\n        /* \"#utility.yul\":7825:7888   */\n      tag_143\n      jump\t// in\n    tag_267:\n        /* \"#utility.yul\":7733:7898   */\n      pop\n        /* \"#utility.yul\":7915:7919   */\n      dup1\n        /* \"#utility.yul\":7908:7919   */\n      swap2\n      pop\n        /* \"#utility.yul\":6912:7925   */\n      pop\n        /* \"#utility.yul\":6806:7925   */\n      swap3\n      swap2\n      pop\n      pop\n      jump\t// out\n        /* \"#utility.yul\":7931:8171   */\n    tag_152:\n        /* \"#utility.yul\":8042:8052   */\n      0x00\n        /* \"#utility.yul\":8077:8165   */\n      tag_269\n        /* \"#utility.yul\":8161:8164   */\n      dup4\n        /* \"#utility.yul\":8153:8159   */\n      dup4\n        /* \"#utility.yul\":8077:8165   */\n      tag_151\n      jump\t// in\n    tag_269:\n        /* \"#utility.yul\":8063:8165   */\n      swap1\n      pop\n        /* \"#utility.yul\":7931:8171   */\n      swap3\n      swap2\n      pop\n      pop\n      jump\t// out\n        /* \"#utility.yul\":8177:8311   */\n    tag_153:\n        /* \"#utility.yul\":8268:8272   */\n      0x00\n        /* \"#utility.yul\":8300:8304   */\n      0x20\n        /* \"#utility.yul\":8295:8298   */\n      dup3\n        /* \"#utility.yul\":8291:8305   */\n      add\n        /* \"#utility.yul\":8283:8305   */\n      swap1\n      pop\n        /* \"#utility.yul\":8177:8311   */\n      swap2\n      swap1\n      pop\n      jump\t// out\n        /* \"#utility.yul\":8373:9452   */\n    tag_154:\n        /* \"#utility.yul\":8534:8537   */\n      0x00\n        /* \"#utility.yul\":8563:8638   */\n      tag_272\n        /* \"#utility.yul\":8632:8637   */\n      dup3\n        /* \"#utility.yul\":8563:8638   */\n      tag_148\n      jump\t// in\n    tag_272:\n        /* \"#utility.yul\":8654:8761   */\n      tag_273\n        /* \"#utility.yul\":8754:8760   */\n      dup2\n        /* \"#utility.yul\":8749:8752   */\n      dup6\n        /* \"#utility.yul\":8654:8761   */\n      tag_149\n      jump\t// in\n    tag_273:\n        /* \"#utility.yul\":8647:8761   */\n      swap4\n      pop\n        /* \"#utility.yul\":8787:8790   */\n      dup4\n        /* \"#utility.yul\":8832:8836   */\n      0x20\n        /* \"#utility.yul\":8824:8830   */\n      dup3\n        /* \"#utility.yul\":8820:8837   */\n      mul\n        /* \"#utility.yul\":8815:8818   */\n      dup6\n        /* \"#utility.yul\":8811:8838   */\n      add\n        /* \"#utility.yul\":8862:8939   */\n      tag_274\n        /* \"#utility.yul\":8933:8938   */\n      dup6\n        /* \"#utility.yul\":8862:8939   */\n      tag_150\n      jump\t// in\n    tag_274:\n        /* \"#utility.yul\":8962:8969   */\n      dup1\n        /* \"#utility.yul\":8993:8994   */\n      0x00\n        /* \"#utility.yul\":8978:9407   */\n    tag_275:\n        /* \"#utility.yul\":9003:9009   */\n      dup6\n        /* \"#utility.yul\":9000:9001   */\n      dup2\n        /* \"#utility.yul\":8997:9010   */\n      lt\n        /* \"#utility.yul\":8978:9407   */\n      iszero\n      tag_277\n      jumpi\n        /* \"#utility.yul\":9074:9083   */\n      dup5\n        /* \"#utility.yul\":9068:9072   */\n      dup5\n        /* \"#utility.yul\":9064:9084   */\n      sub\n        /* \"#utility.yul\":9059:9062   */\n      dup10\n        /* \"#utility.yul\":9052:9085   */\n      mstore\n        /* \"#utility.yul\":9125:9131   */\n      dup2\n        /* \"#utility.yul\":9119:9132   */\n      mload\n        /* \"#utility.yul\":9153:9259   */\n      tag_278\n        /* \"#utility.yul\":9254:9258   */\n      dup6\n        /* \"#utility.yul\":9239:9252   */\n      dup3\n        /* \"#utility.yul\":9153:9259   */\n      tag_152\n      jump\t// in\n    tag_278:\n        /* \"#utility.yul\":9145:9259   */\n      swap5\n      pop\n        /* \"#utility.yul\":9282:9363   */\n      tag_279\n        /* \"#utility.yul\":9356:9362   */\n      dup4\n        /* \"#utility.yul\":9282:9363   */\n      tag_153\n      jump\t// in\n    tag_279:\n        /* \"#utility.yul\":9272:9363   */\n      swap3\n      pop\n        /* \"#utility.yul\":9392:9396   */\n      0x20\n        /* \"#utility.yul\":9387:9390   */\n      dup11\n        /* \"#utility.yul\":9383:9397   */\n      add\n        /* \"#utility.yul\":9376:9397   */\n      swap10\n      pop\n        /* \"#utility.yul\":9038:9407   */\n      pop\n        /* \"#utility.yul\":9025:9026   */\n      0x01\n        /* \"#utility.yul\":9022:9023   */\n      dup2\n        /* \"#utility.yul\":9018:9027   */\n      add\n        /* \"#utility.yul\":9013:9027   */\n      swap1\n      pop\n        /* \"#utility.yul\":8978:9407   */\n      jump(tag_275)\n    tag_277:\n        /* \"#utility.yul\":8982:8996   */\n      pop\n        /* \"#utility.yul\":9423:9427   */\n      dup3\n        /* \"#utility.yul\":9416:9427   */\n      swap8\n      pop\n        /* \"#utility.yul\":9443:9446   */\n      dup8\n        /* \"#utility.yul\":9436:9446   */\n      swap6\n      pop\n        /* \"#utility.yul\":8539:9452   */\n      pop\n      pop\n      pop\n      pop\n      pop\n        /* \"#utility.yul\":8373:9452   */\n      swap3\n      swap2\n      pop\n      pop\n      jump\t// out\n        /* \"#utility.yul\":9458:9915   */\n    tag_29:\n        /* \"#utility.yul\":9643:9647   */\n      0x00\n        /* \"#utility.yul\":9681:9683   */\n      0x20\n        /* \"#utility.yul\":9670:9679   */\n      dup3\n        /* \"#utility.yul\":9666:9684   */\n      add\n        /* \"#utility.yul\":9658:9684   */\n      swap1\n      pop\n        /* \"#utility.yul\":9730:9739   */\n      dup2\n        /* \"#utility.yul\":9724:9728   */\n      dup2\n        /* \"#utility.yul\":9720:9740   */\n      sub\n        /* \"#utility.yul\":9716:9717   */\n      0x00\n        /* \"#utility.yul\":9705:9714   */\n      dup4\n        /* \"#utility.yul\":9701:9718   */\n      add\n        /* \"#utility.yul\":9694:9741   */\n      mstore\n        /* \"#utility.yul\":9758:9908   */\n      tag_281\n        /* \"#utility.yul\":9903:9907   */\n      dup2\n        /* \"#utility.yul\":9894:9900   */\n      dup5\n        /* \"#utility.yul\":9758:9908   */\n      tag_154\n      jump\t// in\n    tag_281:\n        /* \"#utility.yul\":9750:9908   */\n      swap1\n      pop\n        /* \"#utility.yul\":9458:9915   */\n      swap3\n      swap2\n      pop\n      pop\n      jump\t// out\n        /* \"#utility.yul\":9921:10010   */\n    tag_155:\n        /* \"#utility.yul\":9957:9964   */\n      0x00\n        /* \"#utility.yul\":9997:10003   */\n      0xffff\n        /* \"#utility.yul\":9990:9995   */\n      dup3\n        /* \"#utility.yul\":9986:10004   */\n      and\n        /* \"#utility.yul\":9975:10004   */\n      swap1\n      pop\n        /* \"#utility.yul\":9921:10010   */\n      swap2\n      swap1\n      pop\n      jump\t// out\n        /* \"#utility.yul\":10016:10136   */\n    tag_156:\n        /* \"#utility.yul\":10088:10111   */\n      tag_284\n        /* \"#utility.yul\":10105:10110   */\n      dup2\n        /* \"#utility.yul\":10088:10111   */\n      tag_155\n      jump\t// in\n    tag_284:\n        /* \"#utility.yul\":10081:10086   */\n      dup2\n        /* \"#utility.yul\":10078:10112   */\n      eq\n        /* \"#utility.yul\":10068:10130   */\n      tag_285\n      jumpi\n        /* \"#utility.yul\":10126:10127   */\n      0x00\n        /* \"#utility.yul\":10123:10124   */\n      dup1\n        /* \"#utility.yul\":10116:10128   */\n      revert\n        /* \"#utility.yul\":10068:10130   */\n    tag_285:\n        /* \"#utility.yul\":10016:10136   */\n      pop\n      jump\t// out\n        /* \"#utility.yul\":10142:10279   */\n    tag_157:\n        /* \"#utility.yul\":10187:10192   */\n      0x00\n        /* \"#utility.yul\":10225:10231   */\n      dup2\n        /* \"#utility.yul\":10212:10232   */\n      calldataload\n        /* \"#utility.yul\":10203:10232   */\n      swap1\n      pop\n        /* \"#utility.yul\":10241:10273   */\n      tag_287\n        /* \"#utility.yul\":10267:10272   */\n      dup2\n        /* \"#utility.yul\":10241:10273   */\n      tag_156\n      jump\t// in\n    tag_287:\n        /* \"#utility.yul\":10142:10279   */\n      swap3\n      swap2\n      pop\n      pop\n      jump\t// out\n        /* \"#utility.yul\":10285:10612   */\n    tag_35:\n        /* \"#utility.yul\":10343:10349   */\n      0x00\n        /* \"#utility.yul\":10392:10394   */\n      0x20\n        /* \"#utility.yul\":10380:10389   */\n      dup3\n        /* \"#utility.yul\":10371:10378   */\n      dup5\n        /* \"#utility.yul\":10367:10390   */\n      sub\n        /* \"#utility.yul\":10363:10395   */\n      slt\n        /* \"#utility.yul\":10360:10479   */\n      iszero\n      tag_289\n      jumpi\n        /* \"#utility.yul\":10398:10477   */\n      tag_290\n      tag_127\n      jump\t// in\n    tag_290:\n        /* \"#utility.yul\":10360:10479   */\n    tag_289:\n        /* \"#utility.yul\":10518:10519   */\n      0x00\n        /* \"#utility.yul\":10543:10595   */\n      tag_291\n        /* \"#utility.yul\":10587:10594   */\n      dup5\n        /* \"#utility.yul\":10578:10584   */\n      dup3\n        /* \"#utility.yul\":10567:10576   */\n      dup6\n        /* \"#utility.yul\":10563:10585   */\n      add\n        /* \"#utility.yul\":10543:10595   */\n      tag_157\n      jump\t// in\n    tag_291:\n        /* \"#utility.yul\":10533:10595   */\n      swap2\n      pop\n        /* \"#utility.yul\":10489:10605   */\n      pop\n        /* \"#utility.yul\":10285:10612   */\n      swap3\n      swap2\n      pop\n      pop\n      jump\t// out\n        /* \"#utility.yul\":10618:10733   */\n    tag_158:\n        /* \"#utility.yul\":10703:10726   */\n      tag_293\n        /* \"#utility.yul\":10720:10725   */\n      dup2\n        /* \"#utility.yul\":10703:10726   */\n      tag_155\n      jump\t// in\n    tag_293:\n        /* \"#utility.yul\":10698:10701   */\n      dup3\n        /* \"#utility.yul\":10691:10727   */\n      mstore\n        /* \"#utility.yul\":10618:10733   */\n      pop\n      pop\n      jump\t// out\n        /* \"#utility.yul\":10739:10957   */\n    tag_40:\n        /* \"#utility.yul\":10830:10834   */\n      0x00\n        /* \"#utility.yul\":10868:10870   */\n      0x20\n        /* \"#utility.yul\":10857:10866   */\n      dup3\n        /* \"#utility.yul\":10853:10871   */\n      add\n        /* \"#utility.yul\":10845:10871   */\n      swap1\n      pop\n        /* \"#utility.yul\":10881:10950   */\n      tag_295\n        /* \"#utility.yul\":10947:10948   */\n      0x00\n        /* \"#utility.yul\":10936:10945   */\n      dup4\n        /* \"#utility.yul\":10932:10949   */\n      add\n        /* \"#utility.yul\":10923:10929   */\n      dup5\n        /* \"#utility.yul\":10881:10950   */\n      tag_158\n      jump\t// in\n    tag_295:\n        /* \"#utility.yul\":10739:10957   */\n      swap3\n      swap2\n      pop\n      pop\n      jump\t// out\n        /* \"#utility.yul\":10963:11080   */\n    tag_159:\n        /* \"#utility.yul\":11072:11073   */\n      0x00\n        /* \"#utility.yul\":11069:11070   */\n      dup1\n        /* \"#utility.yul\":11062:11074   */\n      revert\n        /* \"#utility.yul\":11086:11203   */\n    tag_160:\n        /* \"#utility.yul\":11195:11196   */\n      0x00\n        /* \"#utility.yul\":11192:11193   */\n      dup1\n        /* \"#utility.yul\":11185:11197   */\n      revert\n        /* \"#utility.yul\":11209:11389   */\n    tag_161:\n        /* \"#utility.yul\":11257:11334   */\n      0x4e487b7100000000000000000000000000000000000000000000000000000000\n        /* \"#utility.yul\":11254:11255   */\n      0x00\n        /* \"#utility.yul\":11247:11335   */\n      mstore\n        /* \"#utility.yul\":11354:11358   */\n      0x41\n        /* \"#utility.yul\":11351:11352   */\n      0x04\n        /* \"#utility.yul\":11344:11359   */\n      mstore\n        /* \"#utility.yul\":11378:11382   */\n      0x24\n        /* \"#utility.yul\":11375:11376   */\n      0x00\n        /* \"#utility.yul\":11368:11383   */\n      revert\n        /* \"#utility.yul\":11395:11676   */\n    tag_162:\n        /* \"#utility.yul\":11478:11505   */\n      tag_300\n        /* \"#utility.yul\":11500:11504   */\n      dup3\n        /* \"#utility.yul\":11478:11505   */\n      tag_141\n      jump\t// in\n    tag_300:\n        /* \"#utility.yul\":11470:11476   */\n      dup2\n        /* \"#utility.yul\":11466:11506   */\n      add\n        /* \"#utility.yul\":11608:11614   */\n      dup2\n        /* \"#utility.yul\":11596:11606   */\n      dup2\n        /* \"#utility.yul\":11593:11615   */\n      lt\n        /* \"#utility.yul\":11572:11590   */\n      0xffffffffffffffff\n        /* \"#utility.yul\":11560:11570   */\n      dup3\n        /* \"#utility.yul\":11557:11591   */\n      gt\n        /* \"#utility.yul\":11554:11616   */\n      or\n        /* \"#utility.yul\":11551:11639   */\n      iszero\n      tag_301\n      jumpi\n        /* \"#utility.yul\":11619:11637   */\n      tag_302\n      tag_161\n      jump\t// in\n    tag_302:\n        /* \"#utility.yul\":11551:11639   */\n    tag_301:\n        /* \"#utility.yul\":11659:11669   */\n      dup1\n        /* \"#utility.yul\":11655:11657   */\n      0x40\n        /* \"#utility.yul\":11648:11670   */\n      mstore\n        /* \"#utility.yul\":11438:11676   */\n      pop\n        /* \"#utility.yul\":11395:11676   */\n      pop\n      pop\n      jump\t// out\n        /* \"#utility.yul\":11682:11811   */\n    tag_163:\n        /* \"#utility.yul\":11716:11722   */\n      0x00\n        /* \"#utility.yul\":11743:11763   */\n      tag_304\n      tag_126\n      jump\t// in\n    tag_304:\n        /* \"#utility.yul\":11733:11763   */\n      swap1\n      pop\n        /* \"#utility.yul\":11772:11805   */\n      tag_305\n        /* \"#utility.yul\":11800:11804   */\n      dup3\n        /* \"#utility.yul\":11792:11798   */\n      dup3\n        /* \"#utility.yul\":11772:11805   */\n      tag_162\n      jump\t// in\n    tag_305:\n        /* \"#utility.yul\":11682:11811   */\n      swap2\n      swap1\n      pop\n      jump\t// out\n        /* \"#utility.yul\":11817:12125   */\n    tag_164:\n        /* \"#utility.yul\":11879:11883   */\n      0x00\n        /* \"#utility.yul\":11969:11987   */\n      0xffffffffffffffff\n        /* \"#utility.yul\":11961:11967   */\n      dup3\n        /* \"#utility.yul\":11958:11988   */\n      gt\n        /* \"#utility.yul\":11955:12011   */\n      iszero\n      tag_307\n      jumpi\n        /* \"#utility.yul\":11991:12009   */\n      tag_308\n      tag_161\n      jump\t// in\n    tag_308:\n        /* \"#utility.yul\":11955:12011   */\n    tag_307:\n        /* \"#utility.yul\":12029:12058   */\n      tag_309\n        /* \"#utility.yul\":12051:12057   */\n      dup3\n        /* \"#utility.yul\":12029:12058   */\n      tag_141\n      jump\t// in\n    tag_309:\n        /* \"#utility.yul\":12021:12058   */\n      swap1\n      pop\n        /* \"#utility.yul\":12113:12117   */\n      0x20\n        /* \"#utility.yul\":12107:12111   */\n      dup2\n        /* \"#utility.yul\":12103:12118   */\n      add\n        /* \"#utility.yul\":12095:12118   */\n      swap1\n      pop\n        /* \"#utility.yul\":11817:12125   */\n      swap2\n      swap1\n      pop\n      jump\t// out\n        /* \"#utility.yul\":12131:12279   */\n    tag_165:\n        /* \"#utility.yul\":12229:12235   */\n      dup3\n        /* \"#utility.yul\":12224:12227   */\n      dup2\n        /* \"#utility.yul\":12219:12222   */\n      dup4\n        /* \"#utility.yul\":12206:12236   */\n      calldatacopy\n        /* \"#utility.yul\":12270:12271   */\n      0x00\n        /* \"#utility.yul\":12261:12267   */\n      dup4\n        /* \"#utility.yul\":12256:12259   */\n      dup4\n        /* \"#utility.yul\":12252:12268   */\n      add\n        /* \"#utility.yul\":12245:12272   */\n      mstore\n        /* \"#utility.yul\":12131:12279   */\n      pop\n      pop\n      pop\n      jump\t// out\n        /* \"#utility.yul\":12285:12710   */\n    tag_166:\n        /* \"#utility.yul\":12363:12368   */\n      0x00\n        /* \"#utility.yul\":12388:12454   */\n      tag_312\n        /* \"#utility.yul\":12404:12453   */\n      tag_313\n        /* \"#utility.yul\":12446:12452   */\n      dup5\n        /* \"#utility.yul\":12404:12453   */\n      tag_164\n      jump\t// in\n    tag_313:\n        /* \"#utility.yul\":12388:12454   */\n      tag_163\n      jump\t// in\n    tag_312:\n        /* \"#utility.yul\":12379:12454   */\n      swap1\n      pop\n        /* \"#utility.yul\":12477:12483   */\n      dup3\n        /* \"#utility.yul\":12470:12475   */\n      dup2\n        /* \"#utility.yul\":12463:12484   */\n      mstore\n        /* \"#utility.yul\":12515:12519   */\n      0x20\n        /* \"#utility.yul\":12508:12513   */\n      dup2\n        /* \"#utility.yul\":12504:12520   */\n      add\n        /* \"#utility.yul\":12553:12556   */\n      dup5\n        /* \"#utility.yul\":12544:12550   */\n      dup5\n        /* \"#utility.yul\":12539:12542   */\n      dup5\n        /* \"#utility.yul\":12535:12551   */\n      add\n        /* \"#utility.yul\":12532:12557   */\n      gt\n        /* \"#utility.yul\":12529:12641   */\n      iszero\n      tag_314\n      jumpi\n        /* \"#utility.yul\":12560:12639   */\n      tag_315\n      tag_160\n      jump\t// in\n    tag_315:\n        /* \"#utility.yul\":12529:12641   */\n    tag_314:\n        /* \"#utility.yul\":12650:12704   */\n      tag_316\n        /* \"#utility.yul\":12697:12703   */\n      dup5\n        /* \"#utility.yul\":12692:12695   */\n      dup3\n        /* \"#utility.yul\":12687:12690   */\n      dup6\n        /* \"#utility.yul\":12650:12704   */\n      tag_165\n      jump\t// in\n    tag_316:\n        /* \"#utility.yul\":12369:12710   */\n      pop\n        /* \"#utility.yul\":12285:12710   */\n      swap4\n      swap3\n      pop\n      pop\n      pop\n      jump\t// out\n        /* \"#utility.yul\":12730:13070   */\n    tag_167:\n        /* \"#utility.yul\":12786:12791   */\n      0x00\n        /* \"#utility.yul\":12835:12838   */\n      dup3\n        /* \"#utility.yul\":12828:12832   */\n      0x1f\n        /* \"#utility.yul\":12820:12826   */\n      dup4\n        /* \"#utility.yul\":12816:12833   */\n      add\n        /* \"#utility.yul\":12812:12839   */\n      slt\n        /* \"#utility.yul\":12802:12924   */\n      tag_318\n      jumpi\n        /* \"#utility.yul\":12843:12922   */\n      tag_319\n      tag_159\n      jump\t// in\n    tag_319:\n        /* \"#utility.yul\":12802:12924   */\n    tag_318:\n        /* \"#utility.yul\":12960:12966   */\n      dup2\n        /* \"#utility.yul\":12947:12967   */\n      calldataload\n        /* \"#utility.yul\":12985:13064   */\n      tag_320\n        /* \"#utility.yul\":13060:13063   */\n      dup5\n        /* \"#utility.yul\":13052:13058   */\n      dup3\n        /* \"#utility.yul\":13045:13049   */\n      0x20\n        /* \"#utility.yul\":13037:13043   */\n      dup7\n        /* \"#utility.yul\":13033:13050   */\n      add\n        /* \"#utility.yul\":12985:13064   */\n      tag_166\n      jump\t// in\n    tag_320:\n        /* \"#utility.yul\":12976:13064   */\n      swap2\n      pop\n        /* \"#utility.yul\":12792:13070   */\n      pop\n        /* \"#utility.yul\":12730:13070   */\n      swap3\n      swap2\n      pop\n      pop\n      jump\t// out\n        /* \"#utility.yul\":13076:13585   */\n    tag_43:\n        /* \"#utility.yul\":13145:13151   */\n      0x00\n        /* \"#utility.yul\":13194:13196   */\n      0x20\n        /* \"#utility.yul\":13182:13191   */\n      dup3\n        /* \"#utility.yul\":13173:13180   */\n      dup5\n        /* \"#utility.yul\":13169:13192   */\n      sub\n        /* \"#utility.yul\":13165:13197   */\n      slt\n        /* \"#utility.yul\":13162:13281   */\n      iszero\n      tag_322\n      jumpi\n        /* \"#utility.yul\":13200:13279   */\n      tag_323\n      tag_127\n      jump\t// in\n    tag_323:\n        /* \"#utility.yul\":13162:13281   */\n    tag_322:\n        /* \"#utility.yul\":13348:13349   */\n      0x00\n        /* \"#utility.yul\":13337:13346   */\n      dup3\n        /* \"#utility.yul\":13333:13350   */\n      add\n        /* \"#utility.yul\":13320:13351   */\n      calldataload\n        /* \"#utility.yul\":13378:13396   */\n      0xffffffffffffffff\n        /* \"#utility.yul\":13370:13376   */\n      dup2\n        /* \"#utility.yul\":13367:13397   */\n      gt\n        /* \"#utility.yul\":13364:13481   */\n      iszero\n      tag_324\n      jumpi\n        /* \"#utility.yul\":13400:13479   */\n      tag_325\n      tag_128\n      jump\t// in\n    tag_325:\n        /* \"#utility.yul\":13364:13481   */\n    tag_324:\n        /* \"#utility.yul\":13505:13568   */\n      tag_326\n        /* \"#utility.yul\":13560:13567   */\n      dup5\n        /* \"#utility.yul\":13551:13557   */\n      dup3\n        /* \"#utility.yul\":13540:13549   */\n      dup6\n        /* \"#utility.yul\":13536:13558   */\n      add\n        /* \"#utility.yul\":13505:13568   */\n      tag_167\n      jump\t// in\n    tag_326:\n        /* \"#utility.yul\":13495:13568   */\n      swap2\n      pop\n        /* \"#utility.yul\":13291:13578   */\n      pop\n        /* \"#utility.yul\":13076:13585   */\n      swap3\n      swap2\n      pop\n      pop\n      jump\t// out\n        /* \"#utility.yul\":13591:13813   */\n    tag_48:\n        /* \"#utility.yul\":13684:13688   */\n      0x00\n        /* \"#utility.yul\":13722:13724   */\n      0x20\n        /* \"#utility.yul\":13711:13720   */\n      dup3\n        /* \"#utility.yul\":13707:13725   */\n      add\n        /* \"#utility.yul\":13699:13725   */\n      swap1\n      pop\n        /* \"#utility.yul\":13735:13806   */\n      tag_328\n        /* \"#utility.yul\":13803:13804   */\n      0x00\n        /* \"#utility.yul\":13792:13801   */\n      dup4\n        /* \"#utility.yul\":13788:13805   */\n      add\n        /* \"#utility.yul\":13779:13785   */\n      dup5\n        /* \"#utility.yul\":13735:13806   */\n      tag_137\n      jump\t// in\n    tag_328:\n        /* \"#utility.yul\":13591:13813   */\n      swap3\n      swap2\n      pop\n      pop\n      jump\t// out\n        /* \"#utility.yul\":13819:14293   */\n    tag_51:\n        /* \"#utility.yul\":13887:13893   */\n      0x00\n        /* \"#utility.yul\":13895:13901   */\n      dup1\n        /* \"#utility.yul\":13944:13946   */\n      0x40\n        /* \"#utility.yul\":13932:13941   */\n      dup4\n        /* \"#utility.yul\":13923:13930   */\n      dup6\n        /* \"#utility.yul\":13919:13942   */\n      sub\n        /* \"#utility.yul\":13915:13947   */\n      slt\n        /* \"#utility.yul\":13912:14031   */\n      iszero\n      tag_330\n      jumpi\n        /* \"#utility.yul\":13950:14029   */\n      tag_331\n      tag_127\n      jump\t// in\n    tag_331:\n        /* \"#utility.yul\":13912:14031   */\n    tag_330:\n        /* \"#utility.yul\":14070:14071   */\n      0x00\n        /* \"#utility.yul\":14095:14148   */\n      tag_332\n        /* \"#utility.yul\":14140:14147   */\n      dup6\n        /* \"#utility.yul\":14131:14137   */\n      dup3\n        /* \"#utility.yul\":14120:14129   */\n      dup7\n        /* \"#utility.yul\":14116:14138   */\n      add\n        /* \"#utility.yul\":14095:14148   */\n      tag_135\n      jump\t// in\n    tag_332:\n        /* \"#utility.yul\":14085:14148   */\n      swap3\n      pop\n        /* \"#utility.yul\":14041:14158   */\n      pop\n        /* \"#utility.yul\":14197:14199   */\n      0x20\n        /* \"#utility.yul\":14223:14276   */\n      tag_333\n        /* \"#utility.yul\":14268:14275   */\n      dup6\n        /* \"#utility.yul\":14259:14265   */\n      dup3\n        /* \"#utility.yul\":14248:14257   */\n      dup7\n        /* \"#utility.yul\":14244:14266   */\n      add\n        /* \"#utility.yul\":14223:14276   */\n      tag_132\n      jump\t// in\n    tag_333:\n        /* \"#utility.yul\":14213:14276   */\n      swap2\n      pop\n        /* \"#utility.yul\":14168:14286   */\n      pop\n        /* \"#utility.yul\":13819:14293   */\n      swap3\n      pop\n      swap3\n      swap1\n      pop\n      jump\t// out\n        /* \"#utility.yul\":14299:14479   */\n    tag_168:\n        /* \"#utility.yul\":14347:14424   */\n      0x4e487b7100000000000000000000000000000000000000000000000000000000\n        /* \"#utility.yul\":14344:14345   */\n      0x00\n        /* \"#utility.yul\":14337:14425   */\n      mstore\n        /* \"#utility.yul\":14444:14448   */\n      0x22\n        /* \"#utility.yul\":14441:14442   */\n      0x04\n        /* \"#utility.yul\":14434:14449   */\n      mstore\n        /* \"#utility.yul\":14468:14472   */\n      0x24\n        /* \"#utility.yul\":14465:14466   */\n      0x00\n        /* \"#utility.yul\":14458:14473   */\n      revert\n        /* \"#utility.yul\":14485:14805   */\n    tag_56:\n        /* \"#utility.yul\":14529:14535   */\n      0x00\n        /* \"#utility.yul\":14566:14567   */\n      0x02\n        /* \"#utility.yul\":14560:14564   */\n      dup3\n        /* \"#utility.yul\":14556:14568   */\n      div\n        /* \"#utility.yul\":14546:14568   */\n      swap1\n      pop\n        /* \"#utility.yul\":14613:14614   */\n      0x01\n        /* \"#utility.yul\":14607:14611   */\n      dup3\n        /* \"#utility.yul\":14603:14615   */\n      and\n        /* \"#utility.yul\":14634:14652   */\n      dup1\n        /* \"#utility.yul\":14624:14705   */\n      tag_336\n      jumpi\n        /* \"#utility.yul\":14690:14694   */\n      0x7f\n        /* \"#utility.yul\":14682:14688   */\n      dup3\n        /* \"#utility.yul\":14678:14695   */\n      and\n        /* \"#utility.yul\":14668:14695   */\n      swap2\n      pop\n        /* \"#utility.yul\":14624:14705   */\n    tag_336:\n        /* \"#utility.yul\":14752:14754   */\n      0x20\n        /* \"#utility.yul\":14744:14750   */\n      dup3\n        /* \"#utility.yul\":14741:14755   */\n      lt\n        /* \"#utility.yul\":14721:14739   */\n      dup2\n        /* \"#utility.yul\":14718:14756   */\n      sub\n        /* \"#utility.yul\":14715:14799   */\n      tag_337\n      jumpi\n        /* \"#utility.yul\":14771:14789   */\n      tag_338\n      tag_168\n      jump\t// in\n    tag_338:\n        /* \"#utility.yul\":14715:14799   */\n    tag_337:\n        /* \"#utility.yul\":14536:14805   */\n      pop\n        /* \"#utility.yul\":14485:14805   */\n      swap2\n      swap1\n      pop\n      jump\t// out\n        /* \"#utility.yul\":14811:14991   */\n    tag_66:\n        /* \"#utility.yul\":14859:14936   */\n      0x4e487b7100000000000000000000000000000000000000000000000000000000\n        /* \"#utility.yul\":14856:14857   */\n      0x00\n        /* \"#utility.yul\":14849:14937   */\n      mstore\n        /* \"#utility.yul\":14956:14960   */\n      0x32\n        /* \"#utility.yul\":14953:14954   */\n      0x04\n        /* \"#utility.yul\":14946:14961   */\n      mstore\n        /* \"#utility.yul\":14980:14984   */\n      0x24\n        /* \"#utility.yul\":14977:14978   */\n      0x00\n        /* \"#utility.yul\":14970:14985   */\n      revert\n        /* \"#utility.yul\":14997:15167   */\n    tag_169:\n        /* \"#utility.yul\":15137:15159   */\n      0x747765657420646f6573206e6f74206578697374000000000000000000000000\n        /* \"#utility.yul\":15133:15134   */\n      0x00\n        /* \"#utility.yul\":15125:15131   */\n      dup3\n        /* \"#utility.yul\":15121:15135   */\n      add\n        /* \"#utility.yul\":15114:15160   */\n      mstore\n        /* \"#utility.yul\":14997:15167   */\n      pop\n      jump\t// out\n        /* \"#utility.yul\":15173:15539   */\n    tag_170:\n        /* \"#utility.yul\":15315:15318   */\n      0x00\n        /* \"#utility.yul\":15336:15403   */\n      tag_342\n        /* \"#utility.yul\":15400:15402   */\n      0x14\n        /* \"#utility.yul\":15395:15398   */\n      dup4\n        /* \"#utility.yul\":15336:15403   */\n      tag_139\n      jump\t// in\n    tag_342:\n        /* \"#utility.yul\":15329:15403   */\n      swap2\n      pop\n        /* \"#utility.yul\":15412:15505   */\n      tag_343\n        /* \"#utility.yul\":15501:15504   */\n      dup3\n        /* \"#utility.yul\":15412:15505   */\n      tag_169\n      jump\t// in\n    tag_343:\n        /* \"#utility.yul\":15530:15532   */\n      0x20\n        /* \"#utility.yul\":15525:15528   */\n      dup3\n        /* \"#utility.yul\":15521:15533   */\n      add\n        /* \"#utility.yul\":15514:15533   */\n      swap1\n      pop\n        /* \"#utility.yul\":15173:15539   */\n      swap2\n      swap1\n      pop\n      jump\t// out\n        /* \"#utility.yul\":15545:15964   */\n    tag_88:\n        /* \"#utility.yul\":15711:15715   */\n      0x00\n        /* \"#utility.yul\":15749:15751   */\n      0x20\n        /* \"#utility.yul\":15738:15747   */\n      dup3\n        /* \"#utility.yul\":15734:15752   */\n      add\n        /* \"#utility.yul\":15726:15752   */\n      swap1\n      pop\n        /* \"#utility.yul\":15798:15807   */\n      dup2\n        /* \"#utility.yul\":15792:15796   */\n      dup2\n        /* \"#utility.yul\":15788:15808   */\n      sub\n        /* \"#utility.yul\":15784:15785   */\n      0x00\n        /* \"#utility.yul\":15773:15782   */\n      dup4\n        /* \"#utility.yul\":15769:15786   */\n      add\n        /* \"#utility.yul\":15762:15809   */\n      mstore\n        /* \"#utility.yul\":15826:15957   */\n      tag_345\n        /* \"#utility.yul\":15952:15956   */\n      dup2\n        /* \"#utility.yul\":15826:15957   */\n      tag_170\n      jump\t// in\n    tag_345:\n        /* \"#utility.yul\":15818:15957   */\n      swap1\n      pop\n        /* \"#utility.yul\":15545:15964   */\n      swap2\n      swap1\n      pop\n      jump\t// out\n        /* \"#utility.yul\":15970:16138   */\n    tag_171:\n        /* \"#utility.yul\":16110:16130   */\n      0x547765657420686173206e6f206c696b65730000000000000000000000000000\n        /* \"#utility.yul\":16106:16107   */\n      0x00\n        /* \"#utility.yul\":16098:16104   */\n      dup3\n        /* \"#utility.yul\":16094:16108   */\n      add\n        /* \"#utility.yul\":16087:16131   */\n      mstore\n        /* \"#utility.yul\":15970:16138   */\n      pop\n      jump\t// out\n        /* \"#utility.yul\":16144:16510   */\n    tag_172:\n        /* \"#utility.yul\":16286:16289   */\n      0x00\n        /* \"#utility.yul\":16307:16374   */\n      tag_348\n        /* \"#utility.yul\":16371:16373   */\n      0x12\n        /* \"#utility.yul\":16366:16369   */\n      dup4\n        /* \"#utility.yul\":16307:16374   */\n      tag_139\n      jump\t// in\n    tag_348:\n        /* \"#utility.yul\":16300:16374   */\n      swap2\n      pop\n        /* \"#utility.yul\":16383:16476   */\n      tag_349\n        /* \"#utility.yul\":16472:16475   */\n      dup3\n        /* \"#utility.yul\":16383:16476   */\n      tag_171\n      jump\t// in\n    tag_349:\n        /* \"#utility.yul\":16501:16503   */\n      0x20\n        /* \"#utility.yul\":16496:16499   */\n      dup3\n        /* \"#utility.yul\":16492:16504   */\n      add\n        /* \"#utility.yul\":16485:16504   */\n      swap1\n      pop\n        /* \"#utility.yul\":16144:16510   */\n      swap2\n      swap1\n      pop\n      jump\t// out\n        /* \"#utility.yul\":16516:16935   */\n    tag_94:\n        /* \"#utility.yul\":16682:16686   */\n      0x00\n        /* \"#utility.yul\":16720:16722   */\n      0x20\n        /* \"#utility.yul\":16709:16718   */\n      dup3\n        /* \"#utility.yul\":16705:16723   */\n      add\n        /* \"#utility.yul\":16697:16723   */\n      swap1\n      pop\n        /* \"#utility.yul\":16769:16778   */\n      dup2\n        /* \"#utility.yul\":16763:16767   */\n      dup2\n        /* \"#utility.yul\":16759:16779   */\n      sub\n        /* \"#utility.yul\":16755:16756   */\n      0x00\n        /* \"#utility.yul\":16744:16753   */\n      dup4\n        /* \"#utility.yul\":16740:16757   */\n      add\n        /* \"#utility.yul\":16733:16780   */\n      mstore\n        /* \"#utility.yul\":16797:16928   */\n      tag_351\n        /* \"#utility.yul\":16923:16927   */\n      dup2\n        /* \"#utility.yul\":16797:16928   */\n      tag_172\n      jump\t// in\n    tag_351:\n        /* \"#utility.yul\":16789:16928   */\n      swap1\n      pop\n        /* \"#utility.yul\":16516:16935   */\n      swap2\n      swap1\n      pop\n      jump\t// out\n        /* \"#utility.yul\":16941:17121   */\n    tag_173:\n        /* \"#utility.yul\":16989:17066   */\n      0x4e487b7100000000000000000000000000000000000000000000000000000000\n        /* \"#utility.yul\":16986:16987   */\n      0x00\n        /* \"#utility.yul\":16979:17067   */\n      mstore\n        /* \"#utility.yul\":17086:17090   */\n      0x11\n        /* \"#utility.yul\":17083:17084   */\n      0x04\n        /* \"#utility.yul\":17076:17091   */\n      mstore\n        /* \"#utility.yul\":17110:17114   */\n      0x24\n        /* \"#utility.yul\":17107:17108   */\n      0x00\n        /* \"#utility.yul\":17100:17115   */\n      revert\n        /* \"#utility.yul\":17127:17298   */\n    tag_99:\n        /* \"#utility.yul\":17166:17169   */\n      0x00\n        /* \"#utility.yul\":17189:17213   */\n      tag_354\n        /* \"#utility.yul\":17207:17212   */\n      dup3\n        /* \"#utility.yul\":17189:17213   */\n      tag_133\n      jump\t// in\n    tag_354:\n        /* \"#utility.yul\":17180:17213   */\n      swap2\n      pop\n        /* \"#utility.yul\":17235:17239   */\n      0x00\n        /* \"#utility.yul\":17228:17233   */\n      dup3\n        /* \"#utility.yul\":17225:17240   */\n      sub\n        /* \"#utility.yul\":17222:17263   */\n      tag_355\n      jumpi\n        /* \"#utility.yul\":17243:17261   */\n      tag_356\n      tag_173\n      jump\t// in\n    tag_356:\n        /* \"#utility.yul\":17222:17263   */\n    tag_355:\n        /* \"#utility.yul\":17290:17291   */\n      0x01\n        /* \"#utility.yul\":17283:17288   */\n      dup3\n        /* \"#utility.yul\":17279:17292   */\n      sub\n        /* \"#utility.yul\":17272:17292   */\n      swap1\n      pop\n        /* \"#utility.yul\":17127:17298   */\n      swap2\n      swap1\n      pop\n      jump\t// out\n        /* \"#utility.yul\":17304:17477   */\n    tag_174:\n        /* \"#utility.yul\":17444:17469   */\n      0x596f7520617265206e6f7420746865206f776e65722121000000000000000000\n        /* \"#utility.yul\":17440:17441   */\n      0x00\n        /* \"#utility.yul\":17432:17438   */\n      dup3\n        /* \"#utility.yul\":17428:17442   */\n      add\n        /* \"#utility.yul\":17421:17470   */\n      mstore\n        /* \"#utility.yul\":17304:17477   */\n      pop\n      jump\t// out\n        /* \"#utility.yul\":17483:17849   */\n    tag_175:\n        /* \"#utility.yul\":17625:17628   */\n      0x00\n        /* \"#utility.yul\":17646:17713   */\n      tag_359\n        /* \"#utility.yul\":17710:17712   */\n      0x17\n        /* \"#utility.yul\":17705:17708   */\n      dup4\n        /* \"#utility.yul\":17646:17713   */\n      tag_139\n      jump\t// in\n    tag_359:\n        /* \"#utility.yul\":17639:17713   */\n      swap2\n      pop\n        /* \"#utility.yul\":17722:17815   */\n      tag_360\n        /* \"#utility.yul\":17811:17814   */\n      dup3\n        /* \"#utility.yul\":17722:17815   */\n      tag_174\n      jump\t// in\n    tag_360:\n        /* \"#utility.yul\":17840:17842   */\n      0x20\n        /* \"#utility.yul\":17835:17838   */\n      dup3\n        /* \"#utility.yul\":17831:17843   */\n      add\n        /* \"#utility.yul\":17824:17843   */\n      swap1\n      pop\n        /* \"#utility.yul\":17483:17849   */\n      swap2\n      swap1\n      pop\n      jump\t// out\n        /* \"#utility.yul\":17855:18274   */\n    tag_103:\n        /* \"#utility.yul\":18021:18025   */\n      0x00\n        /* \"#utility.yul\":18059:18061   */\n      0x20\n        /* \"#utility.yul\":18048:18057   */\n      dup3\n        /* \"#utility.yul\":18044:18062   */\n      add\n        /* \"#utility.yul\":18036:18062   */\n      swap1\n      pop\n        /* \"#utility.yul\":18108:18117   */\n      dup2\n        /* \"#utility.yul\":18102:18106   */\n      dup2\n        /* \"#utility.yul\":18098:18118   */\n      sub\n        /* \"#utility.yul\":18094:18095   */\n      0x00\n        /* \"#utility.yul\":18083:18092   */\n      dup4\n        /* \"#utility.yul\":18079:18096   */\n      add\n        /* \"#utility.yul\":18072:18119   */\n      mstore\n        /* \"#utility.yul\":18136:18267   */\n      tag_362\n        /* \"#utility.yul\":18262:18266   */\n      dup2\n        /* \"#utility.yul\":18136:18267   */\n      tag_175\n      jump\t// in\n    tag_362:\n        /* \"#utility.yul\":18128:18267   */\n      swap1\n      pop\n        /* \"#utility.yul\":17855:18274   */\n      swap2\n      swap1\n      pop\n      jump\t// out\n        /* \"#utility.yul\":18280:18452   */\n    tag_176:\n        /* \"#utility.yul\":18420:18444   */\n      0x596f7520747765657420697320746f6f2073686f727400000000000000000000\n        /* \"#utility.yul\":18416:18417   */\n      0x00\n        /* \"#utility.yul\":18408:18414   */\n      dup3\n        /* \"#utility.yul\":18404:18418   */\n      add\n        /* \"#utility.yul\":18397:18445   */\n      mstore\n        /* \"#utility.yul\":18280:18452   */\n      pop\n      jump\t// out\n        /* \"#utility.yul\":18458:18824   */\n    tag_177:\n        /* \"#utility.yul\":18600:18603   */\n      0x00\n        /* \"#utility.yul\":18621:18688   */\n      tag_365\n        /* \"#utility.yul\":18685:18687   */\n      0x16\n        /* \"#utility.yul\":18680:18683   */\n      dup4\n        /* \"#utility.yul\":18621:18688   */\n      tag_139\n      jump\t// in\n    tag_365:\n        /* \"#utility.yul\":18614:18688   */\n      swap2\n      pop\n        /* \"#utility.yul\":18697:18790   */\n      tag_366\n        /* \"#utility.yul\":18786:18789   */\n      dup3\n        /* \"#utility.yul\":18697:18790   */\n      tag_176\n      jump\t// in\n    tag_366:\n        /* \"#utility.yul\":18815:18817   */\n      0x20\n        /* \"#utility.yul\":18810:18813   */\n      dup3\n        /* \"#utility.yul\":18806:18818   */\n      add\n        /* \"#utility.yul\":18799:18818   */\n      swap1\n      pop\n        /* \"#utility.yul\":18458:18824   */\n      swap2\n      swap1\n      pop\n      jump\t// out\n        /* \"#utility.yul\":18830:19249   */\n    tag_108:\n        /* \"#utility.yul\":18996:19000   */\n      0x00\n        /* \"#utility.yul\":19034:19036   */\n      0x20\n        /* \"#utility.yul\":19023:19032   */\n      dup3\n        /* \"#utility.yul\":19019:19037   */\n      add\n        /* \"#utility.yul\":19011:19037   */\n      swap1\n      pop\n        /* \"#utility.yul\":19083:19092   */\n      dup2\n        /* \"#utility.yul\":19077:19081   */\n      dup2\n        /* \"#utility.yul\":19073:19093   */\n      sub\n        /* \"#utility.yul\":19069:19070   */\n      0x00\n        /* \"#utility.yul\":19058:19067   */\n      dup4\n        /* \"#utility.yul\":19054:19071   */\n      add\n        /* \"#utility.yul\":19047:19094   */\n      mstore\n        /* \"#utility.yul\":19111:19242   */\n      tag_368\n        /* \"#utility.yul\":19237:19241   */\n      dup2\n        /* \"#utility.yul\":19111:19242   */\n      tag_177\n      jump\t// in\n    tag_368:\n        /* \"#utility.yul\":19103:19242   */\n      swap1\n      pop\n        /* \"#utility.yul\":18830:19249   */\n      swap2\n      swap1\n      pop\n      jump\t// out\n        /* \"#utility.yul\":19255:19426   */\n    tag_178:\n        /* \"#utility.yul\":19395:19418   */\n      0x596f7520747765657420697320746f6f206c6f6e670000000000000000000000\n        /* \"#utility.yul\":19391:19392   */\n      0x00\n        /* \"#utility.yul\":19383:19389   */\n      dup3\n        /* \"#utility.yul\":19379:19393   */\n      add\n        /* \"#utility.yul\":19372:19419   */\n      mstore\n        /* \"#utility.yul\":19255:19426   */\n      pop\n      jump\t// out\n        /* \"#utility.yul\":19432:19798   */\n    tag_179:\n        /* \"#utility.yul\":19574:19577   */\n      0x00\n        /* \"#utility.yul\":19595:19662   */\n      tag_371\n        /* \"#utility.yul\":19659:19661   */\n      0x15\n        /* \"#utility.yul\":19654:19657   */\n      dup4\n        /* \"#utility.yul\":19595:19662   */\n      tag_139\n      jump\t// in\n    tag_371:\n        /* \"#utility.yul\":19588:19662   */\n      swap2\n      pop\n        /* \"#utility.yul\":19671:19764   */\n      tag_372\n        /* \"#utility.yul\":19760:19763   */\n      dup3\n        /* \"#utility.yul\":19671:19764   */\n      tag_178\n      jump\t// in\n    tag_372:\n        /* \"#utility.yul\":19789:19791   */\n      0x20\n        /* \"#utility.yul\":19784:19787   */\n      dup3\n        /* \"#utility.yul\":19780:19792   */\n      add\n        /* \"#utility.yul\":19773:19792   */\n      swap1\n      pop\n        /* \"#utility.yul\":19432:19798   */\n      swap2\n      swap1\n      pop\n      jump\t// out\n        /* \"#utility.yul\":19804:20223   */\n    tag_111:\n        /* \"#utility.yul\":19970:19974   */\n      0x00\n        /* \"#utility.yul\":20008:20010   */\n      0x20\n        /* \"#utility.yul\":19997:20006   */\n      dup3\n        /* \"#utility.yul\":19993:20011   */\n      add\n        /* \"#utility.yul\":19985:20011   */\n      swap1\n      pop\n        /* \"#utility.yul\":20057:20066   */\n      dup2\n        /* \"#utility.yul\":20051:20055   */\n      dup2\n        /* \"#utility.yul\":20047:20067   */\n      sub\n        /* \"#utility.yul\":20043:20044   */\n      0x00\n        /* \"#utility.yul\":20032:20041   */\n      dup4\n        /* \"#utility.yul\":20028:20045   */\n      add\n        /* \"#utility.yul\":20021:20068   */\n      mstore\n        /* \"#utility.yul\":20085:20216   */\n      tag_374\n        /* \"#utility.yul\":20211:20215   */\n      dup2\n        /* \"#utility.yul\":20085:20216   */\n      tag_179\n      jump\t// in\n    tag_374:\n        /* \"#utility.yul\":20077:20216   */\n      swap1\n      pop\n        /* \"#utility.yul\":19804:20223   */\n      swap2\n      swap1\n      pop\n      jump\t// out\n        /* \"#utility.yul\":20229:20370   */\n    tag_180:\n        /* \"#utility.yul\":20278:20282   */\n      0x00\n        /* \"#utility.yul\":20301:20304   */\n      dup2\n        /* \"#utility.yul\":20293:20304   */\n      swap1\n      pop\n        /* \"#utility.yul\":20324:20327   */\n      dup2\n        /* \"#utility.yul\":20321:20322   */\n      0x00\n        /* \"#utility.yul\":20314:20328   */\n      mstore\n        /* \"#utility.yul\":20358:20362   */\n      0x20\n        /* \"#utility.yul\":20355:20356   */\n      0x00\n        /* \"#utility.yul\":20345:20363   */\n      keccak256\n        /* \"#utility.yul\":20337:20363   */\n      swap1\n      pop\n        /* \"#utility.yul\":20229:20370   */\n      swap2\n      swap1\n      pop\n      jump\t// out\n        /* \"#utility.yul\":20376:20469   */\n    tag_181:\n        /* \"#utility.yul\":20413:20419   */\n      0x00\n        /* \"#utility.yul\":20460:20462   */\n      0x20\n        /* \"#utility.yul\":20455:20457   */\n      0x1f\n        /* \"#utility.yul\":20448:20453   */\n      dup4\n        /* \"#utility.yul\":20444:20458   */\n      add\n        /* \"#utility.yul\":20440:20463   */\n      div\n        /* \"#utility.yul\":20430:20463   */\n      swap1\n      pop\n        /* \"#utility.yul\":20376:20469   */\n      swap2\n      swap1\n      pop\n      jump\t// out\n        /* \"#utility.yul\":20475:20582   */\n    tag_182:\n        /* \"#utility.yul\":20519:20527   */\n      0x00\n        /* \"#utility.yul\":20569:20574   */\n      dup3\n        /* \"#utility.yul\":20563:20567   */\n      dup3\n        /* \"#utility.yul\":20559:20575   */\n      shl\n        /* \"#utility.yul\":20538:20575   */\n      swap1\n      pop\n        /* \"#utility.yul\":20475:20582   */\n      swap3\n      swap2\n      pop\n      pop\n      jump\t// out\n        /* \"#utility.yul\":20588:20981   */\n    tag_183:\n        /* \"#utility.yul\":20657:20663   */\n      0x00\n        /* \"#utility.yul\":20707:20708   */\n      0x08\n        /* \"#utility.yul\":20695:20705   */\n      dup4\n        /* \"#utility.yul\":20691:20709   */\n      mul\n        /* \"#utility.yul\":20730:20827   */\n      tag_379\n        /* \"#utility.yul\":20760:20826   */\n      0xffffffffffffffffffffffffffffffffffffffffffffffffffffffffffffffff\n        /* \"#utility.yul\":20749:20758   */\n      dup3\n        /* \"#utility.yul\":20730:20827   */\n      tag_182\n      jump\t// in\n    tag_379:\n        /* \"#utility.yul\":20848:20887   */\n      tag_380\n        /* \"#utility.yul\":20878:20886   */\n      dup7\n        /* \"#utility.yul\":20867:20876   */\n      dup4\n        /* \"#utility.yul\":20848:20887   */\n      tag_182\n      jump\t// in\n    tag_380:\n        /* \"#utility.yul\":20836:20887   */\n      swap6\n      pop\n        /* \"#utility.yul\":20920:20924   */\n      dup1\n        /* \"#utility.yul\":20916:20925   */\n      not\n        /* \"#utility.yul\":20909:20914   */\n      dup5\n        /* \"#utility.yul\":20905:20926   */\n      and\n        /* \"#utility.yul\":20896:20926   */\n      swap4\n      pop\n        /* \"#utility.yul\":20969:20973   */\n      dup1\n        /* \"#utility.yul\":20959:20967   */\n      dup7\n        /* \"#utility.yul\":20955:20974   */\n      and\n        /* \"#utility.yul\":20948:20953   */\n      dup5\n        /* \"#utility.yul\":20945:20975   */\n      or\n        /* \"#utility.yul\":20935:20975   */\n      swap3\n      pop\n        /* \"#utility.yul\":20664:20981   */\n      pop\n      pop\n        /* \"#utility.yul\":20588:20981   */\n      swap4\n      swap3\n      pop\n      pop\n      pop\n      jump\t// out\n        /* \"#utility.yul\":20987:21047   */\n    tag_184:\n        /* \"#utility.yul\":21015:21018   */\n      0x00\n        /* \"#utility.yul\":21036:21041   */\n      dup2\n        /* \"#utility.yul\":21029:21041   */\n      swap1\n      pop\n        /* \"#utility.yul\":20987:21047   */\n      swap2\n      swap1\n      pop\n      jump\t// out\n        /* \"#utility.yul\":21053:21195   */\n    tag_185:\n        /* \"#utility.yul\":21103:21112   */\n      0x00\n        /* \"#utility.yul\":21136:21189   */\n      tag_383\n        /* \"#utility.yul\":21154:21188   */\n      tag_384\n        /* \"#utility.yul\":21163:21187   */\n      tag_385\n        /* \"#utility.yul\":21181:21186   */\n      dup5\n        /* \"#utility.yul\":21163:21187   */\n      tag_133\n      jump\t// in\n    tag_385:\n        /* \"#utility.yul\":21154:21188   */\n      tag_184\n      jump\t// in\n    tag_384:\n        /* \"#utility.yul\":21136:21189   */\n      tag_133\n      jump\t// in\n    tag_383:\n        /* \"#utility.yul\":21123:21189   */\n      swap1\n      pop\n        /* \"#utility.yul\":21053:21195   */\n      swap2\n      swap1\n      pop\n      jump\t// out\n        /* \"#utility.yul\":21201:21276   */\n    tag_186:\n        /* \"#utility.yul\":21244:21247   */\n      0x00\n        /* \"#utility.yul\":21265:21270   */\n      dup2\n        /* \"#utility.yul\":21258:21270   */\n      swap1\n      pop\n        /* \"#utility.yul\":21201:21276   */\n      swap2\n      swap1\n      pop\n      jump\t// out\n        /* \"#utility.yul\":21282:21551   */\n    tag_187:\n        /* \"#utility.yul\":21392:21431   */\n      tag_388\n        /* \"#utility.yul\":21423:21430   */\n      dup4\n        /* \"#utility.yul\":21392:21431   */\n      tag_185\n      jump\t// in\n    tag_388:\n        /* \"#utility.yul\":21453:21544   */\n      tag_389\n        /* \"#utility.yul\":21502:21543   */\n      tag_390\n        /* \"#utility.yul\":21526:21542   */\n      dup3\n        /* \"#utility.yul\":21502:21543   */\n      tag_186\n      jump\t// in\n    tag_390:\n        /* \"#utility.yul\":21494:21500   */\n      dup5\n        /* \"#utility.yul\":21487:21491   */\n      dup5\n        /* \"#utility.yul\":21481:21492   */\n      sload\n        /* \"#utility.yul\":21453:21544   */\n      tag_183\n      jump\t// in\n    tag_389:\n        /* \"#utility.yul\":21447:21451   */\n      dup3\n        /* \"#utility.yul\":21440:21545   */\n      sstore\n        /* \"#utility.yul\":21358:21551   */\n      pop\n        /* \"#utility.yul\":21282:21551   */\n      pop\n      pop\n      pop\n      jump\t// out\n        /* \"#utility.yul\":21557:21630   */\n    tag_188:\n        /* \"#utility.yul\":21602:21605   */\n      0x00\n        /* \"#utility.yul\":21557:21630   */\n      swap1\n      jump\t// out\n        /* \"#utility.yul\":21636:21825   */\n    tag_189:\n        /* \"#utility.yul\":21713:21745   */\n      tag_393\n      tag_188\n      jump\t// in\n    tag_393:\n        /* \"#utility.yul\":21754:21819   */\n      tag_394\n        /* \"#utility.yul\":21812:21818   */\n      dup2\n        /* \"#utility.yul\":21804:21810   */\n      dup5\n        /* \"#utility.yul\":21798:21802   */\n      dup5\n        /* \"#utility.yul\":21754:21819   */\n      tag_187\n      jump\t// in\n    tag_394:\n        /* \"#utility.yul\":21689:21825   */\n      pop\n        /* \"#utility.yul\":21636:21825   */\n      pop\n      pop\n      jump\t// out\n        /* \"#utility.yul\":21831:22017   */\n    tag_190:\n        /* \"#utility.yul\":21891:22011   */\n    tag_396:\n        /* \"#utility.yul\":21908:21911   */\n      dup2\n        /* \"#utility.yul\":21901:21906   */\n      dup2\n        /* \"#utility.yul\":21898:21912   */\n      lt\n        /* \"#utility.yul\":21891:22011   */\n      iszero\n      tag_398\n      jumpi\n        /* \"#utility.yul\":21962:22001   */\n      tag_399\n        /* \"#utility.yul\":21999:22000   */\n      0x00\n        /* \"#utility.yul\":21992:21997   */\n      dup3\n        /* \"#utility.yul\":21962:22001   */\n      tag_189\n      jump\t// in\n    tag_399:\n        /* \"#utility.yul\":21935:21936   */\n      0x01\n        /* \"#utility.yul\":21928:21933   */\n      dup2\n        /* \"#utility.yul\":21924:21937   */\n      add\n        /* \"#utility.yul\":21915:21937   */\n      swap1\n      pop\n        /* \"#utility.yul\":21891:22011   */\n      jump(tag_396)\n    tag_398:\n        /* \"#utility.yul\":21831:22017   */\n      pop\n      pop\n      jump\t// out\n        /* \"#utility.yul\":22023:22566   */\n    tag_191:\n        /* \"#utility.yul\":22124:22126   */\n      0x1f\n        /* \"#utility.yul\":22119:22122   */\n      dup3\n        /* \"#utility.yul\":22116:22127   */\n      gt\n        /* \"#utility.yul\":22113:22559   */\n      iszero\n      tag_401\n      jumpi\n        /* \"#utility.yul\":22158:22196   */\n      tag_402\n        /* \"#utility.yul\":22190:22195   */\n      dup2\n        /* \"#utility.yul\":22158:22196   */\n      tag_180\n      jump\t// in\n    tag_402:\n        /* \"#utility.yul\":22242:22271   */\n      tag_403\n        /* \"#utility.yul\":22260:22270   */\n      dup5\n        /* \"#utility.yul\":22242:22271   */\n      tag_181\n      jump\t// in\n    tag_403:\n        /* \"#utility.yul\":22232:22240   */\n      dup2\n        /* \"#utility.yul\":22228:22272   */\n      add\n        /* \"#utility.yul\":22425:22427   */\n      0x20\n        /* \"#utility.yul\":22413:22423   */\n      dup6\n        /* \"#utility.yul\":22410:22428   */\n      lt\n        /* \"#utility.yul\":22407:22456   */\n      iszero\n      tag_404\n      jumpi\n        /* \"#utility.yul\":22446:22454   */\n      dup2\n        /* \"#utility.yul\":22431:22454   */\n      swap1\n      pop\n        /* \"#utility.yul\":22407:22456   */\n    tag_404:\n        /* \"#utility.yul\":22469:22549   */\n      tag_405\n        /* \"#utility.yul\":22525:22547   */\n      tag_406\n        /* \"#utility.yul\":22543:22546   */\n      dup6\n        /* \"#utility.yul\":22525:22547   */\n      tag_181\n      jump\t// in\n    tag_406:\n        /* \"#utility.yul\":22515:22523   */\n      dup4\n        /* \"#utility.yul\":22511:22548   */\n      add\n        /* \"#utility.yul\":22498:22509   */\n      dup3\n        /* \"#utility.yul\":22469:22549   */\n      tag_190\n      jump\t// in\n    tag_405:\n        /* \"#utility.yul\":22128:22559   */\n      pop\n      pop\n        /* \"#utility.yul\":22113:22559   */\n    tag_401:\n        /* \"#utility.yul\":22023:22566   */\n      pop\n      pop\n      pop\n      jump\t// out\n        /* \"#utility.yul\":22572:22689   */\n    tag_192:\n        /* \"#utility.yul\":22626:22634   */\n      0x00\n        /* \"#utility.yul\":22676:22681   */\n      dup3\n        /* \"#utility.yul\":22670:22674   */\n      dup3\n        /* \"#utility.yul\":22666:22682   */\n      shr\n        /* \"#utility.yul\":22645:22682   */\n      swap1\n      pop\n        /* \"#utility.yul\":22572:22689   */\n      swap3\n      swap2\n      pop\n      pop\n      jump\t// out\n        /* \"#utility.yul\":22695:22864   */\n    tag_193:\n        /* \"#utility.yul\":22739:22745   */\n      0x00\n        /* \"#utility.yul\":22772:22823   */\n      tag_409\n        /* \"#utility.yul\":22820:22821   */\n      0x00\n        /* \"#utility.yul\":22816:22822   */\n      not\n        /* \"#utility.yul\":22808:22813   */\n      dup5\n        /* \"#utility.yul\":22805:22806   */\n      0x08\n        /* \"#utility.yul\":22801:22814   */\n      mul\n        /* \"#utility.yul\":22772:22823   */\n      tag_192\n      jump\t// in\n    tag_409:\n        /* \"#utility.yul\":22768:22824   */\n      not\n        /* \"#utility.yul\":22853:22857   */\n      dup1\n        /* \"#utility.yul\":22847:22851   */\n      dup4\n        /* \"#utility.yul\":22843:22858   */\n      and\n        /* \"#utility.yul\":22833:22858   */\n      swap2\n      pop\n        /* \"#utility.yul\":22746:22864   */\n      pop\n        /* \"#utility.yul\":22695:22864   */\n      swap3\n      swap2\n      pop\n      pop\n      jump\t// out\n        /* \"#utility.yul\":22869:23164   */\n    tag_194:\n        /* \"#utility.yul\":22945:22949   */\n      0x00\n        /* \"#utility.yul\":23091:23120   */\n      tag_411\n        /* \"#utility.yul\":23116:23119   */\n      dup4\n        /* \"#utility.yul\":23110:23114   */\n      dup4\n        /* \"#utility.yul\":23091:23120   */\n      tag_193\n      jump\t// in\n    tag_411:\n        /* \"#utility.yul\":23083:23120   */\n      swap2\n      pop\n        /* \"#utility.yul\":23153:23156   */\n      dup3\n        /* \"#utility.yul\":23150:23151   */\n      0x02\n        /* \"#utility.yul\":23146:23157   */\n      mul\n        /* \"#utility.yul\":23140:23144   */\n      dup3\n        /* \"#utility.yul\":23137:23158   */\n      or\n        /* \"#utility.yul\":23129:23158   */\n      swap1\n      pop\n        /* \"#utility.yul\":22869:23164   */\n      swap3\n      swap2\n      pop\n      pop\n      jump\t// out\n        /* \"#utility.yul\":23169:24564   */\n    tag_114:\n        /* \"#utility.yul\":23286:23323   */\n      tag_413\n        /* \"#utility.yul\":23319:23322   */\n      dup3\n        /* \"#utility.yul\":23286:23323   */\n      tag_138\n      jump\t// in\n    tag_413:\n        /* \"#utility.yul\":23388:23406   */\n      0xffffffffffffffff\n        /* \"#utility.yul\":23380:23386   */\n      dup2\n        /* \"#utility.yul\":23377:23407   */\n      gt\n        /* \"#utility.yul\":23374:23430   */\n      iszero\n      tag_414\n      jumpi\n        /* \"#utility.yul\":23410:23428   */\n      tag_415\n      tag_161\n      jump\t// in\n    tag_415:\n        /* \"#utility.yul\":23374:23430   */\n    tag_414:\n        /* \"#utility.yul\":23454:23492   */\n      tag_416\n        /* \"#utility.yul\":23486:23490   */\n      dup3\n        /* \"#utility.yul\":23480:23491   */\n      sload\n        /* \"#utility.yul\":23454:23492   */\n      tag_56\n      jump\t// in\n    tag_416:\n        /* \"#utility.yul\":23539:23606   */\n      tag_417\n        /* \"#utility.yul\":23599:23605   */\n      dup3\n        /* \"#utility.yul\":23591:23597   */\n      dup3\n        /* \"#utility.yul\":23585:23589   */\n      dup6\n        /* \"#utility.yul\":23539:23606   */\n      tag_191\n      jump\t// in\n    tag_417:\n        /* \"#utility.yul\":23633:23634   */\n      0x00\n        /* \"#utility.yul\":23657:23661   */\n      0x20\n        /* \"#utility.yul\":23644:23661   */\n      swap1\n      pop\n        /* \"#utility.yul\":23689:23691   */\n      0x1f\n        /* \"#utility.yul\":23681:23687   */\n      dup4\n        /* \"#utility.yul\":23678:23692   */\n      gt\n        /* \"#utility.yul\":23706:23707   */\n      0x01\n        /* \"#utility.yul\":23701:24319   */\n      dup2\n      eq\n      tag_419\n      jumpi\n        /* \"#utility.yul\":24363:24364   */\n      0x00\n        /* \"#utility.yul\":24380:24386   */\n      dup5\n        /* \"#utility.yul\":24377:24454   */\n      iszero\n      tag_420\n      jumpi\n        /* \"#utility.yul\":24429:24438   */\n      dup3\n        /* \"#utility.yul\":24424:24427   */\n      dup8\n        /* \"#utility.yul\":24420:24439   */\n      add\n        /* \"#utility.yul\":24414:24440   */\n      mload\n        /* \"#utility.yul\":24405:24440   */\n      swap1\n      pop\n        /* \"#utility.yul\":24377:24454   */\n    tag_420:\n        /* \"#utility.yul\":24480:24547   */\n      tag_421\n        /* \"#utility.yul\":24540:24546   */\n      dup6\n        /* \"#utility.yul\":24533:24538   */\n      dup3\n        /* \"#utility.yul\":24480:24547   */\n      tag_194\n      jump\t// in\n    tag_421:\n        /* \"#utility.yul\":24474:24478   */\n      dup7\n        /* \"#utility.yul\":24467:24548   */\n      sstore\n        /* \"#utility.yul\":24336:24558   */\n      pop\n        /* \"#utility.yul\":23671:24558   */\n      jump(tag_418)\n        /* \"#utility.yul\":23701:24319   */\n    tag_419:\n        /* \"#utility.yul\":23753:23757   */\n      0x1f\n        /* \"#utility.yul\":23749:23758   */\n      not\n        /* \"#utility.yul\":23741:23747   */\n      dup5\n        /* \"#utility.yul\":23737:23759   */\n      and\n        /* \"#utility.yul\":23787:23824   */\n      tag_422\n        /* \"#utility.yul\":23819:23823   */\n      dup7\n        /* \"#utility.yul\":23787:23824   */\n      tag_180\n      jump\t// in\n    tag_422:\n        /* \"#utility.yul\":23846:23847   */\n      0x00\n        /* \"#utility.yul\":23860:24068   */\n    tag_423:\n        /* \"#utility.yul\":23874:23881   */\n      dup3\n        /* \"#utility.yul\":23871:23872   */\n      dup2\n        /* \"#utility.yul\":23868:23882   */\n      lt\n        /* \"#utility.yul\":23860:24068   */\n      iszero\n      tag_425\n      jumpi\n        /* \"#utility.yul\":23953:23962   */\n      dup5\n        /* \"#utility.yul\":23948:23951   */\n      dup10\n        /* \"#utility.yul\":23944:23963   */\n      add\n        /* \"#utility.yul\":23938:23964   */\n      mload\n        /* \"#utility.yul\":23930:23936   */\n      dup3\n        /* \"#utility.yul\":23923:23965   */\n      sstore\n        /* \"#utility.yul\":24004:24005   */\n      0x01\n        /* \"#utility.yul\":23996:24002   */\n      dup3\n        /* \"#utility.yul\":23992:24006   */\n      add\n        /* \"#utility.yul\":23982:24006   */\n      swap2\n      pop\n        /* \"#utility.yul\":24051:24053   */\n      0x20\n        /* \"#utility.yul\":24040:24049   */\n      dup6\n        /* \"#utility.yul\":24036:24054   */\n      add\n        /* \"#utility.yul\":24023:24054   */\n      swap5\n      pop\n        /* \"#utility.yul\":23897:23901   */\n      0x20\n        /* \"#utility.yul\":23894:23895   */\n      dup2\n        /* \"#utility.yul\":23890:23902   */\n      add\n        /* \"#utility.yul\":23885:23902   */\n      swap1\n      pop\n        /* \"#utility.yul\":23860:24068   */\n      jump(tag_423)\n    tag_425:\n        /* \"#utility.yul\":24096:24102   */\n      dup7\n        /* \"#utility.yul\":24087:24094   */\n      dup4\n        /* \"#utility.yul\":24084:24103   */\n      lt\n        /* \"#utility.yul\":24081:24260   */\n      iszero\n      tag_426\n      jumpi\n        /* \"#utility.yul\":24154:24163   */\n      dup5\n        /* \"#utility.yul\":24149:24152   */\n      dup10\n        /* \"#utility.yul\":24145:24164   */\n      add\n        /* \"#utility.yul\":24139:24165   */\n      mload\n        /* \"#utility.yul\":24197:24245   */\n      tag_427\n        /* \"#utility.yul\":24239:24243   */\n      0x1f\n        /* \"#utility.yul\":24231:24237   */\n      dup10\n        /* \"#utility.yul\":24227:24244   */\n      and\n        /* \"#utility.yul\":24216:24225   */\n      dup3\n        /* \"#utility.yul\":24197:24245   */\n      tag_193\n      jump\t// in\n    tag_427:\n        /* \"#utility.yul\":24189:24195   */\n      dup4\n        /* \"#utility.yul\":24182:24246   */\n      sstore\n        /* \"#utility.yul\":24104:24260   */\n      pop\n        /* \"#utility.yul\":24081:24260   */\n    tag_426:\n        /* \"#utility.yul\":24306:24307   */\n      0x01\n        /* \"#utility.yul\":24302:24303   */\n      0x02\n        /* \"#utility.yul\":24294:24300   */\n      dup9\n        /* \"#utility.yul\":24290:24304   */\n      mul\n        /* \"#utility.yul\":24286:24308   */\n      add\n        /* \"#utility.yul\":24280:24284   */\n      dup9\n        /* \"#utility.yul\":24273:24309   */\n      sstore\n        /* \"#utility.yul\":23708:24319   */\n      pop\n      pop\n      pop\n        /* \"#utility.yul\":23671:24558   */\n    tag_418:\n      pop\n        /* \"#utility.yul\":23261:24564   */\n      pop\n      pop\n      pop\n        /* \"#utility.yul\":23169:24564   */\n      pop\n      pop\n      jump\t// out\n        /* \"#utility.yul\":24570:24803   */\n    tag_125:\n        /* \"#utility.yul\":24609:24612   */\n      0x00\n        /* \"#utility.yul\":24632:24656   */\n      tag_429\n        /* \"#utility.yul\":24650:24655   */\n      dup3\n        /* \"#utility.yul\":24632:24656   */\n      tag_133\n      jump\t// in\n    tag_429:\n        /* \"#utility.yul\":24623:24656   */\n      swap2\n      pop\n        /* \"#utility.yul\":24678:24744   */\n      0xffffffffffffffffffffffffffffffffffffffffffffffffffffffffffffffff\n        /* \"#utility.yul\":24671:24676   */\n      dup3\n        /* \"#utility.yul\":24668:24745   */\n      sub\n        /* \"#utility.yul\":24665:24768   */\n      tag_430\n      jumpi\n        /* \"#utility.yul\":24748:24766   */\n      tag_431\n      tag_173\n      jump\t// in\n    tag_431:\n        /* \"#utility.yul\":24665:24768   */\n    tag_430:\n        /* \"#utility.yul\":24795:24796   */\n      0x01\n        /* \"#utility.yul\":24788:24793   */\n      dup3\n        /* \"#utility.yul\":24784:24797   */\n      add\n        /* \"#utility.yul\":24777:24797   */\n      swap1\n      pop\n        /* \"#utility.yul\":24570:24803   */\n      swap2\n      swap1\n      pop\n      jump\t// out\n\n    auxdata: 0xa26469706673582212204f42e75a7aa68c51174607163c5bb054076d504ef57b11d7524637c1158bf64b64736f6c634300081a0033\n}\n",
				"bytecode": {
					"linkReferences": {},
					"object": "60806040526101185f806101000a81548161ffff021916908361ffff160217905550348015602b575f80fd5b503360025f6101000a81548173ffffffffffffffffffffffffffffffffffffffff021916908373ffffffffffffffffffffffffffffffffffffffff16021790555061180d806100795f395ff3fe608060405234801561000f575f80fd5b5060043610610091575f3560e01c806358bfa4ab1161006457806358bfa4ab146101455780636eb10797146101615780637c9cd2bc1461017f5780638da5cb5b1461019b578063d04ddaa0146101b957610091565b806305a1b4a914610095578063112f54e3146100c957806312e7ee1c146100f95780633d9b569f14610129575b5f80fd5b6100af60048036038101906100aa9190610c54565b6101d5565b6040516100c0959493929190610d20565b60405180910390f35b6100e360048036038101906100de9190610c54565b6102c6565b6040516100f09190610e51565b60405180910390f35b610113600480360381019061010e9190610e71565b61043e565b6040516101209190610fca565b60405180910390f35b610143600480360381019061013e9190610c54565b6105d9565b005b61015f600480360381019061015a9190611021565b61078f565b005b61016961083c565b604051610176919061105b565b60405180910390f35b610199600480360381019061019491906111a0565b61084d565b005b6101a3610a3a565b6040516101b091906111e7565b60405180910390f35b6101d360048036038101906101ce9190611200565b610a5f565b005b6001602052815f5260405f2081815481106101ee575f80fd5b905f5260205f2090600502015f9150915050805f015490806001015f9054906101000a900473ffffffffffffffffffffffffffffffffffffffff16908060020180546102399061126b565b80601f01602080910402602001604051908101604052809291908181526020018280546102659061126b565b80156102b05780601f10610287576101008083540402835291602001916102b0565b820191905f5260205f20905b81548152906001019060200180831161029357829003601f168201915b5050505050908060030154908060040154905085565b6102ce610b75565b60015f8473ffffffffffffffffffffffffffffffffffffffff1673ffffffffffffffffffffffffffffffffffffffff1681526020019081526020015f20828154811061031d5761031c61129b565b5b905f5260205f2090600502016040518060a00160405290815f8201548152602001600182015f9054906101000a900473ffffffffffffffffffffffffffffffffffffffff1673ffffffffffffffffffffffffffffffffffffffff1673ffffffffffffffffffffffffffffffffffffffff1681526020016002820180546103a29061126b565b80601f01602080910402602001604051908101604052809291908181526020018280546103ce9061126b565b80156104195780601f106103f057610100808354040283529160200191610419565b820191905f5260205f20905b8154815290600101906020018083116103fc57829003601f168201915b5050505050815260200160038201548152602001600482015481525050905092915050565b606060015f8373ffffffffffffffffffffffffffffffffffffffff1673ffffffffffffffffffffffffffffffffffffffff1681526020019081526020015f20805480602002602001604051908101604052809291908181526020015f905b828210156105ce578382905f5260205f2090600502016040518060a00160405290815f8201548152602001600182015f9054906101000a900473ffffffffffffffffffffffffffffffffffffffff1673ffffffffffffffffffffffffffffffffffffffff1673ffffffffffffffffffffffffffffffffffffffff16815260200160028201805461052b9061126b565b80601f01602080910402602001604051908101604052809291908181526020018280546105579061126b565b80156105a25780601f10610579576101008083540402835291602001916105a2565b820191905f5260205f20905b81548152906001019060200180831161058557829003601f168201915b50505050508152602001600382015481526020016004820154815250508152602001906001019061049c565b505050509050919050565b8060015f8473ffffffffffffffffffffffffffffffffffffffff1673ffffffffffffffffffffffffffffffffffffffff1681526020019081526020015f2082815481106106295761062861129b565b5b905f5260205f2090600502015f015414610678576040517f08c379a000000000000000000000000000000000000000000000000000000000815260040161066f90611312565b60405180910390fd5b5f60015f8473ffffffffffffffffffffffffffffffffffffffff1673ffffffffffffffffffffffffffffffffffffffff1681526020019081526020015f2082815481106106c8576106c761129b565b5b905f5260205f2090600502016004015411610718576040517f08c379a000000000000000000000000000000000000000000000000000000000815260040161070f9061137a565b60405180910390fd5b60015f8373ffffffffffffffffffffffffffffffffffffffff1673ffffffffffffffffffffffffffffffffffffffff1681526020019081526020015f2081815481106107675761076661129b565b5b905f5260205f2090600502016004015f815480929190610786906113c5565b91905055505050565b60025f9054906101000a900473ffffffffffffffffffffffffffffffffffffffff1673ffffffffffffffffffffffffffffffffffffffff163373ffffffffffffffffffffffffffffffffffffffff161461081e576040517f08c379a000000000000000000000000000000000000000000000000000000000815260040161081590611436565b60405180910390fd5b805f806101000a81548161ffff021916908361ffff16021790555050565b5f8054906101000a900461ffff1681565b600581511015610892576040517f08c379a00000000000000000000000000000000000000000000000000000000081526004016108899061149e565b60405180910390fd5b610118815111156108d8576040517f08c379a00000000000000000000000000000000000000000000000000000000081526004016108cf90611506565b60405180910390fd5b5f6040518060a0016040528060015f3373ffffffffffffffffffffffffffffffffffffffff1673ffffffffffffffffffffffffffffffffffffffff1681526020019081526020015f208054905081526020013373ffffffffffffffffffffffffffffffffffffffff1681526020018381526020014281526020015f815250905060015f3373ffffffffffffffffffffffffffffffffffffffff1673ffffffffffffffffffffffffffffffffffffffff1681526020019081526020015f2081908060018154018082558091505060019003905f5260205f2090600502015f909190919091505f820151815f01556020820151816001015f6101000a81548173ffffffffffffffffffffffffffffffffffffffff021916908373ffffffffffffffffffffffffffffffffffffffff1602179055506040820151816002019081610a1f91906116c1565b50606082015181600301556080820151816004015550505050565b60025f9054906101000a900473ffffffffffffffffffffffffffffffffffffffff1681565b8160015f8373ffffffffffffffffffffffffffffffffffffffff1673ffffffffffffffffffffffffffffffffffffffff1681526020019081526020015f208381548110610aaf57610aae61129b565b5b905f5260205f2090600502015f015414610afe576040517f08c379a0000000000000000000000000000000000000000000000000000000008152600401610af590611312565b60405180910390fd5b60015f8273ffffffffffffffffffffffffffffffffffffffff1673ffffffffffffffffffffffffffffffffffffffff1681526020019081526020015f208281548110610b4d57610b4c61129b565b5b905f5260205f2090600502016004015f815480929190610b6c90611790565b91905055505050565b6040518060a001604052805f81526020015f73ffffffffffffffffffffffffffffffffffffffff168152602001606081526020015f81526020015f81525090565b5f604051905090565b5f80fd5b5f80fd5b5f73ffffffffffffffffffffffffffffffffffffffff82169050919050565b5f610bf082610bc7565b9050919050565b610c0081610be6565b8114610c0a575f80fd5b50565b5f81359050610c1b81610bf7565b92915050565b5f819050919050565b610c3381610c21565b8114610c3d575f80fd5b50565b5f81359050610c4e81610c2a565b92915050565b5f8060408385031215610c6a57610c69610bbf565b5b5f610c7785828601610c0d565b9250506020610c8885828601610c40565b9150509250929050565b610c9b81610c21565b82525050565b610caa81610be6565b82525050565b5f81519050919050565b5f82825260208201905092915050565b8281835e5f83830152505050565b5f601f19601f8301169050919050565b5f610cf282610cb0565b610cfc8185610cba565b9350610d0c818560208601610cca565b610d1581610cd8565b840191505092915050565b5f60a082019050610d335f830188610c92565b610d406020830187610ca1565b8181036040830152610d528186610ce8565b9050610d616060830185610c92565b610d6e6080830184610c92565b9695505050505050565b610d8181610c21565b82525050565b610d9081610be6565b82525050565b5f82825260208201905092915050565b5f610db082610cb0565b610dba8185610d96565b9350610dca818560208601610cca565b610dd381610cd8565b840191505092915050565b5f60a083015f830151610df35f860182610d78565b506020830151610e066020860182610d87565b5060408301518482036040860152610e1e8282610da6565b9150506060830151610e336060860182610d78565b506080830151610e466080860182610d78565b508091505092915050565b5f6020820190508181035f830152610e698184610dde565b905092915050565b5f60208284031215610e8657610e85610bbf565b5b5f610e9384828501610c0d565b91505092915050565b5f81519050919050565b5f82825260208201905092915050565b5f819050602082019050919050565b5f60a083015f830151610eda5f860182610d78565b506020830151610eed6020860182610d87565b5060408301518482036040860152610f058282610da6565b9150506060830151610f1a6060860182610d78565b506080830151610f2d6080860182610d78565b508091505092915050565b5f610f438383610ec5565b905092915050565b5f602082019050919050565b5f610f6182610e9c565b610f6b8185610ea6565b935083602082028501610f7d85610eb6565b805f5b85811015610fb85784840389528151610f998582610f38565b9450610fa483610f4b565b925060208a01995050600181019050610f80565b50829750879550505050505092915050565b5f6020820190508181035f830152610fe28184610f57565b905092915050565b5f61ffff82169050919050565b61100081610fea565b811461100a575f80fd5b50565b5f8135905061101b81610ff7565b92915050565b5f6020828403121561103657611035610bbf565b5b5f6110438482850161100d565b91505092915050565b61105581610fea565b82525050565b5f60208201905061106e5f83018461104c565b92915050565b5f80fd5b5f80fd5b7f4e487b71000000000000000000000000000000000000000000000000000000005f52604160045260245ffd5b6110b282610cd8565b810181811067ffffffffffffffff821117156110d1576110d061107c565b5b80604052505050565b5f6110e3610bb6565b90506110ef82826110a9565b919050565b5f67ffffffffffffffff82111561110e5761110d61107c565b5b61111782610cd8565b9050602081019050919050565b828183375f83830152505050565b5f61114461113f846110f4565b6110da565b9050828152602081018484840111156111605761115f611078565b5b61116b848285611124565b509392505050565b5f82601f83011261118757611186611074565b5b8135611197848260208601611132565b91505092915050565b5f602082840312156111b5576111b4610bbf565b5b5f82013567ffffffffffffffff8111156111d2576111d1610bc3565b5b6111de84828501611173565b91505092915050565b5f6020820190506111fa5f830184610ca1565b92915050565b5f806040838503121561121657611215610bbf565b5b5f61122385828601610c40565b925050602061123485828601610c0d565b9150509250929050565b7f4e487b71000000000000000000000000000000000000000000000000000000005f52602260045260245ffd5b5f600282049050600182168061128257607f821691505b6020821081036112955761129461123e565b5b50919050565b7f4e487b71000000000000000000000000000000000000000000000000000000005f52603260045260245ffd5b7f747765657420646f6573206e6f742065786973740000000000000000000000005f82015250565b5f6112fc601483610cba565b9150611307826112c8565b602082019050919050565b5f6020820190508181035f830152611329816112f0565b9050919050565b7f547765657420686173206e6f206c696b657300000000000000000000000000005f82015250565b5f611364601283610cba565b915061136f82611330565b602082019050919050565b5f6020820190508181035f83015261139181611358565b9050919050565b7f4e487b71000000000000000000000000000000000000000000000000000000005f52601160045260245ffd5b5f6113cf82610c21565b91505f82036113e1576113e0611398565b5b600182039050919050565b7f596f7520617265206e6f7420746865206f776e657221210000000000000000005f82015250565b5f611420601783610cba565b915061142b826113ec565b602082019050919050565b5f6020820190508181035f83015261144d81611414565b9050919050565b7f596f7520747765657420697320746f6f2073686f7274000000000000000000005f82015250565b5f611488601683610cba565b915061149382611454565b602082019050919050565b5f6020820190508181035f8301526114b58161147c565b9050919050565b7f596f7520747765657420697320746f6f206c6f6e6700000000000000000000005f82015250565b5f6114f0601583610cba565b91506114fb826114bc565b602082019050919050565b5f6020820190508181035f83015261151d816114e4565b9050919050565b5f819050815f5260205f209050919050565b5f6020601f8301049050919050565b5f82821b905092915050565b5f600883026115807fffffffffffffffffffffffffffffffffffffffffffffffffffffffffffffffff82611545565b61158a8683611545565b95508019841693508086168417925050509392505050565b5f819050919050565b5f6115c56115c06115bb84610c21565b6115a2565b610c21565b9050919050565b5f819050919050565b6115de836115ab565b6115f26115ea826115cc565b848454611551565b825550505050565b5f90565b6116066115fa565b6116118184846115d5565b505050565b5b81811015611634576116295f826115fe565b600181019050611617565b5050565b601f8211156116795761164a81611524565b61165384611536565b81016020851015611662578190505b61167661166e85611536565b830182611616565b50505b505050565b5f82821c905092915050565b5f6116995f198460080261167e565b1980831691505092915050565b5f6116b1838361168a565b9150826002028217905092915050565b6116ca82610cb0565b67ffffffffffffffff8111156116e3576116e261107c565b5b6116ed825461126b565b6116f8828285611638565b5f60209050601f831160018114611729575f8415611717578287015190505b61172185826116a6565b865550611788565b601f19841661173786611524565b5f5b8281101561175e57848901518255600182019150602085019450602081019050611739565b8683101561177b5784890151611777601f89168261168a565b8355505b6001600288020188555050505b505050505050565b5f61179a82610c21565b91507fffffffffffffffffffffffffffffffffffffffffffffffffffffffffffffffff82036117cc576117cb611398565b5b60018201905091905056fea26469706673582212204f42e75a7aa68c51174607163c5bb054076d504ef57b11d7524637c1158bf64b64736f6c634300081a0033",
					"opcodes": "PUSH1 0x80 PUSH1 0x40 MSTORE PUSH2 0x118 PUSH0 DUP1 PUSH2 0x100 EXP DUP2 SLOAD DUP2 PUSH2 0xFFFF MUL NOT AND SWAP1 DUP4 PUSH2 0xFFFF AND MUL OR SWAP1 SSTORE POP CALLVALUE DUP1 ISZERO PUSH1 0x2B JUMPI PUSH0 DUP1 REVERT JUMPDEST POP CALLER PUSH1 0x2 PUSH0 PUSH2 0x100 EXP DUP2 SLOAD DUP2 PUSH20 0xFFFFFFFFFFFFFFFFFFFFFFFFFFFFFFFFFFFFFFFF MUL NOT AND SWAP1 DUP4 PUSH20 0xFFFFFFFFFFFFFFFFFFFFFFFFFFFFFFFFFFFFFFFF AND MUL OR SWAP1 SSTORE POP PUSH2 0x180D DUP1 PUSH2 0x79 PUSH0 CODECOPY PUSH0 RETURN INVALID PUSH1 0x80 PUSH1 0x40 MSTORE CALLVALUE DUP1 ISZERO PUSH2 0xF JUMPI PUSH0 DUP1 REVERT JUMPDEST POP PUSH1 0x4 CALLDATASIZE LT PUSH2 0x91 JUMPI PUSH0 CALLDATALOAD PUSH1 0xE0 SHR DUP1 PUSH4 0x58BFA4AB GT PUSH2 0x64 JUMPI DUP1 PUSH4 0x58BFA4AB EQ PUSH2 0x145 JUMPI DUP1 PUSH4 0x6EB10797 EQ PUSH2 0x161 JUMPI DUP1 PUSH4 0x7C9CD2BC EQ PUSH2 0x17F JUMPI DUP1 PUSH4 0x8DA5CB5B EQ PUSH2 0x19B JUMPI DUP1 PUSH4 0xD04DDAA0 EQ PUSH2 0x1B9 JUMPI PUSH2 0x91 JUMP JUMPDEST DUP1 PUSH4 0x5A1B4A9 EQ PUSH2 0x95 JUMPI DUP1 PUSH4 0x112F54E3 EQ PUSH2 0xC9 JUMPI DUP1 PUSH4 0x12E7EE1C EQ PUSH2 0xF9 JUMPI DUP1 PUSH4 0x3D9B569F EQ PUSH2 0x129 JUMPI JUMPDEST PUSH0 DUP1 REVERT JUMPDEST PUSH2 0xAF PUSH1 0x4 DUP1 CALLDATASIZE SUB DUP2 ADD SWAP1 PUSH2 0xAA SWAP2 SWAP1 PUSH2 0xC54 JUMP JUMPDEST PUSH2 0x1D5 JUMP JUMPDEST PUSH1 0x40 MLOAD PUSH2 0xC0 SWAP6 SWAP5 SWAP4 SWAP3 SWAP2 SWAP1 PUSH2 0xD20 JUMP JUMPDEST PUSH1 0x40 MLOAD DUP1 SWAP2 SUB SWAP1 RETURN JUMPDEST PUSH2 0xE3 PUSH1 0x4 DUP1 CALLDATASIZE SUB DUP2 ADD SWAP1 PUSH2 0xDE SWAP2 SWAP1 PUSH2 0xC54 JUMP JUMPDEST PUSH2 0x2C6 JUMP JUMPDEST PUSH1 0x40 MLOAD PUSH2 0xF0 SWAP2 SWAP1 PUSH2 0xE51 JUMP JUMPDEST PUSH1 0x40 MLOAD DUP1 SWAP2 SUB SWAP1 RETURN JUMPDEST PUSH2 0x113 PUSH1 0x4 DUP1 CALLDATASIZE SUB DUP2 ADD SWAP1 PUSH2 0x10E SWAP2 SWAP1 PUSH2 0xE71 JUMP JUMPDEST PUSH2 0x43E JUMP JUMPDEST PUSH1 0x40 MLOAD PUSH2 0x120 SWAP2 SWAP1 PUSH2 0xFCA JUMP JUMPDEST PUSH1 0x40 MLOAD DUP1 SWAP2 SUB SWAP1 RETURN JUMPDEST PUSH2 0x143 PUSH1 0x4 DUP1 CALLDATASIZE SUB DUP2 ADD SWAP1 PUSH2 0x13E SWAP2 SWAP1 PUSH2 0xC54 JUMP JUMPDEST PUSH2 0x5D9 JUMP JUMPDEST STOP JUMPDEST PUSH2 0x15F PUSH1 0x4 DUP1 CALLDATASIZE SUB DUP2 ADD SWAP1 PUSH2 0x15A SWAP2 SWAP1 PUSH2 0x1021 JUMP JUMPDEST PUSH2 0x78F JUMP JUMPDEST STOP JUMPDEST PUSH2 0x169 PUSH2 0x83C JUMP JUMPDEST PUSH1 0x40 MLOAD PUSH2 0x176 SWAP2 SWAP1 PUSH2 0x105B JUMP JUMPDEST PUSH1 0x40 MLOAD DUP1 SWAP2 SUB SWAP1 RETURN JUMPDEST PUSH2 0x199 PUSH1 0x4 DUP1 CALLDATASIZE SUB DUP2 ADD SWAP1 PUSH2 0x194 SWAP2 SWAP1 PUSH2 0x11A0 JUMP JUMPDEST PUSH2 0x84D JUMP JUMPDEST STOP JUMPDEST PUSH2 0x1A3 PUSH2 0xA3A JUMP JUMPDEST PUSH1 0x40 MLOAD PUSH2 0x1B0 SWAP2 SWAP1 PUSH2 0x11E7 JUMP JUMPDEST PUSH1 0x40 MLOAD DUP1 SWAP2 SUB SWAP1 RETURN JUMPDEST PUSH2 0x1D3 PUSH1 0x4 DUP1 CALLDATASIZE SUB DUP2 ADD SWAP1 PUSH2 0x1CE SWAP2 SWAP1 PUSH2 0x1200 JUMP JUMPDEST PUSH2 0xA5F JUMP JUMPDEST STOP JUMPDEST PUSH1 0x1 PUSH1 0x20 MSTORE DUP2 PUSH0 MSTORE PUSH1 0x40 PUSH0 KECCAK256 DUP2 DUP2 SLOAD DUP2 LT PUSH2 0x1EE JUMPI PUSH0 DUP1 REVERT JUMPDEST SWAP1 PUSH0 MSTORE PUSH1 0x20 PUSH0 KECCAK256 SWAP1 PUSH1 0x5 MUL ADD PUSH0 SWAP2 POP SWAP2 POP POP DUP1 PUSH0 ADD SLOAD SWAP1 DUP1 PUSH1 0x1 ADD PUSH0 SWAP1 SLOAD SWAP1 PUSH2 0x100 EXP SWAP1 DIV PUSH20 0xFFFFFFFFFFFFFFFFFFFFFFFFFFFFFFFFFFFFFFFF AND SWAP1 DUP1 PUSH1 0x2 ADD DUP1 SLOAD PUSH2 0x239 SWAP1 PUSH2 0x126B JUMP JUMPDEST DUP1 PUSH1 0x1F ADD PUSH1 0x20 DUP1 SWAP2 DIV MUL PUSH1 0x20 ADD PUSH1 0x40 MLOAD SWAP1 DUP2 ADD PUSH1 0x40 MSTORE DUP1 SWAP3 SWAP2 SWAP1 DUP2 DUP2 MSTORE PUSH1 0x20 ADD DUP3 DUP1 SLOAD PUSH2 0x265 SWAP1 PUSH2 0x126B JUMP JUMPDEST DUP1 ISZERO PUSH2 0x2B0 JUMPI DUP1 PUSH1 0x1F LT PUSH2 0x287 JUMPI PUSH2 0x100 DUP1 DUP4 SLOAD DIV MUL DUP4 MSTORE SWAP2 PUSH1 0x20 ADD SWAP2 PUSH2 0x2B0 JUMP JUMPDEST DUP3 ADD SWAP2 SWAP1 PUSH0 MSTORE PUSH1 0x20 PUSH0 KECCAK256 SWAP1 JUMPDEST DUP2 SLOAD DUP2 MSTORE SWAP1 PUSH1 0x1 ADD SWAP1 PUSH1 0x20 ADD DUP1 DUP4 GT PUSH2 0x293 JUMPI DUP3 SWAP1 SUB PUSH1 0x1F AND DUP3 ADD SWAP2 JUMPDEST POP POP POP POP POP SWAP1 DUP1 PUSH1 0x3 ADD SLOAD SWAP1 DUP1 PUSH1 0x4 ADD SLOAD SWAP1 POP DUP6 JUMP JUMPDEST PUSH2 0x2CE PUSH2 0xB75 JUMP JUMPDEST PUSH1 0x1 PUSH0 DUP5 PUSH20 0xFFFFFFFFFFFFFFFFFFFFFFFFFFFFFFFFFFFFFFFF AND PUSH20 0xFFFFFFFFFFFFFFFFFFFFFFFFFFFFFFFFFFFFFFFF AND DUP2 MSTORE PUSH1 0x20 ADD SWAP1 DUP2 MSTORE PUSH1 0x20 ADD PUSH0 KECCAK256 DUP3 DUP2 SLOAD DUP2 LT PUSH2 0x31D JUMPI PUSH2 0x31C PUSH2 0x129B JUMP JUMPDEST JUMPDEST SWAP1 PUSH0 MSTORE PUSH1 0x20 PUSH0 KECCAK256 SWAP1 PUSH1 0x5 MUL ADD PUSH1 0x40 MLOAD DUP1 PUSH1 0xA0 ADD PUSH1 0x40 MSTORE SWAP1 DUP2 PUSH0 DUP3 ADD SLOAD DUP2 MSTORE PUSH1 0x20 ADD PUSH1 0x1 DUP3 ADD PUSH0 SWAP1 SLOAD SWAP1 PUSH2 0x100 EXP SWAP1 DIV PUSH20 0xFFFFFFFFFFFFFFFFFFFFFFFFFFFFFFFFFFFFFFFF AND PUSH20 0xFFFFFFFFFFFFFFFFFFFFFFFFFFFFFFFFFFFFFFFF AND PUSH20 0xFFFFFFFFFFFFFFFFFFFFFFFFFFFFFFFFFFFFFFFF AND DUP2 MSTORE PUSH1 0x20 ADD PUSH1 0x2 DUP3 ADD DUP1 SLOAD PUSH2 0x3A2 SWAP1 PUSH2 0x126B JUMP JUMPDEST DUP1 PUSH1 0x1F ADD PUSH1 0x20 DUP1 SWAP2 DIV MUL PUSH1 0x20 ADD PUSH1 0x40 MLOAD SWAP1 DUP2 ADD PUSH1 0x40 MSTORE DUP1 SWAP3 SWAP2 SWAP1 DUP2 DUP2 MSTORE PUSH1 0x20 ADD DUP3 DUP1 SLOAD PUSH2 0x3CE SWAP1 PUSH2 0x126B JUMP JUMPDEST DUP1 ISZERO PUSH2 0x419 JUMPI DUP1 PUSH1 0x1F LT PUSH2 0x3F0 JUMPI PUSH2 0x100 DUP1 DUP4 SLOAD DIV MUL DUP4 MSTORE SWAP2 PUSH1 0x20 ADD SWAP2 PUSH2 0x419 JUMP JUMPDEST DUP3 ADD SWAP2 SWAP1 PUSH0 MSTORE PUSH1 0x20 PUSH0 KECCAK256 SWAP1 JUMPDEST DUP2 SLOAD DUP2 MSTORE SWAP1 PUSH1 0x1 ADD SWAP1 PUSH1 0x20 ADD DUP1 DUP4 GT PUSH2 0x3FC JUMPI DUP3 SWAP1 SUB PUSH1 0x1F AND DUP3 ADD SWAP2 JUMPDEST POP POP POP POP POP DUP2 MSTORE PUSH1 0x20 ADD PUSH1 0x3 DUP3 ADD SLOAD DUP2 MSTORE PUSH1 0x20 ADD PUSH1 0x4 DUP3 ADD SLOAD DUP2 MSTORE POP POP SWAP1 POP SWAP3 SWAP2 POP POP JUMP JUMPDEST PUSH1 0x60 PUSH1 0x1 PUSH0 DUP4 PUSH20 0xFFFFFFFFFFFFFFFFFFFFFFFFFFFFFFFFFFFFFFFF AND PUSH20 0xFFFFFFFFFFFFFFFFFFFFFFFFFFFFFFFFFFFFFFFF AND DUP2 MSTORE PUSH1 0x20 ADD SWAP1 DUP2 MSTORE PUSH1 0x20 ADD PUSH0 KECCAK256 DUP1 SLOAD DUP1 PUSH1 0x20 MUL PUSH1 0x20 ADD PUSH1 0x40 MLOAD SWAP1 DUP2 ADD PUSH1 0x40 MSTORE DUP1 SWAP3 SWAP2 SWAP1 DUP2 DUP2 MSTORE PUSH1 0x20 ADD PUSH0 SWAP1 JUMPDEST DUP3 DUP3 LT ISZERO PUSH2 0x5CE JUMPI DUP4 DUP3 SWAP1 PUSH0 MSTORE PUSH1 0x20 PUSH0 KECCAK256 SWAP1 PUSH1 0x5 MUL ADD PUSH1 0x40 MLOAD DUP1 PUSH1 0xA0 ADD PUSH1 0x40 MSTORE SWAP1 DUP2 PUSH0 DUP3 ADD SLOAD DUP2 MSTORE PUSH1 0x20 ADD PUSH1 0x1 DUP3 ADD PUSH0 SWAP1 SLOAD SWAP1 PUSH2 0x100 EXP SWAP1 DIV PUSH20 0xFFFFFFFFFFFFFFFFFFFFFFFFFFFFFFFFFFFFFFFF AND PUSH20 0xFFFFFFFFFFFFFFFFFFFFFFFFFFFFFFFFFFFFFFFF AND PUSH20 0xFFFFFFFFFFFFFFFFFFFFFFFFFFFFFFFFFFFFFFFF AND DUP2 MSTORE PUSH1 0x20 ADD PUSH1 0x2 DUP3 ADD DUP1 SLOAD PUSH2 0x52B SWAP1 PUSH2 0x126B JUMP JUMPDEST DUP1 PUSH1 0x1F ADD PUSH1 0x20 DUP1 SWAP2 DIV MUL PUSH1 0x20 ADD PUSH1 0x40 MLOAD SWAP1 DUP2 ADD PUSH1 0x40 MSTORE DUP1 SWAP3 SWAP2 SWAP1 DUP2 DUP2 MSTORE PUSH1 0x20 ADD DUP3 DUP1 SLOAD PUSH2 0x557 SWAP1 PUSH2 0x126B JUMP JUMPDEST DUP1 ISZERO PUSH2 0x5A2 JUMPI DUP1 PUSH1 0x1F LT PUSH2 0x579 JUMPI PUSH2 0x100 DUP1 DUP4 SLOAD DIV MUL DUP4 MSTORE SWAP2 PUSH1 0x20 ADD SWAP2 PUSH2 0x5A2 JUMP JUMPDEST DUP3 ADD SWAP2 SWAP1 PUSH0 MSTORE PUSH1 0x20 PUSH0 KECCAK256 SWAP1 JUMPDEST DUP2 SLOAD DUP2 MSTORE SWAP1 PUSH1 0x1 ADD SWAP1 PUSH1 0x20 ADD DUP1 DUP4 GT PUSH2 0x585 JUMPI DUP3 SWAP1 SUB PUSH1 0x1F AND DUP3 ADD SWAP2 JUMPDEST POP POP POP POP POP DUP2 MSTORE PUSH1 0x20 ADD PUSH1 0x3 DUP3 ADD SLOAD DUP2 MSTORE PUSH1 0x20 ADD PUSH1 0x4 DUP3 ADD SLOAD DUP2 MSTORE POP POP DUP2 MSTORE PUSH1 0x20 ADD SWAP1 PUSH1 0x1 ADD SWAP1 PUSH2 0x49C JUMP JUMPDEST POP POP POP POP SWAP1 POP SWAP2 SWAP1 POP JUMP JUMPDEST DUP1 PUSH1 0x1 PUSH0 DUP5 PUSH20 0xFFFFFFFFFFFFFFFFFFFFFFFFFFFFFFFFFFFFFFFF AND PUSH20 0xFFFFFFFFFFFFFFFFFFFFFFFFFFFFFFFFFFFFFFFF AND DUP2 MSTORE PUSH1 0x20 ADD SWAP1 DUP2 MSTORE PUSH1 0x20 ADD PUSH0 KECCAK256 DUP3 DUP2 SLOAD DUP2 LT PUSH2 0x629 JUMPI PUSH2 0x628 PUSH2 0x129B JUMP JUMPDEST JUMPDEST SWAP1 PUSH0 MSTORE PUSH1 0x20 PUSH0 KECCAK256 SWAP1 PUSH1 0x5 MUL ADD PUSH0 ADD SLOAD EQ PUSH2 0x678 JUMPI PUSH1 0x40 MLOAD PUSH32 0x8C379A000000000000000000000000000000000000000000000000000000000 DUP2 MSTORE PUSH1 0x4 ADD PUSH2 0x66F SWAP1 PUSH2 0x1312 JUMP JUMPDEST PUSH1 0x40 MLOAD DUP1 SWAP2 SUB SWAP1 REVERT JUMPDEST PUSH0 PUSH1 0x1 PUSH0 DUP5 PUSH20 0xFFFFFFFFFFFFFFFFFFFFFFFFFFFFFFFFFFFFFFFF AND PUSH20 0xFFFFFFFFFFFFFFFFFFFFFFFFFFFFFFFFFFFFFFFF AND DUP2 MSTORE PUSH1 0x20 ADD SWAP1 DUP2 MSTORE PUSH1 0x20 ADD PUSH0 KECCAK256 DUP3 DUP2 SLOAD DUP2 LT PUSH2 0x6C8 JUMPI PUSH2 0x6C7 PUSH2 0x129B JUMP JUMPDEST JUMPDEST SWAP1 PUSH0 MSTORE PUSH1 0x20 PUSH0 KECCAK256 SWAP1 PUSH1 0x5 MUL ADD PUSH1 0x4 ADD SLOAD GT PUSH2 0x718 JUMPI PUSH1 0x40 MLOAD PUSH32 0x8C379A000000000000000000000000000000000000000000000000000000000 DUP2 MSTORE PUSH1 0x4 ADD PUSH2 0x70F SWAP1 PUSH2 0x137A JUMP JUMPDEST PUSH1 0x40 MLOAD DUP1 SWAP2 SUB SWAP1 REVERT JUMPDEST PUSH1 0x1 PUSH0 DUP4 PUSH20 0xFFFFFFFFFFFFFFFFFFFFFFFFFFFFFFFFFFFFFFFF AND PUSH20 0xFFFFFFFFFFFFFFFFFFFFFFFFFFFFFFFFFFFFFFFF AND DUP2 MSTORE PUSH1 0x20 ADD SWAP1 DUP2 MSTORE PUSH1 0x20 ADD PUSH0 KECCAK256 DUP2 DUP2 SLOAD DUP2 LT PUSH2 0x767 JUMPI PUSH2 0x766 PUSH2 0x129B JUMP JUMPDEST JUMPDEST SWAP1 PUSH0 MSTORE PUSH1 0x20 PUSH0 KECCAK256 SWAP1 PUSH1 0x5 MUL ADD PUSH1 0x4 ADD PUSH0 DUP2 SLOAD DUP1 SWAP3 SWAP2 SWAP1 PUSH2 0x786 SWAP1 PUSH2 0x13C5 JUMP JUMPDEST SWAP2 SWAP1 POP SSTORE POP POP POP JUMP JUMPDEST PUSH1 0x2 PUSH0 SWAP1 SLOAD SWAP1 PUSH2 0x100 EXP SWAP1 DIV PUSH20 0xFFFFFFFFFFFFFFFFFFFFFFFFFFFFFFFFFFFFFFFF AND PUSH20 0xFFFFFFFFFFFFFFFFFFFFFFFFFFFFFFFFFFFFFFFF AND CALLER PUSH20 0xFFFFFFFFFFFFFFFFFFFFFFFFFFFFFFFFFFFFFFFF AND EQ PUSH2 0x81E JUMPI PUSH1 0x40 MLOAD PUSH32 0x8C379A000000000000000000000000000000000000000000000000000000000 DUP2 MSTORE PUSH1 0x4 ADD PUSH2 0x815 SWAP1 PUSH2 0x1436 JUMP JUMPDEST PUSH1 0x40 MLOAD DUP1 SWAP2 SUB SWAP1 REVERT JUMPDEST DUP1 PUSH0 DUP1 PUSH2 0x100 EXP DUP2 SLOAD DUP2 PUSH2 0xFFFF MUL NOT AND SWAP1 DUP4 PUSH2 0xFFFF AND MUL OR SWAP1 SSTORE POP POP JUMP JUMPDEST PUSH0 DUP1 SLOAD SWAP1 PUSH2 0x100 EXP SWAP1 DIV PUSH2 0xFFFF AND DUP2 JUMP JUMPDEST PUSH1 0x5 DUP2 MLOAD LT ISZERO PUSH2 0x892 JUMPI PUSH1 0x40 MLOAD PUSH32 0x8C379A000000000000000000000000000000000000000000000000000000000 DUP2 MSTORE PUSH1 0x4 ADD PUSH2 0x889 SWAP1 PUSH2 0x149E JUMP JUMPDEST PUSH1 0x40 MLOAD DUP1 SWAP2 SUB SWAP1 REVERT JUMPDEST PUSH2 0x118 DUP2 MLOAD GT ISZERO PUSH2 0x8D8 JUMPI PUSH1 0x40 MLOAD PUSH32 0x8C379A000000000000000000000000000000000000000000000000000000000 DUP2 MSTORE PUSH1 0x4 ADD PUSH2 0x8CF SWAP1 PUSH2 0x1506 JUMP JUMPDEST PUSH1 0x40 MLOAD DUP1 SWAP2 SUB SWAP1 REVERT JUMPDEST PUSH0 PUSH1 0x40 MLOAD DUP1 PUSH1 0xA0 ADD PUSH1 0x40 MSTORE DUP1 PUSH1 0x1 PUSH0 CALLER PUSH20 0xFFFFFFFFFFFFFFFFFFFFFFFFFFFFFFFFFFFFFFFF AND PUSH20 0xFFFFFFFFFFFFFFFFFFFFFFFFFFFFFFFFFFFFFFFF AND DUP2 MSTORE PUSH1 0x20 ADD SWAP1 DUP2 MSTORE PUSH1 0x20 ADD PUSH0 KECCAK256 DUP1 SLOAD SWAP1 POP DUP2 MSTORE PUSH1 0x20 ADD CALLER PUSH20 0xFFFFFFFFFFFFFFFFFFFFFFFFFFFFFFFFFFFFFFFF AND DUP2 MSTORE PUSH1 0x20 ADD DUP4 DUP2 MSTORE PUSH1 0x20 ADD TIMESTAMP DUP2 MSTORE PUSH1 0x20 ADD PUSH0 DUP2 MSTORE POP SWAP1 POP PUSH1 0x1 PUSH0 CALLER PUSH20 0xFFFFFFFFFFFFFFFFFFFFFFFFFFFFFFFFFFFFFFFF AND PUSH20 0xFFFFFFFFFFFFFFFFFFFFFFFFFFFFFFFFFFFFFFFF AND DUP2 MSTORE PUSH1 0x20 ADD SWAP1 DUP2 MSTORE PUSH1 0x20 ADD PUSH0 KECCAK256 DUP2 SWAP1 DUP1 PUSH1 0x1 DUP2 SLOAD ADD DUP1 DUP3 SSTORE DUP1 SWAP2 POP POP PUSH1 0x1 SWAP1 SUB SWAP1 PUSH0 MSTORE PUSH1 0x20 PUSH0 KECCAK256 SWAP1 PUSH1 0x5 MUL ADD PUSH0 SWAP1 SWAP2 SWAP1 SWAP2 SWAP1 SWAP2 POP PUSH0 DUP3 ADD MLOAD DUP2 PUSH0 ADD SSTORE PUSH1 0x20 DUP3 ADD MLOAD DUP2 PUSH1 0x1 ADD PUSH0 PUSH2 0x100 EXP DUP2 SLOAD DUP2 PUSH20 0xFFFFFFFFFFFFFFFFFFFFFFFFFFFFFFFFFFFFFFFF MUL NOT AND SWAP1 DUP4 PUSH20 0xFFFFFFFFFFFFFFFFFFFFFFFFFFFFFFFFFFFFFFFF AND MUL OR SWAP1 SSTORE POP PUSH1 0x40 DUP3 ADD MLOAD DUP2 PUSH1 0x2 ADD SWAP1 DUP2 PUSH2 0xA1F SWAP2 SWAP1 PUSH2 0x16C1 JUMP JUMPDEST POP PUSH1 0x60 DUP3 ADD MLOAD DUP2 PUSH1 0x3 ADD SSTORE PUSH1 0x80 DUP3 ADD MLOAD DUP2 PUSH1 0x4 ADD SSTORE POP POP POP POP JUMP JUMPDEST PUSH1 0x2 PUSH0 SWAP1 SLOAD SWAP1 PUSH2 0x100 EXP SWAP1 DIV PUSH20 0xFFFFFFFFFFFFFFFFFFFFFFFFFFFFFFFFFFFFFFFF AND DUP2 JUMP JUMPDEST DUP2 PUSH1 0x1 PUSH0 DUP4 PUSH20 0xFFFFFFFFFFFFFFFFFFFFFFFFFFFFFFFFFFFFFFFF AND PUSH20 0xFFFFFFFFFFFFFFFFFFFFFFFFFFFFFFFFFFFFFFFF AND DUP2 MSTORE PUSH1 0x20 ADD SWAP1 DUP2 MSTORE PUSH1 0x20 ADD PUSH0 KECCAK256 DUP4 DUP2 SLOAD DUP2 LT PUSH2 0xAAF JUMPI PUSH2 0xAAE PUSH2 0x129B JUMP JUMPDEST JUMPDEST SWAP1 PUSH0 MSTORE PUSH1 0x20 PUSH0 KECCAK256 SWAP1 PUSH1 0x5 MUL ADD PUSH0 ADD SLOAD EQ PUSH2 0xAFE JUMPI PUSH1 0x40 MLOAD PUSH32 0x8C379A000000000000000000000000000000000000000000000000000000000 DUP2 MSTORE PUSH1 0x4 ADD PUSH2 0xAF5 SWAP1 PUSH2 0x1312 JUMP JUMPDEST PUSH1 0x40 MLOAD DUP1 SWAP2 SUB SWAP1 REVERT JUMPDEST PUSH1 0x1 PUSH0 DUP3 PUSH20 0xFFFFFFFFFFFFFFFFFFFFFFFFFFFFFFFFFFFFFFFF AND PUSH20 0xFFFFFFFFFFFFFFFFFFFFFFFFFFFFFFFFFFFFFFFF AND DUP2 MSTORE PUSH1 0x20 ADD SWAP1 DUP2 MSTORE PUSH1 0x20 ADD PUSH0 KECCAK256 DUP3 DUP2 SLOAD DUP2 LT PUSH2 0xB4D JUMPI PUSH2 0xB4C PUSH2 0x129B JUMP JUMPDEST JUMPDEST SWAP1 PUSH0 MSTORE PUSH1 0x20 PUSH0 KECCAK256 SWAP1 PUSH1 0x5 MUL ADD PUSH1 0x4 ADD PUSH0 DUP2 SLOAD DUP1 SWAP3 SWAP2 SWAP1 PUSH2 0xB6C SWAP1 PUSH2 0x1790 JUMP JUMPDEST SWAP2 SWAP1 POP SSTORE POP POP POP JUMP JUMPDEST PUSH1 0x40 MLOAD DUP1 PUSH1 0xA0 ADD PUSH1 0x40 MSTORE DUP1 PUSH0 DUP2 MSTORE PUSH1 0x20 ADD PUSH0 PUSH20 0xFFFFFFFFFFFFFFFFFFFFFFFFFFFFFFFFFFFFFFFF AND DUP2 MSTORE PUSH1 0x20 ADD PUSH1 0x60 DUP2 MSTORE PUSH1 0x20 ADD PUSH0 DUP2 MSTORE PUSH1 0x20 ADD PUSH0 DUP2 MSTORE POP SWAP1 JUMP JUMPDEST PUSH0 PUSH1 0x40 MLOAD SWAP1 POP SWAP1 JUMP JUMPDEST PUSH0 DUP1 REVERT JUMPDEST PUSH0 DUP1 REVERT JUMPDEST PUSH0 PUSH20 0xFFFFFFFFFFFFFFFFFFFFFFFFFFFFFFFFFFFFFFFF DUP3 AND SWAP1 POP SWAP2 SWAP1 POP JUMP JUMPDEST PUSH0 PUSH2 0xBF0 DUP3 PUSH2 0xBC7 JUMP JUMPDEST SWAP1 POP SWAP2 SWAP1 POP JUMP JUMPDEST PUSH2 0xC00 DUP2 PUSH2 0xBE6 JUMP JUMPDEST DUP2 EQ PUSH2 0xC0A JUMPI PUSH0 DUP1 REVERT JUMPDEST POP JUMP JUMPDEST PUSH0 DUP2 CALLDATALOAD SWAP1 POP PUSH2 0xC1B DUP2 PUSH2 0xBF7 JUMP JUMPDEST SWAP3 SWAP2 POP POP JUMP JUMPDEST PUSH0 DUP2 SWAP1 POP SWAP2 SWAP1 POP JUMP JUMPDEST PUSH2 0xC33 DUP2 PUSH2 0xC21 JUMP JUMPDEST DUP2 EQ PUSH2 0xC3D JUMPI PUSH0 DUP1 REVERT JUMPDEST POP JUMP JUMPDEST PUSH0 DUP2 CALLDATALOAD SWAP1 POP PUSH2 0xC4E DUP2 PUSH2 0xC2A JUMP JUMPDEST SWAP3 SWAP2 POP POP JUMP JUMPDEST PUSH0 DUP1 PUSH1 0x40 DUP4 DUP6 SUB SLT ISZERO PUSH2 0xC6A JUMPI PUSH2 0xC69 PUSH2 0xBBF JUMP JUMPDEST JUMPDEST PUSH0 PUSH2 0xC77 DUP6 DUP3 DUP7 ADD PUSH2 0xC0D JUMP JUMPDEST SWAP3 POP POP PUSH1 0x20 PUSH2 0xC88 DUP6 DUP3 DUP7 ADD PUSH2 0xC40 JUMP JUMPDEST SWAP2 POP POP SWAP3 POP SWAP3 SWAP1 POP JUMP JUMPDEST PUSH2 0xC9B DUP2 PUSH2 0xC21 JUMP JUMPDEST DUP3 MSTORE POP POP JUMP JUMPDEST PUSH2 0xCAA DUP2 PUSH2 0xBE6 JUMP JUMPDEST DUP3 MSTORE POP POP JUMP JUMPDEST PUSH0 DUP2 MLOAD SWAP1 POP SWAP2 SWAP1 POP JUMP JUMPDEST PUSH0 DUP3 DUP3 MSTORE PUSH1 0x20 DUP3 ADD SWAP1 POP SWAP3 SWAP2 POP POP JUMP JUMPDEST DUP3 DUP2 DUP4 MCOPY PUSH0 DUP4 DUP4 ADD MSTORE POP POP POP JUMP JUMPDEST PUSH0 PUSH1 0x1F NOT PUSH1 0x1F DUP4 ADD AND SWAP1 POP SWAP2 SWAP1 POP JUMP JUMPDEST PUSH0 PUSH2 0xCF2 DUP3 PUSH2 0xCB0 JUMP JUMPDEST PUSH2 0xCFC DUP2 DUP6 PUSH2 0xCBA JUMP JUMPDEST SWAP4 POP PUSH2 0xD0C DUP2 DUP6 PUSH1 0x20 DUP7 ADD PUSH2 0xCCA JUMP JUMPDEST PUSH2 0xD15 DUP2 PUSH2 0xCD8 JUMP JUMPDEST DUP5 ADD SWAP2 POP POP SWAP3 SWAP2 POP POP JUMP JUMPDEST PUSH0 PUSH1 0xA0 DUP3 ADD SWAP1 POP PUSH2 0xD33 PUSH0 DUP4 ADD DUP9 PUSH2 0xC92 JUMP JUMPDEST PUSH2 0xD40 PUSH1 0x20 DUP4 ADD DUP8 PUSH2 0xCA1 JUMP JUMPDEST DUP2 DUP2 SUB PUSH1 0x40 DUP4 ADD MSTORE PUSH2 0xD52 DUP2 DUP7 PUSH2 0xCE8 JUMP JUMPDEST SWAP1 POP PUSH2 0xD61 PUSH1 0x60 DUP4 ADD DUP6 PUSH2 0xC92 JUMP JUMPDEST PUSH2 0xD6E PUSH1 0x80 DUP4 ADD DUP5 PUSH2 0xC92 JUMP JUMPDEST SWAP7 SWAP6 POP POP POP POP POP POP JUMP JUMPDEST PUSH2 0xD81 DUP2 PUSH2 0xC21 JUMP JUMPDEST DUP3 MSTORE POP POP JUMP JUMPDEST PUSH2 0xD90 DUP2 PUSH2 0xBE6 JUMP JUMPDEST DUP3 MSTORE POP POP JUMP JUMPDEST PUSH0 DUP3 DUP3 MSTORE PUSH1 0x20 DUP3 ADD SWAP1 POP SWAP3 SWAP2 POP POP JUMP JUMPDEST PUSH0 PUSH2 0xDB0 DUP3 PUSH2 0xCB0 JUMP JUMPDEST PUSH2 0xDBA DUP2 DUP6 PUSH2 0xD96 JUMP JUMPDEST SWAP4 POP PUSH2 0xDCA DUP2 DUP6 PUSH1 0x20 DUP7 ADD PUSH2 0xCCA JUMP JUMPDEST PUSH2 0xDD3 DUP2 PUSH2 0xCD8 JUMP JUMPDEST DUP5 ADD SWAP2 POP POP SWAP3 SWAP2 POP POP JUMP JUMPDEST PUSH0 PUSH1 0xA0 DUP4 ADD PUSH0 DUP4 ADD MLOAD PUSH2 0xDF3 PUSH0 DUP7 ADD DUP3 PUSH2 0xD78 JUMP JUMPDEST POP PUSH1 0x20 DUP4 ADD MLOAD PUSH2 0xE06 PUSH1 0x20 DUP7 ADD DUP3 PUSH2 0xD87 JUMP JUMPDEST POP PUSH1 0x40 DUP4 ADD MLOAD DUP5 DUP3 SUB PUSH1 0x40 DUP7 ADD MSTORE PUSH2 0xE1E DUP3 DUP3 PUSH2 0xDA6 JUMP JUMPDEST SWAP2 POP POP PUSH1 0x60 DUP4 ADD MLOAD PUSH2 0xE33 PUSH1 0x60 DUP7 ADD DUP3 PUSH2 0xD78 JUMP JUMPDEST POP PUSH1 0x80 DUP4 ADD MLOAD PUSH2 0xE46 PUSH1 0x80 DUP7 ADD DUP3 PUSH2 0xD78 JUMP JUMPDEST POP DUP1 SWAP2 POP POP SWAP3 SWAP2 POP POP JUMP JUMPDEST PUSH0 PUSH1 0x20 DUP3 ADD SWAP1 POP DUP2 DUP2 SUB PUSH0 DUP4 ADD MSTORE PUSH2 0xE69 DUP2 DUP5 PUSH2 0xDDE JUMP JUMPDEST SWAP1 POP SWAP3 SWAP2 POP POP JUMP JUMPDEST PUSH0 PUSH1 0x20 DUP3 DUP5 SUB SLT ISZERO PUSH2 0xE86 JUMPI PUSH2 0xE85 PUSH2 0xBBF JUMP JUMPDEST JUMPDEST PUSH0 PUSH2 0xE93 DUP5 DUP3 DUP6 ADD PUSH2 0xC0D JUMP JUMPDEST SWAP2 POP POP SWAP3 SWAP2 POP POP JUMP JUMPDEST PUSH0 DUP2 MLOAD SWAP1 POP SWAP2 SWAP1 POP JUMP JUMPDEST PUSH0 DUP3 DUP3 MSTORE PUSH1 0x20 DUP3 ADD SWAP1 POP SWAP3 SWAP2 POP POP JUMP JUMPDEST PUSH0 DUP2 SWAP1 POP PUSH1 0x20 DUP3 ADD SWAP1 POP SWAP2 SWAP1 POP JUMP JUMPDEST PUSH0 PUSH1 0xA0 DUP4 ADD PUSH0 DUP4 ADD MLOAD PUSH2 0xEDA PUSH0 DUP7 ADD DUP3 PUSH2 0xD78 JUMP JUMPDEST POP PUSH1 0x20 DUP4 ADD MLOAD PUSH2 0xEED PUSH1 0x20 DUP7 ADD DUP3 PUSH2 0xD87 JUMP JUMPDEST POP PUSH1 0x40 DUP4 ADD MLOAD DUP5 DUP3 SUB PUSH1 0x40 DUP7 ADD MSTORE PUSH2 0xF05 DUP3 DUP3 PUSH2 0xDA6 JUMP JUMPDEST SWAP2 POP POP PUSH1 0x60 DUP4 ADD MLOAD PUSH2 0xF1A PUSH1 0x60 DUP7 ADD DUP3 PUSH2 0xD78 JUMP JUMPDEST POP PUSH1 0x80 DUP4 ADD MLOAD PUSH2 0xF2D PUSH1 0x80 DUP7 ADD DUP3 PUSH2 0xD78 JUMP JUMPDEST POP DUP1 SWAP2 POP POP SWAP3 SWAP2 POP POP JUMP JUMPDEST PUSH0 PUSH2 0xF43 DUP4 DUP4 PUSH2 0xEC5 JUMP JUMPDEST SWAP1 POP SWAP3 SWAP2 POP POP JUMP JUMPDEST PUSH0 PUSH1 0x20 DUP3 ADD SWAP1 POP SWAP2 SWAP1 POP JUMP JUMPDEST PUSH0 PUSH2 0xF61 DUP3 PUSH2 0xE9C JUMP JUMPDEST PUSH2 0xF6B DUP2 DUP6 PUSH2 0xEA6 JUMP JUMPDEST SWAP4 POP DUP4 PUSH1 0x20 DUP3 MUL DUP6 ADD PUSH2 0xF7D DUP6 PUSH2 0xEB6 JUMP JUMPDEST DUP1 PUSH0 JUMPDEST DUP6 DUP2 LT ISZERO PUSH2 0xFB8 JUMPI DUP5 DUP5 SUB DUP10 MSTORE DUP2 MLOAD PUSH2 0xF99 DUP6 DUP3 PUSH2 0xF38 JUMP JUMPDEST SWAP5 POP PUSH2 0xFA4 DUP4 PUSH2 0xF4B JUMP JUMPDEST SWAP3 POP PUSH1 0x20 DUP11 ADD SWAP10 POP POP PUSH1 0x1 DUP2 ADD SWAP1 POP PUSH2 0xF80 JUMP JUMPDEST POP DUP3 SWAP8 POP DUP8 SWAP6 POP POP POP POP POP POP SWAP3 SWAP2 POP POP JUMP JUMPDEST PUSH0 PUSH1 0x20 DUP3 ADD SWAP1 POP DUP2 DUP2 SUB PUSH0 DUP4 ADD MSTORE PUSH2 0xFE2 DUP2 DUP5 PUSH2 0xF57 JUMP JUMPDEST SWAP1 POP SWAP3 SWAP2 POP POP JUMP JUMPDEST PUSH0 PUSH2 0xFFFF DUP3 AND SWAP1 POP SWAP2 SWAP1 POP JUMP JUMPDEST PUSH2 0x1000 DUP2 PUSH2 0xFEA JUMP JUMPDEST DUP2 EQ PUSH2 0x100A JUMPI PUSH0 DUP1 REVERT JUMPDEST POP JUMP JUMPDEST PUSH0 DUP2 CALLDATALOAD SWAP1 POP PUSH2 0x101B DUP2 PUSH2 0xFF7 JUMP JUMPDEST SWAP3 SWAP2 POP POP JUMP JUMPDEST PUSH0 PUSH1 0x20 DUP3 DUP5 SUB SLT ISZERO PUSH2 0x1036 JUMPI PUSH2 0x1035 PUSH2 0xBBF JUMP JUMPDEST JUMPDEST PUSH0 PUSH2 0x1043 DUP5 DUP3 DUP6 ADD PUSH2 0x100D JUMP JUMPDEST SWAP2 POP POP SWAP3 SWAP2 POP POP JUMP JUMPDEST PUSH2 0x1055 DUP2 PUSH2 0xFEA JUMP JUMPDEST DUP3 MSTORE POP POP JUMP JUMPDEST PUSH0 PUSH1 0x20 DUP3 ADD SWAP1 POP PUSH2 0x106E PUSH0 DUP4 ADD DUP5 PUSH2 0x104C JUMP JUMPDEST SWAP3 SWAP2 POP POP JUMP JUMPDEST PUSH0 DUP1 REVERT JUMPDEST PUSH0 DUP1 REVERT JUMPDEST PUSH32 0x4E487B7100000000000000000000000000000000000000000000000000000000 PUSH0 MSTORE PUSH1 0x41 PUSH1 0x4 MSTORE PUSH1 0x24 PUSH0 REVERT JUMPDEST PUSH2 0x10B2 DUP3 PUSH2 0xCD8 JUMP JUMPDEST DUP2 ADD DUP2 DUP2 LT PUSH8 0xFFFFFFFFFFFFFFFF DUP3 GT OR ISZERO PUSH2 0x10D1 JUMPI PUSH2 0x10D0 PUSH2 0x107C JUMP JUMPDEST JUMPDEST DUP1 PUSH1 0x40 MSTORE POP POP POP JUMP JUMPDEST PUSH0 PUSH2 0x10E3 PUSH2 0xBB6 JUMP JUMPDEST SWAP1 POP PUSH2 0x10EF DUP3 DUP3 PUSH2 0x10A9 JUMP JUMPDEST SWAP2 SWAP1 POP JUMP JUMPDEST PUSH0 PUSH8 0xFFFFFFFFFFFFFFFF DUP3 GT ISZERO PUSH2 0x110E JUMPI PUSH2 0x110D PUSH2 0x107C JUMP JUMPDEST JUMPDEST PUSH2 0x1117 DUP3 PUSH2 0xCD8 JUMP JUMPDEST SWAP1 POP PUSH1 0x20 DUP2 ADD SWAP1 POP SWAP2 SWAP1 POP JUMP JUMPDEST DUP3 DUP2 DUP4 CALLDATACOPY PUSH0 DUP4 DUP4 ADD MSTORE POP POP POP JUMP JUMPDEST PUSH0 PUSH2 0x1144 PUSH2 0x113F DUP5 PUSH2 0x10F4 JUMP JUMPDEST PUSH2 0x10DA JUMP JUMPDEST SWAP1 POP DUP3 DUP2 MSTORE PUSH1 0x20 DUP2 ADD DUP5 DUP5 DUP5 ADD GT ISZERO PUSH2 0x1160 JUMPI PUSH2 0x115F PUSH2 0x1078 JUMP JUMPDEST JUMPDEST PUSH2 0x116B DUP5 DUP3 DUP6 PUSH2 0x1124 JUMP JUMPDEST POP SWAP4 SWAP3 POP POP POP JUMP JUMPDEST PUSH0 DUP3 PUSH1 0x1F DUP4 ADD SLT PUSH2 0x1187 JUMPI PUSH2 0x1186 PUSH2 0x1074 JUMP JUMPDEST JUMPDEST DUP2 CALLDATALOAD PUSH2 0x1197 DUP5 DUP3 PUSH1 0x20 DUP7 ADD PUSH2 0x1132 JUMP JUMPDEST SWAP2 POP POP SWAP3 SWAP2 POP POP JUMP JUMPDEST PUSH0 PUSH1 0x20 DUP3 DUP5 SUB SLT ISZERO PUSH2 0x11B5 JUMPI PUSH2 0x11B4 PUSH2 0xBBF JUMP JUMPDEST JUMPDEST PUSH0 DUP3 ADD CALLDATALOAD PUSH8 0xFFFFFFFFFFFFFFFF DUP2 GT ISZERO PUSH2 0x11D2 JUMPI PUSH2 0x11D1 PUSH2 0xBC3 JUMP JUMPDEST JUMPDEST PUSH2 0x11DE DUP5 DUP3 DUP6 ADD PUSH2 0x1173 JUMP JUMPDEST SWAP2 POP POP SWAP3 SWAP2 POP POP JUMP JUMPDEST PUSH0 PUSH1 0x20 DUP3 ADD SWAP1 POP PUSH2 0x11FA PUSH0 DUP4 ADD DUP5 PUSH2 0xCA1 JUMP JUMPDEST SWAP3 SWAP2 POP POP JUMP JUMPDEST PUSH0 DUP1 PUSH1 0x40 DUP4 DUP6 SUB SLT ISZERO PUSH2 0x1216 JUMPI PUSH2 0x1215 PUSH2 0xBBF JUMP JUMPDEST JUMPDEST PUSH0 PUSH2 0x1223 DUP6 DUP3 DUP7 ADD PUSH2 0xC40 JUMP JUMPDEST SWAP3 POP POP PUSH1 0x20 PUSH2 0x1234 DUP6 DUP3 DUP7 ADD PUSH2 0xC0D JUMP JUMPDEST SWAP2 POP POP SWAP3 POP SWAP3 SWAP1 POP JUMP JUMPDEST PUSH32 0x4E487B7100000000000000000000000000000000000000000000000000000000 PUSH0 MSTORE PUSH1 0x22 PUSH1 0x4 MSTORE PUSH1 0x24 PUSH0 REVERT JUMPDEST PUSH0 PUSH1 0x2 DUP3 DIV SWAP1 POP PUSH1 0x1 DUP3 AND DUP1 PUSH2 0x1282 JUMPI PUSH1 0x7F DUP3 AND SWAP2 POP JUMPDEST PUSH1 0x20 DUP3 LT DUP2 SUB PUSH2 0x1295 JUMPI PUSH2 0x1294 PUSH2 0x123E JUMP JUMPDEST JUMPDEST POP SWAP2 SWAP1 POP JUMP JUMPDEST PUSH32 0x4E487B7100000000000000000000000000000000000000000000000000000000 PUSH0 MSTORE PUSH1 0x32 PUSH1 0x4 MSTORE PUSH1 0x24 PUSH0 REVERT JUMPDEST PUSH32 0x747765657420646F6573206E6F74206578697374000000000000000000000000 PUSH0 DUP3 ADD MSTORE POP JUMP JUMPDEST PUSH0 PUSH2 0x12FC PUSH1 0x14 DUP4 PUSH2 0xCBA JUMP JUMPDEST SWAP2 POP PUSH2 0x1307 DUP3 PUSH2 0x12C8 JUMP JUMPDEST PUSH1 0x20 DUP3 ADD SWAP1 POP SWAP2 SWAP1 POP JUMP JUMPDEST PUSH0 PUSH1 0x20 DUP3 ADD SWAP1 POP DUP2 DUP2 SUB PUSH0 DUP4 ADD MSTORE PUSH2 0x1329 DUP2 PUSH2 0x12F0 JUMP JUMPDEST SWAP1 POP SWAP2 SWAP1 POP JUMP JUMPDEST PUSH32 0x547765657420686173206E6F206C696B65730000000000000000000000000000 PUSH0 DUP3 ADD MSTORE POP JUMP JUMPDEST PUSH0 PUSH2 0x1364 PUSH1 0x12 DUP4 PUSH2 0xCBA JUMP JUMPDEST SWAP2 POP PUSH2 0x136F DUP3 PUSH2 0x1330 JUMP JUMPDEST PUSH1 0x20 DUP3 ADD SWAP1 POP SWAP2 SWAP1 POP JUMP JUMPDEST PUSH0 PUSH1 0x20 DUP3 ADD SWAP1 POP DUP2 DUP2 SUB PUSH0 DUP4 ADD MSTORE PUSH2 0x1391 DUP2 PUSH2 0x1358 JUMP JUMPDEST SWAP1 POP SWAP2 SWAP1 POP JUMP JUMPDEST PUSH32 0x4E487B7100000000000000000000000000000000000000000000000000000000 PUSH0 MSTORE PUSH1 0x11 PUSH1 0x4 MSTORE PUSH1 0x24 PUSH0 REVERT JUMPDEST PUSH0 PUSH2 0x13CF DUP3 PUSH2 0xC21 JUMP JUMPDEST SWAP2 POP PUSH0 DUP3 SUB PUSH2 0x13E1 JUMPI PUSH2 0x13E0 PUSH2 0x1398 JUMP JUMPDEST JUMPDEST PUSH1 0x1 DUP3 SUB SWAP1 POP SWAP2 SWAP1 POP JUMP JUMPDEST PUSH32 0x596F7520617265206E6F7420746865206F776E65722121000000000000000000 PUSH0 DUP3 ADD MSTORE POP JUMP JUMPDEST PUSH0 PUSH2 0x1420 PUSH1 0x17 DUP4 PUSH2 0xCBA JUMP JUMPDEST SWAP2 POP PUSH2 0x142B DUP3 PUSH2 0x13EC JUMP JUMPDEST PUSH1 0x20 DUP3 ADD SWAP1 POP SWAP2 SWAP1 POP JUMP JUMPDEST PUSH0 PUSH1 0x20 DUP3 ADD SWAP1 POP DUP2 DUP2 SUB PUSH0 DUP4 ADD MSTORE PUSH2 0x144D DUP2 PUSH2 0x1414 JUMP JUMPDEST SWAP1 POP SWAP2 SWAP1 POP JUMP JUMPDEST PUSH32 0x596F7520747765657420697320746F6F2073686F727400000000000000000000 PUSH0 DUP3 ADD MSTORE POP JUMP JUMPDEST PUSH0 PUSH2 0x1488 PUSH1 0x16 DUP4 PUSH2 0xCBA JUMP JUMPDEST SWAP2 POP PUSH2 0x1493 DUP3 PUSH2 0x1454 JUMP JUMPDEST PUSH1 0x20 DUP3 ADD SWAP1 POP SWAP2 SWAP1 POP JUMP JUMPDEST PUSH0 PUSH1 0x20 DUP3 ADD SWAP1 POP DUP2 DUP2 SUB PUSH0 DUP4 ADD MSTORE PUSH2 0x14B5 DUP2 PUSH2 0x147C JUMP JUMPDEST SWAP1 POP SWAP2 SWAP1 POP JUMP JUMPDEST PUSH32 0x596F7520747765657420697320746F6F206C6F6E670000000000000000000000 PUSH0 DUP3 ADD MSTORE POP JUMP JUMPDEST PUSH0 PUSH2 0x14F0 PUSH1 0x15 DUP4 PUSH2 0xCBA JUMP JUMPDEST SWAP2 POP PUSH2 0x14FB DUP3 PUSH2 0x14BC JUMP JUMPDEST PUSH1 0x20 DUP3 ADD SWAP1 POP SWAP2 SWAP1 POP JUMP JUMPDEST PUSH0 PUSH1 0x20 DUP3 ADD SWAP1 POP DUP2 DUP2 SUB PUSH0 DUP4 ADD MSTORE PUSH2 0x151D DUP2 PUSH2 0x14E4 JUMP JUMPDEST SWAP1 POP SWAP2 SWAP1 POP JUMP JUMPDEST PUSH0 DUP2 SWAP1 POP DUP2 PUSH0 MSTORE PUSH1 0x20 PUSH0 KECCAK256 SWAP1 POP SWAP2 SWAP1 POP JUMP JUMPDEST PUSH0 PUSH1 0x20 PUSH1 0x1F DUP4 ADD DIV SWAP1 POP SWAP2 SWAP1 POP JUMP JUMPDEST PUSH0 DUP3 DUP3 SHL SWAP1 POP SWAP3 SWAP2 POP POP JUMP JUMPDEST PUSH0 PUSH1 0x8 DUP4 MUL PUSH2 0x1580 PUSH32 0xFFFFFFFFFFFFFFFFFFFFFFFFFFFFFFFFFFFFFFFFFFFFFFFFFFFFFFFFFFFFFFFF DUP3 PUSH2 0x1545 JUMP JUMPDEST PUSH2 0x158A DUP7 DUP4 PUSH2 0x1545 JUMP JUMPDEST SWAP6 POP DUP1 NOT DUP5 AND SWAP4 POP DUP1 DUP7 AND DUP5 OR SWAP3 POP POP POP SWAP4 SWAP3 POP POP POP JUMP JUMPDEST PUSH0 DUP2 SWAP1 POP SWAP2 SWAP1 POP JUMP JUMPDEST PUSH0 PUSH2 0x15C5 PUSH2 0x15C0 PUSH2 0x15BB DUP5 PUSH2 0xC21 JUMP JUMPDEST PUSH2 0x15A2 JUMP JUMPDEST PUSH2 0xC21 JUMP JUMPDEST SWAP1 POP SWAP2 SWAP1 POP JUMP JUMPDEST PUSH0 DUP2 SWAP1 POP SWAP2 SWAP1 POP JUMP JUMPDEST PUSH2 0x15DE DUP4 PUSH2 0x15AB JUMP JUMPDEST PUSH2 0x15F2 PUSH2 0x15EA DUP3 PUSH2 0x15CC JUMP JUMPDEST DUP5 DUP5 SLOAD PUSH2 0x1551 JUMP JUMPDEST DUP3 SSTORE POP POP POP POP JUMP JUMPDEST PUSH0 SWAP1 JUMP JUMPDEST PUSH2 0x1606 PUSH2 0x15FA JUMP JUMPDEST PUSH2 0x1611 DUP2 DUP5 DUP5 PUSH2 0x15D5 JUMP JUMPDEST POP POP POP JUMP JUMPDEST JUMPDEST DUP2 DUP2 LT ISZERO PUSH2 0x1634 JUMPI PUSH2 0x1629 PUSH0 DUP3 PUSH2 0x15FE JUMP JUMPDEST PUSH1 0x1 DUP2 ADD SWAP1 POP PUSH2 0x1617 JUMP JUMPDEST POP POP JUMP JUMPDEST PUSH1 0x1F DUP3 GT ISZERO PUSH2 0x1679 JUMPI PUSH2 0x164A DUP2 PUSH2 0x1524 JUMP JUMPDEST PUSH2 0x1653 DUP5 PUSH2 0x1536 JUMP JUMPDEST DUP2 ADD PUSH1 0x20 DUP6 LT ISZERO PUSH2 0x1662 JUMPI DUP2 SWAP1 POP JUMPDEST PUSH2 0x1676 PUSH2 0x166E DUP6 PUSH2 0x1536 JUMP JUMPDEST DUP4 ADD DUP3 PUSH2 0x1616 JUMP JUMPDEST POP POP JUMPDEST POP POP POP JUMP JUMPDEST PUSH0 DUP3 DUP3 SHR SWAP1 POP SWAP3 SWAP2 POP POP JUMP JUMPDEST PUSH0 PUSH2 0x1699 PUSH0 NOT DUP5 PUSH1 0x8 MUL PUSH2 0x167E JUMP JUMPDEST NOT DUP1 DUP4 AND SWAP2 POP POP SWAP3 SWAP2 POP POP JUMP JUMPDEST PUSH0 PUSH2 0x16B1 DUP4 DUP4 PUSH2 0x168A JUMP JUMPDEST SWAP2 POP DUP3 PUSH1 0x2 MUL DUP3 OR SWAP1 POP SWAP3 SWAP2 POP POP JUMP JUMPDEST PUSH2 0x16CA DUP3 PUSH2 0xCB0 JUMP JUMPDEST PUSH8 0xFFFFFFFFFFFFFFFF DUP2 GT ISZERO PUSH2 0x16E3 JUMPI PUSH2 0x16E2 PUSH2 0x107C JUMP JUMPDEST JUMPDEST PUSH2 0x16ED DUP3 SLOAD PUSH2 0x126B JUMP JUMPDEST PUSH2 0x16F8 DUP3 DUP3 DUP6 PUSH2 0x1638 JUMP JUMPDEST PUSH0 PUSH1 0x20 SWAP1 POP PUSH1 0x1F DUP4 GT PUSH1 0x1 DUP2 EQ PUSH2 0x1729 JUMPI PUSH0 DUP5 ISZERO PUSH2 0x1717 JUMPI DUP3 DUP8 ADD MLOAD SWAP1 POP JUMPDEST PUSH2 0x1721 DUP6 DUP3 PUSH2 0x16A6 JUMP JUMPDEST DUP7 SSTORE POP PUSH2 0x1788 JUMP JUMPDEST PUSH1 0x1F NOT DUP5 AND PUSH2 0x1737 DUP7 PUSH2 0x1524 JUMP JUMPDEST PUSH0 JUMPDEST DUP3 DUP2 LT ISZERO PUSH2 0x175E JUMPI DUP5 DUP10 ADD MLOAD DUP3 SSTORE PUSH1 0x1 DUP3 ADD SWAP2 POP PUSH1 0x20 DUP6 ADD SWAP5 POP PUSH1 0x20 DUP2 ADD SWAP1 POP PUSH2 0x1739 JUMP JUMPDEST DUP7 DUP4 LT ISZERO PUSH2 0x177B JUMPI DUP5 DUP10 ADD MLOAD PUSH2 0x1777 PUSH1 0x1F DUP10 AND DUP3 PUSH2 0x168A JUMP JUMPDEST DUP4 SSTORE POP JUMPDEST PUSH1 0x1 PUSH1 0x2 DUP9 MUL ADD DUP9 SSTORE POP POP POP JUMPDEST POP POP POP POP POP POP JUMP JUMPDEST PUSH0 PUSH2 0x179A DUP3 PUSH2 0xC21 JUMP JUMPDEST SWAP2 POP PUSH32 0xFFFFFFFFFFFFFFFFFFFFFFFFFFFFFFFFFFFFFFFFFFFFFFFFFFFFFFFFFFFFFFFF DUP3 SUB PUSH2 0x17CC JUMPI PUSH2 0x17CB PUSH2 0x1398 JUMP JUMPDEST JUMPDEST PUSH1 0x1 DUP3 ADD SWAP1 POP SWAP2 SWAP1 POP JUMP INVALID LOG2 PUSH5 0x6970667358 0x22 SLT KECCAK256 0x4F TIMESTAMP 0xE7 GAS PUSH27 0xA68C51174607163C5BB054076D504EF57B11D7524637C1158BF64B PUSH5 0x736F6C6343 STOP ADDMOD BYTE STOP CALLER "
				},
				"gasEstimates": {
					"creation": {
						"codeDepositCost": "1231400",
						"executionCost": "49810",
						"totalCost": "1281210"
					},
					"external": {
						"MAX_TWEET_LENGTH()": "2485",
						"changeTweetLength(uint16)": "26842",
						"createTweet(string)": "infinite",
						"getAllTweets(address)": "infinite",
						"getTweet(address,uint256)": "infinite",
						"likeTweet(uint256,address)": "infinite",
						"owner()": "2574",
						"tweets(address,uint256)": "infinite",
						"unlikeTweet(address,uint256)": "infinite"
					}
				},
				"methodIdentifiers": {
					"MAX_TWEET_LENGTH()": "6eb10797",
					"changeTweetLength(uint16)": "58bfa4ab",
					"createTweet(string)": "7c9cd2bc",
					"getAllTweets(address)": "12e7ee1c",
					"getTweet(address,uint256)": "112f54e3",
					"likeTweet(uint256,address)": "d04ddaa0",
					"owner()": "8da5cb5b",
					"tweets(address,uint256)": "05a1b4a9",
					"unlikeTweet(address,uint256)": "3d9b569f"
				}
			},
			"storageLayout": {
				"storage": [
					{
						"astId": 10,
						"contract": "contracts/Twitter.sol:Twitter",
						"label": "MAX_TWEET_LENGTH",
						"offset": 0,
						"slot": "0",
						"type": "t_uint16"
					},
					{
						"astId": 27,
						"contract": "contracts/Twitter.sol:Twitter",
						"label": "tweets",
						"offset": 0,
						"slot": "1",
						"type": "t_mapping(t_address,t_array(t_struct(Tweet)21_storage)dyn_storage)"
					},
					{
						"astId": 29,
						"contract": "contracts/Twitter.sol:Twitter",
						"label": "owner",
						"offset": 0,
						"slot": "2",
						"type": "t_address"
					}
				],
				"types": {
					"t_address": {
						"encoding": "inplace",
						"label": "address",
						"numberOfBytes": "20"
					},
					"t_array(t_struct(Tweet)21_storage)dyn_storage": {
						"base": "t_struct(Tweet)21_storage",
						"encoding": "dynamic_array",
						"label": "struct Twitter.Tweet[]",
						"numberOfBytes": "32"
					},
					"t_mapping(t_address,t_array(t_struct(Tweet)21_storage)dyn_storage)": {
						"encoding": "mapping",
						"key": "t_address",
						"label": "mapping(address => struct Twitter.Tweet[])",
						"numberOfBytes": "32",
						"value": "t_array(t_struct(Tweet)21_storage)dyn_storage"
					},
					"t_string_storage": {
						"encoding": "bytes",
						"label": "string",
						"numberOfBytes": "32"
					},
					"t_struct(Tweet)21_storage": {
						"encoding": "inplace",
						"label": "struct Twitter.Tweet",
						"members": [
							{
								"astId": 12,
								"contract": "contracts/Twitter.sol:Twitter",
								"label": "id",
								"offset": 0,
								"slot": "0",
								"type": "t_uint256"
							},
							{
								"astId": 14,
								"contract": "contracts/Twitter.sol:Twitter",
								"label": "author",
								"offset": 0,
								"slot": "1",
								"type": "t_address"
							},
							{
								"astId": 16,
								"contract": "contracts/Twitter.sol:Twitter",
								"label": "content",
								"offset": 0,
								"slot": "2",
								"type": "t_string_storage"
							},
							{
								"astId": 18,
								"contract": "contracts/Twitter.sol:Twitter",
								"label": "timestamp",
								"offset": 0,
								"slot": "3",
								"type": "t_uint256"
							},
							{
								"astId": 20,
								"contract": "contracts/Twitter.sol:Twitter",
								"label": "likes",
								"offset": 0,
								"slot": "4",
								"type": "t_uint256"
							}
						],
						"numberOfBytes": "160"
					},
					"t_uint16": {
						"encoding": "inplace",
						"label": "uint16",
						"numberOfBytes": "2"
					},
					"t_uint256": {
						"encoding": "inplace",
						"label": "uint256",
						"numberOfBytes": "32"
					}
				}
			},
			"userdoc": {
				"kind": "user",
				"methods": {},
				"version": 1
			}
		}
	}
}